:020000040800F2
:10000000180E0020A1010008352B000871230008FC
:100010003D2800083D0D0008F530000800000000F4
:10002000000000000000000000000000CD2C0008CF
:10003000410D0008000000009D2C0008012D000863
:10004000BB010008BB010008BB010008BB010008A0
:10005000BB010008BB010008BB010008BB01000890
:10006000BB010008BB010008BB010008BB01000880
:10007000BB010008BB010008BB010008BB01000870
:10008000BB010008BB010008BB010008BB01000860
:10009000BB010008BB010008BB010008BB01000850
:1000A000BB010008BB010008BB010008BB01000840
:1000B000BB0100086D2D000800000000BB01000816
:1000C000BB0100080000000000000000BB010008A8
:1000D00000000000BB010008E5300008000000003F
:1000E000BB010008BB010008BB01000800F002F8DA
:1000F00000F047F80AA090E8000C82448344AAF17B
:100100000107DA4501D100F03CF8AFF2090EBAE878
:100110000F0013F0010F18BFFB1A43F0010318473B
:10012000E872000008730000103A24BF78C878C154
:10013000FAD8520724BF30C830C144BF04680C60ED
:10014000704700000023002400250026103A28BF35
:1001500078C1FBD8520728BF30C148BF0B60704739
:10016000662905F05082002070471FB500F038FC6A
:1001700004000020002104F081FCE0601FBD10B5E8
:1001800010BD00F036FD1146FFF7EFFF03F050FC05
:1001900000F054FD03B4FFF7F2FF03BC00F01AFCBB
:1001A0000948804709480047FEE7FEE7FEE7FEE70B
:1001B000FEE7FEE7FEE7FEE7FEE7FEE70448054947
:1001C000054A064B70470000692D0008ED00000845
:1001D00018080020180E0020180A0020180A002015
:1001E0000FB41CB50C0007AA009001D02044401E9B
:1001F000074B7B4469460190069800F07CFB002C7D
:1002000003D06946002000F089FB1CBC5DF814FB9C
:10021000310700002DE9F0474FF0000A89460446F7
:10022000C0F820A02046E1688847002876D025281D
:1002300006D0D4E901219047206A401C2062F1E7F2
:10024000E168204600258847C4F81CA00646002720
:10025000C4F818A02A2E09D0304604F007FC38B3A1
:1002600004EB8708303EC8F8186019E059F8041B01
:10027000204604EB87029161E1688847012F06461A
:1002800018D1E069002820DA25F020051DE0D8F813
:10029000180000EB800006EB40003038C8F818006A
:1002A0002046E1688847064604F0E0FB0028EED1CE
:1002B000012F0AD02E2E08D12046E16888477F1CE6
:1002C0000646022F45F02005C4DBA069002803DAAA
:1002D000404245F00105A061E80701D025F0100576
:1002E000B6B1A6F14100192802D8203645F40065C0
:1002F0004A463146204625604D46FFF731FF58B14A
:10030000012806D0ED1D25F0070000F1080989E756
:1003100004E005F1040985E730468AE7206ABDE874
:10032000F08700000EB5054614460E4613A000F0F7
:100330000DFB284600F00AFB16A000F007FB304634
:1003400000F004FB15A000F001FB00218DF80B105C
:100350000A210DF10A008DF80A1008E094FBF1F271
:1003600001FB124294FBF1F4303200F8012D002C15
:10037000F4DC00F0EBFA00F0DEFA00002A2A2A2072
:10038000617373657274696F6E206661696C656410
:100390003A2000002C2066696C6520002C206C69D6
:1003A0006E65200010B5431C02E010F8011B71B10E
:1003B0008107FAD14FF0013202C88C1A8C4314EA3B
:1003C000C211F9D0C01A0A0603D0C01E10BDC01A4F
:1003D00010BD0A0401D0801E10BD0902FCD0401ED1
:1003E00010BD032A40F2308010F0030C00F015809D
:1003F00011F8013BBCF1020F624498BF11F801CB28
:1004000000F8013B38BF11F8013BA2F1040298BF8C
:1004100000F801CB38BF00F8013B11F0030300F0F6
:100420009F82083AC0F0088051F8043B083A51F81E
:1004300004CBA0E80810F5E7121D5CBF51F8043B9F
:1004400040F8043BAFF30080D20724BF11F8013B12
:1004500011F801CB48BF11F8012B24BF00F8013B74
:1004600000F801CB48BF00F8012B704702F0FF03F2
:1004700043EA032242EA024200F002B84FF00002CF
:1004800000B5134694469646203922BFA0E80C508A
:10049000A0E80C50B1F12001BFF4F7AF090728BF65
:1004A000A0E80C5048BF0CC05DF804EB890028BFE1
:1004B00040F8042B08BF704748BF20F8022B11F00A
:1004C000804F18BF00F8012B704770477047704786
:1004D0002DE9FF4F0C461E464FF0FF378BB0D2E997
:1004E0000001DDF860800A908A46C1F30A5505B91B
:1004F0003D46002108464FF00000BAF1000F00F41D
:10050000400005DA00EB80004FF4400101EA5000A2
:100510004FEA9059B9F1010F00DDB9460A9850EA47
:100520004A000ED044F61050A5F2FF3545432F1473
:10053000B8F1000F1ED07542291E1EDDC9F1000260
:100540001CE0B8F1010F4FF0000001D0302103E0B2
:10055000F24305E02154401CB042FBDB3046002250
:10056000002121540B99C1F80880C1E900200FB087
:10057000BDE8F08FBD1B6D1CDEE74A4600DA69421C
:1005800006A800F0B7FA06AB93E8070003AB83E8D0
:10059000070050460A9903F08DFE8DE80700A0F58C
:1005A00000501F3800900398002D0ADD42F21F0111
:1005B0004A460844002303A90390684604F0F6F86D
:1005C00009E0A0F500504A461F38002303A9039014
:1005D000684604F000F98DE807000004000C03D021
:1005E0004FF0FF30410800E01046B8F1000F03D093
:1005F0000022009215461EE0751E05D400F0F4F9A5
:10060000303262556D1EF9D5B3460122084302D03F
:1006100000227F1C04E02078302801D100227F1EB8
:10062000002A099784D01DE0112D07DA00F0DCF9CB
:10063000303262556D1C50EA0102F5D1084302D0F8
:100640000098C8B10EE00021681E05E0235C625CE2
:1006500063542254401E491C8142F7DBAB46A81B61
:10066000401E0990002004F80B000B98099AC0F86E
:100670000880C0E9002B7AE711264FF0000857E701
:100680002DE9F04F88460446D21D22F0070191B0B3
:10069000D1E90001CDE90A0104F0D4F902460B9832
:1006A000C00F01D02D2007E02068810701D52B2045
:1006B00002E0202101EAC000032A099001D0072AA4
:1006C00005DB03464146204600F0D4F90BE12078D3
:1006D000800601D5E06900E00620B8F1650F81468B
:1006E00006D0B8F1660F18D0B8F1670F70D131E0BD
:1006F0000020B9F1110F009001DB112301E009F195
:1007000001030AAA01A90CA8FFF7E2FEDDE90C70BB
:10071000002609F10105834647E001204B46009081
:100720004FF000470AAA01A90CA8FFF7D1FEDDE9A6
:100730000DB00C995D46002610B909F101000D18A5
:10074000B9EB050003D4C0F1FF3609F10105A5EBB3
:1007500009002BE0B9F1010F01DA4FF00109002087
:10076000B9F1110F0090484601DD112300E0034666
:100770000AAA01A90CA8FFF7ABFEDDE90C704D46F3
:1007800000268346207800070AD4AB4500DA5D4690
:1007900001A8012D04DD411911F8011C302907D0F1
:1007A0004F4502DA17F1040F04DA012082460FE008
:1007B0006D1EEEE7002F02DCED1B3E4403E0781CCB
:1007C000A84200DD7D1CB81B00F1010A4FF0004774
:1007D0002078000703D4AA4501DB4FF0FF3A00213F
:1007E000B7F1004F0DF143088DF8431024D00220DB
:1007F0002B23002F01DA7F422D230A21021EA0F1B4
:10080000010000DC5FB197FBF1FC97FBF1F201FB0B
:100810001C7C17460CF1300C08F801CDEEE7A8F16E
:10082000010003702188090501D5452100E06521FB
:10083000A0F1010800F8011C09980FA9A1EB080715
:10084000FF1D00B10120411901EBEA70A169384494
:10085000081A401EA0612078C00602D42046AFF3DB
:100860000080099828B1D4E901219047206A401CF2
:1008700020622078C00622D52046AFF300801EE01B
:10088000002E04DBB34502DD01A8805D00E03020CE
:10089000D4E901219047206A401C2062761CAAF10D
:1008A00001005FEA000A0AD100F09AF8C068016806
:1008B000405CD4E901219047206A401C2062281E38
:1008C000A5F10105DCDC07E0D4E9012118F8010BF2
:1008D0009047206A401C2062381EA7F10107F3DC14
:1008E0002046AFF30080032011B041E601694A1CA5
:1008F00002610878704700B58FB0CDE90131002161
:10090000059105497944CDE9031011466846FFF782
:1009100081FC0FB000BD0000E5FFFFFF0A6802F890
:10092000010B0A607047D1E900239A4202D2531C9E
:100930000B601070704710B5002000F04DF9FFF704
:100940001EFCBDE81040012000F044B810B504467C
:1009500002E0641C00F036F820780028F9D110BDC0
:1009600010B5203AC0F00B80B1E81850A0E818503C
:10097000B1E81850A0E81850203ABFF4F5AF5FEA8C
:10098000027C24BFB1E81850A0E8185044BF18C931
:1009900018C0BDE810405FEA827C24BF51F8043BD8
:1009A00040F8043B08BF7047D20728BF31F8023B2C
:1009B00048BF11F8012B28BF20F8023B48BF00F8C0
:1009C000012B704708B569468DF800000320ABBEC7
:1009D00008BD000001491820ABBEFEE7260002005A
:1009E00000487047C000002030B5B0F10A0271F134
:1009F00000034FEA900E4EEA817EB0EB0E0061EBF1
:100A000091014FEA101E4EEA017E10EB0E0041EB01
:100A100011114FEA102E4EEA016E10EB0E0041EB61
:100A200011214FEA104E4EEA014E10EB0E0041EB41
:100A30001141401841F100014FEAD00040EA4170F5
:100A40004FEAD1014FEA810444EA907410EB80052B
:100A500044EB01046D1944EB0404521BA3414FF015
:100A6000000348BF0A3200D530BD401C41F10001EF
:100A700030BD00002DE9F0411F4604460326016801
:100A8000072A01F4006004DB08B116A505E016A5ED
:100A900003E008B115A500E015A521F010002060C5
:100AA000A069C01EA0610FB1401EA0612046AFF337
:100AB00000804FB1D4E9012138469047206A401C9C
:100AC0002062C01C206206E0206AFAE7D4E9012116
:100AD00015F8010B9047761EF8D22046AFF3008040
:100AE000BDE8F0814E414E006E616E00494E4600F9
:100AF000696E66002DE9F047814616468AB0354892
:100B000078440DC88DE80D0032487844801C03AC51
:100B10000DC884E80D0041F69B300844372190FB56
:100B2000F1F290FBF1F5A5F1800501FB12041B3CED
:100B300002D56442012000E00020DFF898A0804642
:100B40000027FA44AAF1BE0A0EE0E0070AD03246B6
:100B5000684607EB470101230AEB810103F03BFEE6
:100B60008DE8070064107F1C002CEED1194F7F44E4
:100B7000AE3F19E0E80715D007EB04100DF1180A95
:100B800090E80E008AE80E00C068F04201D1981982
:100B900008903246012306A903A803F01CFE03AB0C
:100BA00083E807006D10641C002DE3D14FF00103B2
:100BB00032466946B8F1000F03A802D003F0F6FDF3
:100BC00001E003F008FEC9E90001C9F808200AB0F5
:100BD000BDE8F087844B000010B500F03DF8BDE89B
:100BE000104000F034B8000000487047A00000201A
:100BF00070477546FFF7F8FFAE4605006946534655
:100C000020F00700854618B020B5FFF7D7FABDE8F9
:100C100020404FF000064FF000074FF000084FF063
:100C2000000BAC46ACE8C009ACE8C009ACE8C009B0
:100C3000ACE8C00921F007018D46704710B50446A5
:100C4000AFF300802046BDE81040FFF7A3BA0028AC
:100C500001D0FFF7BFBE704710B5002102A000F021
:100C600053F8012010BD0000534947414252543A05
:100C70002041626E6F726D616C207465726D696E79
:100C80006174696F6E0000004FF0013C50F8042B56
:100C900051F8043B9A4221D1A2EB0C03934313EA8F
:100CA000CC1317D150F8042B51F8043B9A4215D1BC
:100CB000A2EB0C03934313EACC130BD150F8042B93
:100CC00051F8043B9A4209D1A2EB0C03934313EA77
:100CD000CC13DBD04FF00000704700BFD01A01BA30
:100CE000B1FA81F101F0180122FA01F0CB40DBB238
:100CF000C0B2C01AC1F120012CFA01F3D11A9143FC
:100D000011EAC311E6D1704770B505460C460A20BA
:100D100000E06D1CFFF756FE35B128780028F8D1A9
:100D200002E0641CFFF74EFE14B120780028F8D1D1
:100D3000BDE870400A20FFF745BE0000FEE7000056
:100D400070470000EFF3108072B640F2C060C2F24C
:100D5000000001680131016070470000EFF310806E
:100D600072B600BFFEE7000040F2C060C2F20000B1
:100D700001680139016018BF704762B67047000012
:100D8000014690F82100022813D10868D1E90FC369
:100D9000026822F00E020260026822F00102026084
:100DA000012000FA03F2CCF8042081F82100002091
:100DB00002E0042088630120002281F8202070478F
:100DC00080B590F82110022923D10268116821F022
:100DD0000E0111602F211368C4F202018A4240F211
:100DE0000401C4F2020123F00103136016DD302375
:100DF000C4F202039A421DD04423C4F202039A4271
:100E00001BD05823C4F202039A421BD14FF4803303
:100E100020E0042181630121084680BD0823C4F23B
:100E200002039A420CD01C23C4F202039A4209D155
:100E300010230FE04FF480730CE04FF4805309E06F
:100E4000012307E001F1680C4FF08073624508BF91
:100E50004FF480130B60012180F82110426B0021B8
:100E600080F820100AB190470021084680BD00009C
:100E7000B0B5044600F01AF9054640F21500C2F27A
:100E800000000078611C18BF044400BF00F00EF998
:100E9000401BA042FAD3B0BD2DE9F04F82B00E68DE
:100EA000002E00F0EC8041F20002C4F201020323A4
:100EB00040F2004E904208BF02234FF6FF7CC4F27E
:100EC000010E009300240123C1F2100C4FF0000B1F
:100ED0004FF0000948E040F60043C4F20103009DD2
:100EE000984208BF012504F00C030F279F402AEA0F
:100EF000070705FA03F33B4342F826304E6840F2F9
:100F00000C45F202DEF8082054BF22EA080242EA49
:100F10000802C4F20105CEF808202A68B30254BFC3
:100F200022EA080242EA08022A60B303DEF804203B
:100F300054BF22EA080242EA0802F303CEF8042072
:100F4000DEF800204FF0010354BF22EA080242EA13
:100F50000802CEF800200E680BF1010B36FA0BF2F6
:100F600004F1040400F08B8003FA0BFA16EA0A0875
:100F7000F1D04E68664511DC122E51D8DFE806F03C
:100F8000340A4246505050505050505050505050DB
:100F900050494D00D1F80C9042E000BF4FF6FF726F
:100FA000C1F2210296420FDC0022C1F211029642E8
:100FB0001AD00022C1F21202964215D00022C1F2CC
:100FC0002102964210D02BE00022C1F2220296426A
:100FD0000AD00022C1F23102964205D00022C1F2AD
:100FE000320296421CD100BF8A6842B1012A14BF66
:100FF000C0F814A0C0F810A04FF0080910E04FF09E
:1010000004090DE0CA6802F1080909E04FF000097F
:1010100006E0CA6802F1040902E0CA6802F10C099C
:1010200022460546B8F5807F24BF203A04352E6855
:101030000F279740BE4309FA02F232432A60CA7969
:10104000D2067FF588AF41F21803C4F202031A6892
:101050004FEA9B0642F001021A601A6840F600034C
:1010600002F001020192019AAEF57E7252F826A0BA
:10107000C4F2010398427FF42EAF002533E702B09B
:10108000BDE8F08F8068084018BF0120704700005D
:10109000C26802EA0103914341EA034101617047DA
:1010A000002A08BF090401617047000040F60C00E7
:1010B000C2F2000000687047F0B581B0B0B30446DA
:1010C00090F83D0028B9002084F83C00204600F04C
:1010D00055F9242084F83D002068016821F00101C1
:1010E0000160016841F400410160016821F40041A0
:1010F000016000F0BBFA48F28041C0F21E0140F6E8
:101100000012656888424FF00001C0F23D0248F2CB
:10111000A16C4FF0000338BF01219042C0F2010CD6
:1011200038BF0123654538BF0B4613B1012001B01C
:10113000F0BD4DF68361C4F21B31A0FB01122168A2
:101140004FEA924E4B684FF4967623F03F0343EA02
:1011500092434B6044F6D3530F6A0EFB06F6C1F27E
:101160006203A6FB033627F03F03B709654538BF86
:10117000970C7A1C1A430A62CA6948F2A0674CF6B7
:10118000FF73C0F20107BD4222EA030C0AD80138FE
:101190006A00B0FBF2F001306FF31F30042898BFF3
:1011A00004202BE0A368A0F1010E9BB11920684335
:1011B000BEFBF0F00422013062F31F30000512D0B4
:1011C0009BB119206843BEFBF0F00422013062F3AA
:1011D0001F3011E005EB4500BEFBF0F001306FF36E
:1011E0001F300005ECD1012008E005EB4500BEFBF7
:1011F000F0F001306FF31F3040F4004040EA0C0083
:10120000C8610868D4E9072320F0C00010431843E0
:101210000860886848F2FF3204F10C0790438CCFD5
:1012200018431043A6698860C86820F0FF0038435F
:101230003043C860086840F00100086000202021A9
:10124000206484F83D10206384F83E0001B0F0BDB6
:101250002DE9F04383B0994616460F460446FFF742
:1012600025FF94F83D1020290ED102210546C0F239
:101270001001204601221923009501F029F918B91F
:1012800094F83C00012803D1022003B0BDE8F083AC
:101290000121226884F83C101368DDE90B080A99E3
:1012A000DB0703D1136843F001031360136823F4D1
:1012B00000631360212284F83D20402284F83E2000
:1012C0000022226461626085608D3946208500209D
:1012D000CFF6FF70E062204632464B46CDF80080E4
:1012E000019501F05FF830B3012003B0BDE8F08351
:1012F000204641462A4601F081F928BB606A2168F0
:10130000034613F8012B0A61228D6362571E27855D
:10131000638D3F04A3F1010363854B6918BF13F08C
:10132000040308D0437802300B616062901E208570
:10133000608D01386085208D0028D9D12046414636
:101340002A4601F08FF840B1206C0428CCD12068E7
:10135000016841F400710160C6E72068016841F44A
:1013600000710160202084F83D00002084F83E00D8
:1013700084F83C0003B0BDE8F083000010B586B0EF
:1013800045F200410068C4F2000100228842CDE924
:1013900004220392029201D006B010BD41F218045B
:1013A000C4F20204206840F008002060206800F0C9
:1013B000080001900198C02002901220CDE903029C
:1013C0000320059001F5384002A9FFF765FD60682C
:1013D00040F400106060606800F400100190019813
:1013E00006B010BD40F2150040F60C01C2F200003C
:1013F000C2F2000100780A681044086070470000DB
:1014000080B542F20000C4F20200016841F0100110
:101410000160032000F066F80F2000F005F800F0EE
:101420002BF8002080BD0000B0B540F21502C2F2DA
:10143000000240F210011278C2F200014FF47A73F8
:101440000968B3FBF2F20446B1FBF2F1084600F082
:10145000E7FA0F2C4FF001050CD858B94FF0FF30C8
:1014600021460022002500F02DF840F21800C2F2BB
:10147000000004602846B0BD82B041F21800C4F2FA
:1014800002000168022241F001010160016801F0DF
:10149000010101910199416841F08051416040682A
:1014A00000F08050009000980420C4F20100016810
:1014B00062F31A61016002B07047000080B501F06C
:1014C0001BFE80BD70B514460D46064601F024FE95
:1014D0002946224601F030FB0146304601F024FE49
:1014E00070BD000080B501F031FE80BD2DE9F043F4
:1014F00081B0002800F0898042F20008C4F202089E
:101500000446D8F800000D4600F0070088420CD2CF
:10151000D8F8000020F007002843C8F80000D8F8E9
:10152000000000F00700A8426FD1206841F20409D2
:101530008107C4F2020917D5410705D5D9F8001073
:1015400041F4E061C9F80010010705D5D9F8001091
:1015500041F46051C9F80010D9F80010A26821F0D8
:10156000F0011143C9F80010C00745D1D8F80000B8
:1015700000F00700A8420CD9D8F8000020F00700BE
:101580002843C8F80000D8F8000000F00700A8427F
:101590003BD12068410707D5D9F80010E26821F453
:1015A000E0611143C9F80010000708D5D9F8000020
:1015B000216920F4605040EAC100C9F8000000F041
:1015C00079F8D9F8001045F2A062C1F30311C0F612
:1015D0000002515C40F2100220FA01F140F21800C2
:1015E000C2F200000068C2F200021160FFF71CFFA7
:1015F000002001B0BDE8F0836068022809D001280E
:1016000029D159F8041C890307D4012001B0BDE891
:10161000F08359F8041C8901F7D5D9F8001021F09E
:1016200003010843C9F80000FFF740FD064641F2F8
:10163000883700BFD9F80000616800F00C00B0EBFB
:10164000810F93D0FFF732FD801BB842F2D90320FF
:1016500001B0BDE8F08359F8041C8907D5D5DCE753
:1016600040F21000C2F200000068704780B5FFF73A
:10167000F7FF41F20401C4F20201096845F2B062C9
:10168000C1F30221C0F60002515CC84080BD0000D9
:1016900080B5FFF7E5FF41F20401C4F202010968D9
:1016A00045F2B062C1F3C221C0F60002515CC840ED
:1016B00080BD000041F2040CC4F2020CDCF80030E2
:1016C00003F00C00082841F20020C0F27A0018BF95
:1016D0007047C3F383420AA18A5CD90305D440F65C
:1016E0000010C0F23D0050437047DCF8001008A322
:1016F000C1F34041595C5043B0FBF1F0704700BF6B
:1017000002030405060708090A0B0C0D0E0F101042
:10171000010200002DE9F04182B0002800F0C480F1
:101720000446007841F20006C007C4F2020643D026
:10173000706800F00C00042817D0706800F00C00EE
:10174000082802D17068C0030FD465682DB1B5F5C3
:10175000A02F10D0B5F5803F11D0306820F4803034
:101760003060306820F480200CE03068800323D59E
:10177000606808BB98E0306840F4802030603068D2
:1017800040F480303060FFF791FC002D054610D00A
:101790003068800310D4FFF789FC401B6428F7D918
:1017A00004E100BFFFF782FC401B64284FF00300F8
:1017B00077D830688003F5D42078800718D5706812
:1017C00010F00C0F07D0706800F00C00082826D12C
:1017D0007068C00323D43068800702D520690128CF
:1017E00062D13068616920F0F80040EAC1003060E1
:1017F000207800073DD5A06938B30020C4F242200C
:101800000121C0F88014FFF751FC0546706A80077B
:101810002DD4FFF74BFC401B0228F7D9C6E0206906
:10182000002840F20000C4F2422000F0968001211E
:101830000160FFF73BFC054630688007D1D4FFF715
:1018400035FC401B0228F7D9B0E00020C4F242204A
:101850000021C0F88014FFF729FC0546706A800754
:1018600007D5FFF723FC401B0228F7D99EE001F0C3
:1018700017FA207840071BD4E5698DB1706800F035
:101880000C00082847D1012D0ED07068216A00F4A1
:1018900080328A4208D1616A00F47010884203D114
:1018A000002002B0BDE8F081012002B0BDE8F08167
:1018B000F06910F0805808D1F06940F08050F06174
:1018C000F06900F080500190019847F20007C4F2DF
:1018D00000073868C00510D4386840F4807038605C
:1018E000FFF7E4FB054600BF3868C00505D4FFF7E5
:1018F000DDFB401B6428F7D958E0E5681DB1052DD4
:101900003CD0012D3ED0306A20F001003062306AB8
:1019100020F0040039E00027C4F242270020386696
:10192000FFF7C4FB022D05460CD100BF30688001D3
:1019300054D5FFF7BBFB401B02284FF00300F5D93D
:10194000AFE700BF30688001AAD5FFF7AFFB401BAF
:1019500002284FF00300F5D9A3E700210160FFF74B
:10196000A5FB0546306880077FF542AFFFF79EFB79
:10197000401B02284FF00300F4D992E7306A40F090
:1019800004003062306A40F001003062FFF78EFBE5
:10199000002D054641F2883714D000BF306A800719
:1019A00013D4FFF783FB401BB842F7D9032002B0E2
:1019B000BDE8F081FFF77AFB401BB8424FF003000F
:1019C0003FF66FAF306A8007F4D4B8F1000F7FF4B0
:1019D00053AFF06920F08050F0614DE7206AB0F518
:1019E000803F05D17168A26821F400311143716014
:1019F0007168626A21F47411104308437060012019
:101A00003866FFF753FB0446306880013FF548AF66
:101A1000FFF74CFB001B02284FF00300F4D940E70E
:101A200080B501F055F980BD704700007047000097
:101A300010B590F83C20012A4FF0020228D0012373
:101A400080F83C3080F83D200268D2F804E0D2F8FB
:101A500008C00C682EF070032343B2F1804F53602E
:101A60000BD042F60043C4F201039A4205D040F283
:101A70000043C4F200039A4204D149682CF0800369
:101A8000194391600121002280F83D1080F83C202C
:101A9000104610BD002804BF0120704710B5044651
:101AA00090F83D0028B9002084F83C00204600F062
:101AB0001FF8022084F83D002068211D01F05EF926
:101AC000012084F8460084F83E0084F83F0084F842
:101AD000400084F8410084F8420084F8430084F810
:101AE000440084F8450084F83D00002010BD00004B
:101AF00080B582B0006840F20041C4F20001884223
:101B000001D002B080BD41F21C00C4F202000168A5
:101B1000002241F0020101600068002100F0020093
:101B2000019001981D20FFF7CDFC1D20FFF7C6FC9A
:101B300002B080BD90F83D1001291CBF0120704704
:101B4000022180F83D100068C168B0F1804F41F07B
:101B50000101C1600BD042F60041C4F2010188428C
:101B600005D040F20041C4F20001884206D18168EC
:101B700001F00701062904BF00207047016841F009
:101B800001010160002070470146006841F2111315
:101B9000C26822F00102C260026A1A4208D1026AD7
:101BA00040F244431A4203D1026822F0010202606B
:101BB0000122002081F83D207047000010B5044646
:101BC00090F83C0001284FF0020008BF10BD012230
:101BD00084F83C2084F83D0020684FF677738268D3
:101BE0009A4382600A684F2A0FDC1F2A22DD202ACE
:101BF00023D0302A21D0402A4DD14B68CA681946DB
:101C000001F00AF9206840213BE06F2A17DDB2F5A8
:101C1000005F20D0B2F5805F2AD0702A3BD1D1E995
:101C2000012CCB68614601F0E3F82068816841F03F
:101C300077011AE00AB1102A2DD1114621E0502A6D
:101C400018D0602A27D14B68CA68194601F0F6F807
:101C50002068602115E0D1E9012CCB68614601F0D4
:101C6000C7F82068816841F48041816000200BE062
:101C7000002009E04B68CA68194601F0CDF82068D9
:101C8000502101F0C1F80020012184F83D1000210D
:101C900084F83C1010BD0120F6E7000070470000FA
:101CA00010B5044600680169890744BFC1685FEA4E
:101CB000817138D420680169490744BFC1685FEA6F
:101CC00041713CD420680169090744BFC1685FEADB
:101CD000017141D420680169C90644BFC1685FEA47
:101CE000C16145D420680169C9071CBFC1685FEAAA
:101CF000C1714AD120680169090644BFC1685FEA21
:101D0000016149D420680169490644BFC1685FEA9E
:101D1000416148D420680169890644BFC1685FEA0F
:101D2000816147D410BD6FF002010161012121776B
:101D30008069800745D02046FFF7B0FF47E06FF08D
:101D40000401016102212177806910F4407F41D0B4
:101D50002046FFF7A3FF43E06FF008010161042173
:101D60002177C06980073ED02046FFF797FF40E00B
:101D70006FF01001016108212177C06910F4407FE4
:101D80003AD02046FFF78AFF3CE06FF00101016185
:101D9000204600F03FF8ADE76FF08001016120467A
:101DA000FFF742FEAEE76FF040010161204600F010
:101DB0004FF8AFE76FF0200101612046FFF736FED4
:101DC00010BD204600F022F8204600F021F8002047
:101DD00020776FE7204600F019F8204600F018F849
:101DE000002020776EE7204600F010F8204600F033
:101DF0000FF8002020776DE7204600F007F8204616
:101E000000F006F8002020776CE700007047000023
:101E10007047000080B540F2C461C2F20001096859
:101E200000680968884218BF80BD40F2DE60C2F2D7
:101E30000000018840F2E062C2F200020131128823
:101E40008BB29342018008BF01F050FE80BD0000BC
:101E500070470000704700007047000010B504464E
:101E6000206850E8030F216820F4907041E80302D5
:101E7000002AF5D1206850E8050F216820F0010004
:101E800041E80502002AF5D1206B01280AD100BFE4
:101E9000206850E8030F216820F0100041E8030299
:101EA000002AF5D12068406940060BD4002020218B
:101EB000E08584F8421020632046FFF7CDFF002024
:101EC00010BD00BF206850E8050F216820F04000D9
:101ED00041E80502002AF5D1E06B68B142F6716174
:101EE000C0F600014163FEF76BFF0028E7D0E06B0E
:101EF000416B8847002010BD00202021E08584F838
:101F0000421020632046FFF7A7FF002010BD00000D
:101F10007047000010B50446206850E8030F2168A0
:101F200020F0C00041E80302002AF5D12068406992
:101F3000000609D40020E084202084F841002046D7
:101F4000FFF7E6FF002010BD206850E8050F21686C
:101F500020F0800041E80502002AF5D1A06B68B1AD
:101F600042F68961C0F600014163FEF729FF0028AF
:101F7000E8D0A06B416B8847002010BD0020E084B2
:101F8000202084F841002046FFF7C2FF002010BD4A
:101F900070470000B0B582B0036804461868D9687D
:101FA0005A6900F02F05202D01F0200505D125B13B
:101FB000204600F0A7FF02B0B0BD5FEA007C1EBF64
:101FC00002F0010E01F4907212EB0E024AD1226B64
:101FD0000840C1063DD5012A3BD100200190186878
:101FE00001905868019001985869400642D4A08D2C
:101FF000E18DE28D002A1CBF401A5FEA004101D149
:1020000002B0B0BD216851E8031F226821F490712D
:1020100042E80313002BF5D1216851E8051F22681F
:1020200021F0010142E80513002BF5D1202184F8AD
:1020300042100021216300BF216851E8031F22687C
:1020400021F0100142E80313002BF5D10221616356
:1020500054E0010658D44006D2D5204600F046FF91
:1020600002B0B0BDC20718BF11F4807251D142074F
:1020700055D45BE0E06B016849688AB2002ABFD0A2
:10208000A38D9A42BCD2E1858069202831D000BF5F
:10209000206850E8030F216820F4807041E80302B3
:1020A000002AF5D1206850E8050F216820F00100D2
:1020B00041E80502002AF5D1206850E8050F2168A3
:1020C00020F0400041E80502002AF5D1202084F8E4
:1020D00042000020206300BF206850E8030F216801
:1020E00020F0100041E80302002AF5D1E06BFEF772
:1020F00047FE02206063A08DE18D401A81B2204628
:10210000FFF7A8FE02B0B0BD204600F0C1FF02B04C
:10211000B0BD626C42F001026264420706D5BEF1B6
:10212000000F03D0626C42F002026264820706D59F
:10213000BEF1000F03D0626C42F004026264BCF195
:10214000000F06D55EEA050203D0626C42F0080279
:102150006264626C002A3FF453AF0840800602D5E7
:10216000204600F0CFFE20684069616C00F040001E
:1021700001F00801401827D0204600F08FFE2068AB
:10218000406940061BD500BF206850E8050F216854
:1021900020F0400041E80502002AF5D1E06B70B163
:1021A00042F66161C0F600014163FEF709FE0028B6
:1021B0003FF426AFE06B416B884702B0B0BD2046CC
:1021C000FFF7E6FE02B0B0BD2046FFF7E1FE0020BB
:1021D000606402B0B0BD0000002804BF0120704759
:1021E00010B5044690F8410028B9002084F840005A
:1021F000204600F021F8242084F841002068C168BE
:1022000021F40051C160204600F0E0FE2068016921
:1022100021F490410161416921F02A014161C168C5
:1022200041F40051C16000202021606484F8411015
:1022300084F84210606310BD70B586B040F60004AB
:10224000C4F201040068A4F54441002688420596C2
:10225000CDE90366029601D006B070BD41F21800C8
:10226000C4F20200416802AD41F4003141604168AE
:1022700001F4003101910199016841F0040101600C
:102280000068294600F004000190019804200290A3
:1022900002200390032005902046FEF7FDFD082054
:1022A000CDE90206204629460496FEF7F5FD2620D4
:1022B00000210022FFF706F92620FFF7FFF826206D
:1022C00000210022FFF7FEF82620FFF7F7F806B0FE
:1022D00070BD000010B590F84230202B1CBF0220CA
:1022E00010BD00294FF0010418BF002A01D120467B
:1022F00010BD0024046300F0B1FE204610BD0000B4
:1023000080B540F2C861C2F200010968006809683E
:10231000884208BF01F0F2FB80BD0000034690F840
:10232000410020281CBF0220704700294FF0010007
:1023300018BF002A00D170471962002021219A8419
:10234000DA84586483F841101968CA6842F0800240
:10235000CA60704780B540F2C861C2F200010968E6
:1023600000680968884208BF01F0D0FB80BD00000A
:10237000FEE700000268516949054FF000010FD5E2
:102380006FF4806353612022016380F83D2080F860
:102390003E10026C42F00402026480F83C100121FD
:1023A000084670472DE9F04383B0044600680D46A7
:1023B00001680A9F0B9E41F4807199469046016026
:1023C00020464FF0011100223B46009600F080F8B5
:1023D00050B120680068C00544BF4FF4007020640D
:1023E000032003B0BDE8F083206805F0FE01016121
:1023F0000221C0F2010120463A46334600F0B2F80D
:1024000018B1012003B0BDE8F083002002902068DD
:10241000324641690291806939460290029820460D
:1024200000F0ECF840B1206C0428EAD12068016883
:1024300041F400710160E4E7B9F1010F0AD02068AE
:102440004FEA1821016120463946324600F0D6F89D
:102450000028E8D120685FFA88F10161002003B00C
:10246000BDE8F083F0B581B00446006840694007DC
:102470001AD415460E464F1C08E000BF206840697C
:10248000400714D52068406940070DD42046FFF767
:1024900071FFC8B9002FF5D0FEF708FE002EEDD071
:1024A000401BB042EED9E9E7002001B0F0BD0020AA
:1024B0002021206384F83D1084F83E00216C41F017
:1024C0002001216484F83C00012001B0F0BD00002F
:1024D0002DE9F047DDF8208099461646044601F4C0
:1024E0007F078DB203F1010A0EE000BF2068B7F547
:1024F000803F14BF1830143000682840401BB0FAE9
:1025000080F04009B0421DD02068B7F5803F14BF6D
:102510001830143000682840401BB0FA80F04009A1
:10252000B0420CD1BAF1000FEED0FEF7BFFDB9F109
:10253000000FDBD0A0EB08004845E5D9D6E7002026
:10254000BDE8F08700202021206384F83D1084F846
:102550003E00216C41F02001216484F83C00012000
:10256000BDE8F0872DE9F0410446006898464369CC
:102570008FB203EA0701B94202D10020BDE8F08121
:102580004169490517D41646551C00BF5DB1FEF7D9
:102590008DFD1EB1A0EB0800B04204D9206840694F
:1025A0003840B8421ED1206841693940B942E4D070
:1025B00041694905EAD5016841F4007101606FF491
:1025C0008061416100202021206384F83D1084F85F
:1025D0003E00216C41F00401216484F83C0001209C
:1025E000BDE8F08100202021206384F83D1084F8AC
:1025F0003E00216C41F02001EEE70000F0B581B013
:1026000004460068406900061AD415460E464F1C61
:1026100008E000BF20684069000614D520684069C2
:1026200000060DD42046FFF7A5FEC8B9002FF5D04F
:10263000FEF73CFD002EEDD0401BB042EED9E9E79D
:10264000002001B0F0BD00202021206384F83D105F
:1026500084F83E00216C41F02001216484F83C00A4
:10266000012001B0F0BD000040F2C461C2F20001DF
:102670000860704740F2C861C2F20001086070470C
:102680002DE9F04786B0002741F21800CDE9047724
:10269000CDE90277C4F20200016840F6000941F07A
:1026A000200101600168C4F2010901F020010191DB
:1026B00001990168002241F00401016001681025C0
:1026C00001F0040101910199016841F008010160E4
:1026D0000068102100F00800019001984846FEF7BC
:1026E000DFFC09F5806420464FF4007100224FF4AE
:1026F0000078FEF7D5FC02AE029501254FF0020AE4
:1027000048463146CDE90357CDF814A0FEF7C4FB87
:102710004FF40040CDE90207484631460495FEF7E4
:10272000BBFB3820CDE90207204631460495FEF771
:10273000B3FB20463146CDE90285CDE9047AFEF7A8
:10274000ABFB06B0BDE8F08780B540F2DC5045F247
:102750000041C2F20000C4F2000148F2A06200236E
:102760004FF4804CC0F2010280E80E00C0E9033C47
:10277000C0E90533C0E90733FEF79EFC002818BF07
:10278000FEF7ECFA80BD000080B586B040F2306004
:1027900040F200420021C2F20000C4F200024723CE
:1027A0004FF0320CCDE90411CDE90211CDE9001151
:1027B000C0E90023C0E9021C01618161FFF76AF9E9
:1027C000002818BFFEF7CAFA4FF48050029040F27A
:1027D0003060C2F2000002A9FFF7F0F9002818BF2C
:1027E000FEF7BCFA0020CDE9000040F23060C2F2F2
:1027F00000006946FFF71CF9002818BFFEF7AEFA83
:1028000006B080BD80B540F2786044F20041C2F26B
:102810000000C4F2000100234FF00C0C4FF41652DC
:1028200080E80E00C0E90333C0E905C3C361FFF7C8
:10283000D3FC002818BFFEF791FA80BDFEE7000028
:102840002DE9F04F81B040F600448146C4F2010406
:10285000FEF72CFC804648460021002700F0E4F8F3
:102860004FF0000A0026002505E000BF00200127E8
:10287000002800F0D480002F40F0D180FEF716FC35
:102880008346A0EB080040F6B8318842EED82046D7
:102890001021FEF7F7FB00284AD15FFA8AF5032DD5
:1028A0003ED8DFE805F0020E1A2A484602F018FB6F
:1028B0004AF6FC1246F24D23CDF2F122C3F65073D4
:1028C00016E0484602F00CFB41F27B4247F6E1235A
:1028D000C4F2AE72C3F684730AE0484602F000FB0D
:1028E00049F69A1249F69913C9F69912C3F6B973C3
:1028F00002F00CF902F0D8F804E048464FF07E519F
:1029000002F01AFB0021C4F22011814602F099FB6B
:1029100030B900214846CCF2201102F00DFB81466F
:102920004846294600F080F800F020FC0025D846F3
:10293000A4F580604FF40041FEF7A4FB002849D1C4
:102940005FFA8AF5032D3DD8DFE805F0020E1A2A5A
:10295000484602F0C5FA4AF6FC1246F24D23CDF283
:10296000F122CBF6507316E0484602F0B9FA41F274
:102970007B4247F6E123C4F2AE72CBF684730AE0E1
:10298000484602F0ADFA49F69A1249F69913C9F68B
:102990009912CBF6B97302F0B9F802F085F805E0A8
:1029A00000214846CBF6807102F0C6FA002181462C
:1029B00002F039FB30B900214846C4F2201102F080
:1029C000BBFA81464846294600F02EF800F0CEFBBF
:1029D0000025D84620460821FEF754FB70B1CEB141
:1029E000C5B90AF1010000F0030A4846514600F05B
:1029F0001BF800F0BBFB0026D8460BE046B1ABEB62
:102A00000600B0F57A7F05D90020012701252FE7C0
:102A10005E4600BF3220FEF72BFA012028E7484629
:102A200001B0BDE8F08F0000F0B587B0054600208A
:102A30000C46002701F0E8F8284602F051FA47F268
:102A400001420DF112050B460090C0F60002284627
:102A50000A210193FDF7C4FB2846FDF7A3FC0646B7
:102A600046F26B70C4F62F4003908020A0EB061056
:102A70008DF810704710F8B2132101F07BF940F285
:102A80000000C2F20000D0E900122846012301F044
:102A900011FA07EB06100530C0B2232101F06AF9E4
:102AA00040F20800C2F20000D0E9001203A801239E
:102AB00001F000FA032C06D8DFE804F00206090C46
:102AC00007F1430407E006E007F1330403E007F1F0
:102AD000230400E0FC1C2046092100F081FB204675
:102AE000322100F059FB40F2DC50C2F2000001F04C
:102AF0004DF907B0F0BD0000B0B582B0054640F218
:102B00003060C2F200000C46FFF7AEFD40F2786084
:102B1000C2F20000FFF7AEFD4FF0000C0020294686
:102B200000222346CDF800C000F07CFD00F078FBC9
:102B300002B0B0BDFEE7000000F0070080F0070320
:102B4000042B28BF04234FF0FF3C03380CFA03F397
:102B500038BF0020994381400CFA00F022EA0000BF
:102B6000084370472DE9F0418AB0054600208846A9
:102B700001F04AF8284602F0B3F90DF11E060B46A3
:102B8000009044A230460A210193FDF729FB30460C
:102B9000FDF708FC074646F65470C0F26E0006AD1D
:102BA00006902846FDF7FEFBA0EBC000A0EB071047
:102BB0007B3000EBD0704410E0B20B2101F0DAF86A
:102BC00040F20000C2F20000D0E9001230460123BA
:102BD000012601F06FF904EB07100530C0B21B218C
:102BE00001F0C8F840F20807C2F20007D7E9001266
:102BF0002846012301F05EF9002030218022302395
:102C0000009600F08BFF404602F06AF947F201425D
:102C10000DF10E050B460090C0F6000228460A2171
:102C20000193FDF7DDFA42F64C70C0F273000DF12E
:102C3000080802904046FDF7B5FB06462846FDF71A
:102C4000B1FBC0EBC004A6EBC600001B7B3000EB61
:102C5000D0767010C0B2332101F08CF8D7E90012A1
:102C60002846012301F026F904EB66000530C0B2C6
:102C7000332101F07FF8D7E900124046012301F02B
:102C800019F940F2DC50C2F2000001F07FF80AB0FE
:102C9000BDE8F081252E316600000000704700007D
:102CA00081B040F21000C2F20000006844F6D35137
:102CB000C1F26201A0FB0101480A009000BF009828
:102CC000411E00280091F9D101B070477047000003
:102CD000B0B501380024B4EB106F1CBF0120B0BDAB
:102CE0004EF21005CEF2000568604FF0FF300F2164
:102CF00000F01AFA0720AC6028602046B0BD000042
:102D000080B5FEF76FFB80BD70B590B006AC204675
:102D10002821FDF7B3FB012006900A904FF4E01044
:102D200000254FF4803102260F9020460595CDE90D
:102D30000355CDE90155CDE90715CDE90D61FEF744
:102D4000E9FC78B90F20CDE901064FF48060CDE9A8
:102D5000040501A802210395FEF7C8FB002804BF63
:102D600010B070BDFDF7FAFF7047000080B540F26B
:102D70003060C2F20000FEF793FF80BD10B503681B
:102D800042F6004CB0F1804FC4F2010C18BF604510
:102D900004D14A6823F07003134305E040F2004277
:102DA000C4F200029042F4D0B0F1804F18BF6045E9
:102DB00004D1CA6823F44073134305E040F2004293
:102DC000C4F200029042F4D023F080024B69D1F8A3
:102DD00000E08C681A4360450260C462C0F828E0D5
:102DE00002D10969CCF830100121416110BD000009
:102DF000D0F808C011432CF47F4C41EA032141EA8A
:102E00000C01816070470000826822F0700211435B
:102E100041F0070181607047D0F820C0036A23F0B9
:102E200001030362836923F0F00343EA02122CF0EA
:102E30000A0319438261016270470000D0F820C084
:102E4000036A23F010030362836923F4704343EAA7
:102E500002322CF0A00343EA011182610162704743
:102E600080B5406A0021C185C184FFF791F880BD1B
:102E700080B5406A00212022C18580F8422001638C
:102E8000FEF7EAFF80BD000080B5406A0021C184E2
:102E9000202180F84110FFF73BF880BD016851E820
:102EA000031F026821F4907142E80313002BF5D14F
:102EB000016851E8051F026821F0010142E805138D
:102EC000002BF5D1016B01290AD100BF016851E83F
:102ED000031F026821F0100142E80313002BF5D113
:102EE000202180F8421000210163704780B50168FD
:102EF000CA6822F04002CA60202180F84110FFF722
:102F000029FA80BD80B582B090F8421022291ED1E6
:102F10008268B2F5805F02D1016900294AD0816AD6
:102F2000B2F5805F07D00AB9026922B1026852681F
:102F300002F07F0201E0026852680A700121826A91
:102F400011448162C18D01390A04C18501D002B0EA
:102F500080BD0168CA6822F02002CA60CA6822F4F3
:102F60008072CA604A6922F001024A61202180F819
:102F7000421000214163026B012A23D1016300BF8B
:102F8000016851E8031F026821F0100142E80313B1
:102F9000002BF5D101680A68D20606D500220192FD
:102FA0000A680192496801910199818DFEF752FFEB
:102FB00002B080BD0168826A49686FF35F211180A9
:102FC0000221BCE7FFF79CF902B080BD10B50446B2
:102FD0000068D4E902C22369016921F44051114318
:102FE0000161616943EA0C021143C26841F20C635A
:102FF0009A431143C1604169A26921F440711143B0
:1030000043F60002C4F201029042416102D0FEF791
:103010002DFB01E0FEF73CFB62681921484391005B
:10302000B0FBF1F048F21F51C5F2EB11A0FB0123F8
:103030005A096FF0630302FB0300322303EB001015
:10304000A0FB0101F02303EA5113206803EB0212F5
:10305000C1F343111144816010BD00008162002161
:103060008285C2854164222180F84210016921B124
:103070000168CA6842F48072CA600168486940F019
:1030800001004861C86840F020020020CA60704713
:1030900090F84110212923D18168B1F5805F01D1D9
:1030A000016931B1016A02684B1C03620978516001
:1030B00007E0016A036831F8022B6FF35F225A6060
:1030C0000162C18C01390A04C18418BF70470068CD
:1030D000C16821F08001C160C16841F04001C16058
:1030E0007047000080B540F27860C2F20000FEF741
:1030F00051FF80BDFEE70000002848BF704700F088
:103100001F01012202FA01F14EF200124009CEF233
:10311000000242F8201070474EF60C50CEF200002C
:103120000068C0F3022070474EF6145300F00F02FF
:10313000CEF2000309011A4400F16043B0F1FF3FF1
:10314000C8BF03F564421170704700004EF60C5181
:10315000CEF200010A684FF6FF031A4060F30A221C
:1031600042F0806040F0FD700860704710B540F696
:103170000044C4F2010420464FF400710122FDF71F
:103180008FFF4620FDF774FE20464FF400710022A9
:10319000FDF786FF10BD00002DE9F04381B0044625
:1031A00001F105084FF000090A2700BF6FEA090086
:1031B00008EB0005002600BFA019C0B2E9B2012249
:1031C00000F0F6FC0136B742F6D109F10109023FE1
:1031D000B9F1050F04F10104E8D101B0BDE8F083B5
:1031E0002DE9F04381B0884605464FF000090A27D3
:1031F00009EB0804002600BFA819C0B2E1B2012201
:1032000000F0D6FC0136B742F6D109F10109023FC0
:10321000B9F1050F05F10105EAD101B0BDE8F08370
:1032200010B540F21404C2F20004207801281CBF3B
:10323000062010BD00F07AFB0020207010BD0000B9
:1032400070B50C46098805292CD1C278017940F265
:10325000CE7541EA0222531E9BB2AB4222D84FF0F8
:10326000010E0023B0F80150238080F800E023888D
:1032700092B22EBA0133D5082380490718BF0EEB4E
:10328000D205457000F1020C20880EEB164101308A
:10329000208089B26046002300F05AFB20B100F084
:1032A00017FC70BD032070BD2088E9B2084420805F
:1032B000002070BDB0B50C46098805292BD1C27815
:1032C000017940F2CE7541EA0222531E9BB2AB4215
:1032D00021D8B0F8015092B22BBA002525800225E2
:1032E000057025884FF0010E01352580D508490766
:1032F00018BF0EEBD205457000F1020C20880EEBD2
:1033000013410130208089B2604600F023FB20B1D8
:1033100000F0DEFBB0BD0320B0BD2088E9B2084458
:1033200020800020B0BD0000B0B50C4609880529FA
:103330001CBF0320B0BD02790146501E7C284FF00F
:10334000030088BFB0BDB1F801504FF0010E2BBA99
:1033500000252580087020885500013020804D70A0
:10336000208801F1020C0EEB13410130208089B25C
:103370006046002300F0F0FA10B100F0A9FBB0BDE8
:103380002088284420800020B0BD0000B0B50C4645
:103390000988052924D1B0F803104FF0FF3209BA8B
:1033A00002EB114292B27B2A1AD80025B0F8013004
:1033B00025800425057025880A0C19BA012303EB22
:1033C00011416B1C55002380457023880230013366
:1033D00089B2238000F00CFB20B100F079FBB0BD76
:1033E0000320B0BD2088284420800020B0BD00000C
:1033F0002DE9F0410C4609880A293CBF0020BDE8B0
:10340000F0810546B0F803004FF0FF3106BA01EB3A
:10341000164080B27C284FF0030088BFBDE8F081E1
:10342000B5F8072012BA01EB124189B2782930D8D9
:10343000687A120CB0EB420F1CBF0320BDE8F0818C
:10344000B5F805004FF0010800BA08EB1041B5F8D7
:10345000017005F10A0089B2012300F07DFAA8B9D4
:1034600038BA08EB104100202080172028702088EF
:10347000320C0130560020806E702388A81C013366
:10348000238089B2002300F067FA20B140B100F038
:103490001FFBBDE8F0812188314421800028F6D14E
:1034A0000020BDE8F0810000B0B50C4640F60401F4
:1034B000C2F200010D8840F2E4610130C2F2000165
:1034C0002A46FCF78EFF691C00202180B0BD000059
:1034D00010B582B00988052903D1017929B10324E7
:1034E00000E00324204602B010BDC178B0F801000E
:1034F000FF2900D0C9B9FF3900BA0122B1FA81F120
:1035000002EB1040490900248DF8061081B20DF13C
:103510000600012201238DF8074000F019FA002867
:10352000E0D000F0D5FA0446DCE70324DAE7000037
:1035300080B5098805291CBF032080BDB0F80110A3
:10354000012209BA02EB1141033089B201220123A1
:1035500000F002FA00280CBF002000F0B9FA80BD8C
:10356000B0B50D460988062926D3C17804794FF0F5
:10357000010C44EA01218AB2013989B2D3086407F7
:103580004FEA111118BF0CEBD2037A294FF0030157
:1035900018D84479DBB29C4214D1B0F80110012351
:1035A00009BA03EB1141063089B2012300F0D0F9CA
:1035B00028B100F08DFAB0BD03210846B0BD05204A
:1035C000002128800846B0BD10B50C4609880629A0
:1035D0003CBF032010BD02790146407902F07F0311
:1035E000B0EB430F4FF003001AD1CB7842EA03222D
:1035F000531E9BB2772B88BF10BDB1F80100012389
:1036000000BA03EB1043881D99B292B2012300F077
:10361000A3F910B100F05CFA10BD05202080002055
:1036200010BD000010B5A1F1F804082C4FF0020401
:1036300001D2204610BD0029FBD040F2E364C2F263
:103640000004217018B10224002CF2D125E040F2D0
:10365000D06044F2CD04C2F20000C0F60004046061
:1036600040F2D46044F2F114C2F20000C0F600044B
:10367000DDF808C0046040F2D86044F28514C2F25C
:103680000000C0F600040460084611461A4663466E
:1036900000F098F80446002CCBD100F0D3FC38B1F0
:1036A00040F21400C2F2000001210170204610BD5A
:1036B0000324204610BD0000F0B581B040F2140094
:1036C000C2F20000007810B1062001B0F0BD0DF18B
:1036D000030000F0A3FC012871D19DF8030002282B
:1036E0001FD001286BD140F2D454C2F2000440F242
:1036F000D05140F2D652C2F20001C2F2000220467E
:1037000000F086F800285AD1207830B140F2E36109
:10371000C2F200010978884251D1022000F09AFCDF
:103720004DE040F2D054C2F20004206840F2CD5681
:10373000017840F2CE57C2F20006012240F21C038B
:10374000C2F2000732700022C2F20003397000BFDB
:1037500013F8325075B18D4203D00132102AF7D1DF
:1037600008E003EBC2014A6840F2D651C2F2000100
:103770009047307040F2D450C2F200000078F0B1AF
:10378000307878B1397840F2D6522368C2F200021C
:1037900041F08001012717801970118823684F1CA0
:1037A0001780585440F2E36040F2D652C2F2000053
:1037B000C2F2000200782168128800F073F800203D
:1037C00001B0F0BD70B51D4614460E46FDF7BAFABD
:1037D0003046214608222B4600F05CFC012804D12B
:1037E000B4F5964F03D9232008E003240CE047F6F4
:1037F000A0716000C0F21701B1FBF0F080B200F0E0
:103800005DFC441E18BF0324FDF7AEFAE0B270BDA4
:103810002DE9F041154688460646FDF793FA40F635
:103820000604C2F200042088B0F5807F1DD22088F3
:1038300004280AD340F204772188C2F200073846F0
:1038400000F08EFB18B105240AE0052408E017F803
:10385000010B30702088002403382880C8F80070DD
:10386000FDF782FA2046BDE8F08147F2E33103A07C
:10387000C0F600019B22FCF755FD00BF7573526333
:1038800076427566666572506F73203C204D425FCC
:103890005345525F5044555F53495A455F4D415817
:1038A000000000002DE9F04114460D460646FDF7E4
:1038B00049FA40F2D950C2F20000007801282ED116
:1038C00040F2CC6140F60807681EC2F20001C2F265
:1038D00000074FF001080860A7F8008005F8016CA8
:1038E000398821443980398800F03AFB398800242E
:1038F0004A1C3A8040F20472C2F2000250543988E5
:10390000000A4B1C3B80505440F2DA50C2F20000D7
:1039100080F800800020012100F046FB00E0052433
:10392000FDF722FA2046BDE8F081000080B5FDF7E2
:1039300009FA40F2D950C2F20000002101700120C2
:10394000002100F031FB00F059FBFDF70DFA80BDBE
:10395000012070470120704780B502EB010CBCF1DB
:103960005A0F84BF012080BD40F2B41CC2F2000C8B
:10397000BCF800C0012B16D0C3BBAAB340F20013A1
:10398000A1EB0C01C2F2000303EB41010239023842
:10399000CB78013A00F8023F11F802CF130480F807
:1039A00001C0F5D120E040F2CC5EC2F2000E01234E
:1039B0008EF80030C2B140F20013A1EB0C01C2F24C
:1039C000000303EB41010239023800BF10F802CFB7
:1039D000013A4FEA0C2321F8023F437843EA0C2CCA
:1039E0001304A1F800C0F1D1002080BD022080BDE9
:1039F00005291BD353180D2B18D8002A04BF00200B
:103A0000704747F27033C0F6000303EB41010C39F5
:103A1000023800BF31F8023F013A1BBA4FEA134C9B
:103A2000130420F802CFF5D1002070470120704721
:103A3000FDF7E6FCFFF768F9FEF722FE40F60044CA
:103A4000C4F2010420464FF40071FDF721FB4FF44E
:103A50007A70FDF70DFA20464FF40071FDF718FB60
:103A60004FF47A70FDF704FAFEF76EFEFEF7CAFE19
:103A7000FEF78AFE02204FF41651FFF73DF840F2A0
:103A80000010C2F200007D21418040F2DC50C2F201
:103A9000000000F0C7F8C8B9002000F0B5F840F207
:103AA000DC54C2F20004204600F070F9002000212E
:103AB00000F060F9204600F069F900BFFFF7FCFD57
:103AC00000F014FAC820FDF7D3F9F7E7FDF746F93F
:103AD000002808BF7047072804BF06207047012848
:103AE00004BF0220704704207047000080B540F2F8
:103AF000D860C2F200000068804780BD80B540F207
:103B0000D060C2F200000068804780BD80B540F2FE
:103B1000D460C2F200000068804780BD2DE9F04FFC
:103B200083B006461046951B0293019248BF6D4232
:103B300002980F46B0EB070B48BFCBF1000B019882
:103B40004FF0FF38B042C8BF4FF00108DDF80890D1
:103B50000C9A4FF0FF34F0B2F9B2B945C8BF012456
:103B600000F026F8B94502D10198B0421CD0A5EB6F
:103B70000B0ACBF1000900BF5046B9EB4A0FBCBF9E
:103B8000A0EB0B004644B5EB4A0FC4BF27442844C2
:103B90000C9A8246F0B2F9B200F00AF80298874215
:103BA000EAD101988642E7D103B0BDE8F08F00006A
:103BB000812898BF3F2900D9704740F2BA13C2F25A
:103BC00000031B78B2FA82FC002B01F007034FEAD6
:103BD000D10141EA811118BF4FEA5C124FF0010C8C
:103BE00000EB410040F2BC11012A0CFA03F2C2F2D0
:103BF000000103D10B5C1A430A5470470B5C23EAA3
:103C000002020A547047000080B50246002840F2C4
:103C1000BC10C2F200004FF4826118BFFF22FCF713
:103C200025FC80BD70B504466420FDF721F92046CF
:103C3000AE2100F02BF905462046202100F026F9A0
:103C400005442046102100F021F905442046B0210A
:103C500000F01CF905442046C82100F017F92E1881
:103C600020460021002500F011F9064420461021CD
:103C700000F00CF906442046402100F007F9064404
:103C80002046812100F002F906442046FF2100F081
:103C9000FDF806442046A12100F0F8F8064420462D
:103CA000A62100F0F3F806442046A82100F0EEF823
:103CB000064420463F2100F0E9F806442046A421AE
:103CC00000F0E4F806442046D32100F0DFF8064473
:103CD0002046002100F0DAF806442046D52100F005
:103CE000D5F806442046F02100F0D0F806442046DE
:103CF000D92100F0CBF806442046222100F0C6F876
:103D000006442046DA2100F0C1F80644204612217C
:103D100000F0BCF806442046DB2100F0B7F806446A
:103D20002046202100F0B2F8064420468D2100F004
:103D3000ADF806442046142100F0A8F806442046B9
:103D4000AF2100F0A3F8C6421CBF012070BD0020C7
:103D5000FFF75AFF204600F019F840F2B610C2F201
:103D60000000058040F2B810C2F20000058028462D
:103D700070BD000040F2B612C2F20002108040F2A4
:103D8000B810C2F200000180704700002DE9F04138
:103D900084B040F2BC1604460025C2F200064FF083
:103DA00064088227A5F15000C1B2204600F06EF8E9
:103DB0002046002100F06AF82046102100F066F845
:103DC0002046782140220123CDE90067CDF8088004
:103DD000FDF73EFA0135082D06F18206E2D104B066
:103DE000BDE8F0812DE9F04F85B040F2B617C2F280
:103DF00000071D463B88CCB22344812B0BD840F2F0
:103E0000B816C2F20006B6F800C0C1F3072303EBF0
:103E10000C013F2903D9002005B0BDE8F08F0392C3
:103E2000019063B30198B5FA85F8203858434FF0F4
:103E300000090290049304E0049B09F101099945EB
:103E40001DD0002CF8D002980399484431F810B0E6
:103E50004FF0000A398832880BFA0AF0514409EB16
:103E6000020300042A46C8B2D9B258BF4FEA58121A
:103E7000FFF79EFE0AF1010A5445EBD1DCE73888D2
:103E800020443880019805B0BDE8F08F80B584B03B
:103E90008DF80F1001210DF10F024FF00A0CCDE942
:103EA0000021782100220123CDF808C0FDF7D0F9C8
:103EB00004B080BDF0B581B01C46037893B11546BF
:103EC0000E46471CD8B231462A462346FFF78AFFE2
:103ED00017F8011C884206D117F8013B002BF1D1DD
:103EE000002100E00021084601B0F0BD70B540F2AD
:103EF0000016C2F20006B08801F0C8F90024C4F22E
:103F00007A44214601F0B0F8F1880546084601F0F0
:103F1000BDF9214601F0A8F801462846FEF722FE29
:103F200040F60040C4F201000821FDF7ABF800287C
:103F300018BF70BD308944F6D351C1F26201A0FBB5
:103F40000101880901F0A2F9FEF77AFC0021C4F210
:103F50007A4101F017FA01F07DF9308170BD00005F
:103F6000D9B110B547F2701C47F2702E421EFF20E7
:103F7000C0F6000CC0F6000EFF2300BF12F8014F80
:103F8000013944401CF8040058401EF804300C0469
:103F9000F4D11902BDE8104002E0FF204FF47F4148
:103FA000084380B270470000B0B540F2C865C2F265
:103FB0000005024628680C463AB140F2DC61C2F2C4
:103FC00000010122FEF786F901E0FDF747FF2868AE
:103FD00034B190F84100202808BFFFF797FDB0BD2D
:103FE000FDF798FFB0BD000080B540F2C460C2F29A
:103FF00000000068FDF7C8FD80BD000080B540F2FC
:10400000C460C2F2000040F2DE610068C2F200014A
:1040100000220A80FDF78EFD80BD000040F61002F0
:10402000C2F2000213780146012B4FF0000018BFC6
:10403000704740F2D853C2F200031B780B70107027
:104040000120704740F61001C2F200010022012059
:104050000A707047014640F61000C2F200000122CB
:10406000027040F2D852C2F2000201201170704773
:1040700080B540F2DC61C2F200010A78027040F2C1
:10408000C860C2F2000000680122FEF723F9012097
:1040900080BD00000120704780B540F2C862C2F2C6
:1040A000000240F2E2611268C2F20001087010469C
:1040B0000122FEF733F9012080BD000040F2E062EA
:1040C0000146C2F2000201201180704780B582B023
:1040D00040F2DA50C2F20000007800283CD10DF125
:1040E0000700FFF7C5FF40F2D950C2F20000017887
:1040F00003292ED8DFE801F02B02172B40F6060C1F
:10410000C2F2000C0022ACF800209DF80720BCF899
:104110000030591CACF8001040F20471C2F20001EA
:10412000CA54022112E040F60601C2F200010A88D8
:10413000FF2A0AD89DF807000A88531C0B8040F21A
:104140000471C2F20001885401E003210170FFF7FD
:1041500055FF002002B080BD47F2E33102A0C0F657
:104160000001E422FCF7DEF865536E645374617459
:1041700065203D3D2053544154455F54585F4944A8
:104180004C450000B0B540F2D955C2F20005287880
:10419000032807D0022807D058B90020FFF75AFF9C
:1041A000044613E0002411E00120FFF753FF04460A
:1041B0000CE0287820B12878022803D1002405E0FB
:1041C000002403E02878032806D10024FFF70CFF21
:1041D000012120462970B0BD47F2803047F2E3311B
:1041E000C0F60000C0F600014FF4AE72FCF79AF87A
:1041F000F0B581B040F2D950C2F200000078012839
:1042000040D140F2DA56C2F200063078012806D0DA
:1042100020BB012000210024FFF7C6FE2FE040F65E
:104220000804C2F20004208840F60005C4F201052B
:10423000B0B1284610210122FCF732FF40F2CC65D4
:10424000C2F2000528680078FFF726FF28680130D1
:104250002860208801382080002410E000240EE02F
:104260000320FFF7F7FE0446012000210027FFF797
:104270009BFE2846102100223770FCF711FF2046D4
:1042800001B0F0BD47F2E33103A0C0F6000140F2F7
:104290001F12FCF747F800BF6552637653746174D0
:1042A00065203D3D2053544154455F52585F494479
:1042B0004C4500005FEA400C08BF91F0000F4FEA48
:1042C0008C234FEAC12243EA51514FEA1C5018BFD8
:1042D00000F5F0404FEA300018BF41F000415FEABE
:1042E0006C5C00F02980BCF1FF3F08BF40F08040CB
:1042F0007047130C06BF12044FF0100C4FF0000C67
:10430000130E04BF12020CF1080C130F04BF1201AC
:104310000CF1040C930F04BF92000CF1020CD30FAC
:1043200004BF52000CF1010C11464FF00002A0F145
:104330001F00A0EB0C00704711F0004F08BF704742
:1043400031F000413FF4D5AF0B0C06BF09044FF02C
:10435000100C4FF0000C0B0E04BF09020CF1080CFE
:104360000B0F04BF09010CF1040C8B0F04BF890073
:104370000CF1020CCB0F04BF49000CF1010CCCF185
:10438000200322FA03F341EA030102FA0CF2A0EB44
:104390000C0000F10100704723F07F4720F07F4CB4
:1043A00080EA030000F00040ACEB070303F57C5308
:1043B00003F1FF032DE9804909B44FEA144324EACD
:1043C00003484FEA154B25EA0B4E0FF2042606EB85
:1043D00013273E7803FB0667C7F5000707FB06F6C1
:1043E0004FEAD64606F102064FEA543707FB066C41
:1043F000CCF1005C4FEA1C472CEA074C0CFB06F59D
:1044000007FB06F404EB15464FEA961649085FEAE7
:10441000320234BF00204FF000404FEAD13706FB94
:1044200007FC4FEA1C4C0CFB0BF7D21B03FB0CF7F1
:1044300061EB07010CFB0EF7B0EB074072EB174284
:104440000CFB08F734BFA2EB0742B2EB074261EB6B
:1044500017414FEA0C444FEA910706FB07FC4FEA6D
:104460001C4C0CFB0BF7B0EBC74072EB573203FB55
:104470000CF734BFA2EBC742B2EBC74261EB573136
:104480000CFB0EF7B0EBC70072EB57720CFB08F792
:1044900034BFA2EBC702B2EBC70261EB57714FEA20
:1044A000816141EA92114FEA826242EA90124FEA38
:1044B000806004EBCC04039F4FEAD13706FB07FC76
:1044C0004FEA1C4C0CFB0BF7D21B03FB0CF761EB08
:1044D00007010CFB0EF7B0EB074072EB17420CFB29
:1044E00008F734BFA2EB0742B2EB074261EB17417A
:1044F0004FEA8C5504EB9C244FEA910706FB07FC1E
:104500004FEA1C4C0CFB0BF7B0EBC74072EB573279
:1045100003FB0CF734BFA2EBC742B2EBC74261EB1F
:1045200057310CFB0EF7B0EBC70072EB57720CFB68
:1045300008F734BFA2EBC702B2EBC70261EB5771B9
:104540004FEA816141EA92114FEA826242EA901297
:104550004FEA806015EB4C2544F100044FEAD13757
:1045600006FB07FC4FEA1C4C0CFB0BF7D21B03FBB2
:104570000CF761EB07010CFB0EF7B0EB074072EB99
:1045800017420CFB08F734BFA2EB0742B2EB07421D
:1045900061EB17414FEA813141EA92414FEA8232A1
:1045A00042EA90424FEA80304FEA0C7615EB1C1538
:1045B00044F1000448EA03434EEA0B484FF0000E72
:1045C000B2EB080C71EB030724BF624639464EEB91
:1045D0000E0E4FF0000B0018524149414BEB0B0BF4
:1045E000B2EB080C71EB03077BF1000B24BF6246B2
:1045F00039464EEB0E0E4FF0000B00185241494168
:104600004BEB0B0BB2EB080C71EB03077BF1000BD0
:1046100024BF624639464EEB0E0E51EA020718BF20
:1046200046F0010616EB0E7655F1000254F100013A
:1046300003D5BDE88901BDE80088BDE88901BDE872
:104640000048B619524141EB0101A3F10103704743
:1046500080807F7E7D7C7B7A7978777676757473BF
:10466000727171706F6E6E6D6C6C6B6A6A6968687E
:10467000676666656464636362616160605F5F5E14
:104680005E5D5D5C5C5B5B5A5A595958585757568A
:1046900056555555545453535252525151505050EF
:1046A0004F4F4F4E4E4D4D4D4C4C4C4B4B4B4A4A41
:1046B0004A49494948484847474747464646454585
:1046C00045444444444343434342424242414141BE
:1046D0009C46002B30D477002BD04FEA37071CB50F
:1046E00003B44FF010004FF01001BAF1000F06D0E4
:1046F000BCF1000FDCBF40F0080040F008014FF0B3
:1047000000000FBCBDE810400BF1010BBBF1010F25
:1047100008BF5FEA170722BF12F1010211F1010180
:104720004FF0004143F1000300F0004043EA000075
:104730007047F9D35708D0E746EA06464FEA1646CF
:1047400013F1400F1FDD13F1200FDFBF16430A46A0
:10475000002120335B42BED0C3F1200746EA064663
:104760004FEA164602FA07F746EA070622FA03F26C
:10477000C3F1200701FA07F742EA070221FA03F121
:104780004FF00003A7E746EA020646EA06464FEA6C
:10479000164646EA0106BCBF46EA0646360C4FF00E
:1047A00000034FF000024FF0000194E72DE9804C28
:1047B00070B49A46934691E8380007C831EA400C35
:1047C00048BF34EA430C03D5FFF7E6FDFFF780FF4F
:1047D000F0BCBDE8008C2DE9804C70B49A4693463D
:1047E00091E8380007C810F0804F08BF13F0804FE1
:1047F00003D100F005F8FFF76BFFF0BCBDE8008CBB
:1048000020F07F4723F07F4C80EA030000F0004057
:1048100007EB0C03A3F57C53A3F1FE0392F0000F0A
:1048200000F0B38095F0000F00F077802DE901498A
:104830004FEA114021EA00484FEA144624EA0647AD
:1048400000FB06FC08FB06F607FB08F818EB064819
:104850004CEB164C00FB07F718EB07484CEB1740E6
:104860004FEA124B22EA0B4E4FEA154625EA06475D
:104870000BFB06FC0EFB06F607FB0EFE1EEB064EC0
:104880004CEB164C0BFB07F71EEB074E4CEB174B94
:1048900018EB0B0840F1000018EB0E0B58EB00086A
:1048A00040F100008F1A4FF000014FF000063CBFAE
:1048B000C943661B14BFB5EB040C00213CBFC943C0
:1048C000F61B4FEA174427EA04454FEA1C472CEA37
:1048D000074C04FB076205FB07F70CFB05F616EB1C
:1048E000074642EB174204FB0CFC16EB0C4642EB6E
:1048F0001C421BEB060658EB020241414EEA8E0EAB
:1049000046EA9E0601D5BDE80189B619524141EB40
:104910000101A3F10103BDE801894FEA144524EA2E
:1049200005464FEA114721EA074C05FB07F406FB51
:1049300007F70CFB06F111EB074144EB174405FBAD
:104940000CFC11EB0C4144EB1C444FEA124722EAE9
:10495000074C05FB07F206FB07F70CFB06F616EB08
:10496000074642EB174205FB0CFC16EB0C4642EBEC
:104970001C456A1854F1000148BF7047B6195241EE
:1049800041EB0101A3F10103704795F0000F37D00F
:104990004FEA114221EA02464FEA144724EA074C43
:1049A00002FB07F106FB07F70CFB06F414EB0744C8
:1049B00041EB174102FB0CFC14EB0C4441EB1C4196
:1049C0004FEA154725EA074C02FB07F506FB07F7F8
:1049D0000CFB06F616EB074645EB174502FB0CFCF5
:1049E00016EB0C4645EB1C42121951F1000148BF71
:1049F0007047B619524141EB0101A3F10103704721
:104A00004FEA144524EA05464FEA114721EA074CCC
:104A100005FB07F106FB07F70CFB06F212EB07425A
:104A200041EB174105FB0CFC12EB0C4251EB1C4116
:104A30004FF0000648BF7047921841EB0101A3F107
:104A400001037047490050EAC12018BF04204A0DF5
:104A500018BF40F0010040F2FF72B2EB515F08BF97
:104A600040F00200012808BF0520704730380A28AE
:104A700001D20120704700207047000010B50029C6
:104A80000AD00878002807D005487844FCF7FCF8DD
:104A9000002801D0002010BD0248784410BD00005D
:104AA0009E2900009629000021F0004201F00043F9
:104AB000A2F16052B2F5801F28BFD2F17F6C0BD9F2
:104AC0005FEA001C43EAC20242EB507018BF704715
:104AD00028BF20F001007047B2F5801FBCBF184608
:104AE00070474FEA410C1CF5001F02D2084600F047
:104AF00010BD70B500F0B2F800000089FFF7F6BFF6
:104B00004FF00040A0F580007047000010B591EA1A
:104B1000030F48BF83F0004300F1FC80841A71EB5F
:104B2000030C05D2121943EB0C03001B61EB0C01C3
:104B30004FEA1154A4EB135CDFF81CE11EEA430FAB
:104B400018BF9EEA445F00F0748021EA045123EA12
:104B50000E0343F48013DCF1200E32D322FA0CFE54
:104B600010EB0E0023FA0CFE41EB0E01CCF1200EEF
:104B700003FA0EFE10EB0E00CCF1200E51F10001F5
:104B8000B1F5801F32D201EB045112FA0EF2BDE8EA
:104B9000104058BF7047401C38BF5FEA420218BF40
:104BA0007047002814BF20F0010041F100014FEAD6
:104BB000410313F5001F38BF7047A1F1C04100F059
:104BC0009BB8012A43EB0302ACF1200CDCF11F0E71
:104BD00032BF4FF0000E23FA0CF310EB030041EB51
:104BE0000451B4EB115FD0D0A1EB045101F5801159
:104BF000490801EB04515FEA30000ED350F1000088
:104C000038BF12FA0EFE08D1BDE81040C9E7401CBB
:104C100038BF5FEA4202CAD1C3E7BDE810404FEA9D
:104C2000410313F5001F38BF7047A1F1C04100F0E8
:104C300063B89EEA445F08D011EA5E0FBDE81040F9
:104C400004BF01F0004100207047BDE8104070B57E
:104C500000F004F864FBBE3E0000E0FF0EF1020E1F
:104C60002EF0030E5EF8046B364205D4012A43EBA6
:104C7000030515F5001F12D8012841EB010C1CF5A6
:104C8000001F0CD80ED14FEAD17C0CEB4C0C0CF170
:104C9000020C15F5001F08BF4CEBD37C04E04FF06D
:104CA000080C01E04FEAD37C0CEB4C0526FA05F624
:104CB00006F00706B6F1040C06D20EEB860CBDE832
:104CC00070404CF0010C6047DFE80CF0090B020269
:104CD0004FF00041A1F500214FF0000070BD1946D2
:104CE0001046012851EB010418BFD4F5001484BF0D
:104CF000002001F0004170BD0808A0F500114FEA46
:104D00003101704710B591EA030F48BF83F00043AB
:104D10003FF504AF841A71EB030C07D28CF0004C02
:104D2000121943EB0C03001B61EB0C014FEA115409
:104D3000A4EB135CDFF8A4E11EEA430F18BF9EEA60
:104D4000445F00F0B48021EA045123EA6E0352422A
:104D5000C3EB6E0338BF5B1EDCF1200E25D322FAB5
:104D60000CFE10EB0E0043FA0CFE41EB0E01CCF1F1
:104D7000200E03FA0EFE10EB0E00CCF1200E51F1C6
:104D8000000129D401EB045112FA0EF2BDE81040E3
:104D900058BF7047401C1CBFB2F1004F704700283D
:104DA0000CBF491C20F00100704712EB020E43EBD0
:104DB000030218BF4FF0010E4EEA4202ACF1200C84
:104DC000DCF11E0E56D943FA0CFE10EB0E00CCF1AE
:104DD0001E0E51F1FF31D5D50EF1010E12FA0EFE65
:104DE000404141EB010101EB445C5FEA5C5C10D99E
:104DF00001EB045110EBDE7038BFBEF1004FBDE88F
:104E0000104018BF704700280CBF491C20F001005B
:104E1000704734D24FEAD42C24F4006411F5001109
:104E20001BD0B1FA81F20B3AA41AA41ED2F12003CE
:104E3000914030FA03F31943904001EBCC7101EB40
:104E40000451002CBDE81040A8BF704701F1C041DB
:104E500001F000414FF000007047B0FA80F310FA03
:104E600003F102D1BDE810407047E41A173C480531
:104E7000C90AE2E701EB0451BDE810407047491050
:104E80004FEA300001EB0451BDE8104002E04FF062
:104E9000000170474A0008BF0042F8D0B2F5001F79
:104EA00028BF704701F000414FF0000070479EEAB4
:104EB000445F07D011EA5E0FBDE8104004BF002137
:104EC00000207047BDE8104070B5FFF7C7FE00BF77
:104ED00040DFF63E104683F0004170470000E0FFDF
:104EE00043004FEAD30C4FEA3C0C43401FBF40073E
:104EF0000CF1605113F0FE4F70471CF0006F03D1AE
:104F00000CF00041002070470CF0004343EA507061
:104F100040EACC0010B500F0B6FA00BF00000092E5
:104F20004FEA0001FFF7E8BE4FF00041A1F5002174
:104F30004FF000007047000090EA010F48BF81F079
:104F4000004100F1F282421A3CBF801A89184FEAF0
:104F5000D052A2EBD1534FF07F4C1CEA410F18BF47
:104F60009CEA026F00F03B804FF0004C4CEA0020BE
:104F70004CEA012121FA03FC10EB0C0C1ED202F1C9
:104F8000FF325FEA1C2040EBC25038BF70471CF074
:104F90007F0F4FEA400C18BFBCF17F4F38BF7047FE
:104FA000C3F12003994008BF20F00100BCF17F4FFE
:104FB00038BF7047A0F1C04000F0ABBA4FEA3C00E8
:104FC000000A40EBC25028BF1CF0FF0F4FEA400C14
:104FD000E6D018BFBCF17F4F38BF7047EAE79CEAC4
:104FE000026F05D010EA5C0F08BF00F00040704768
:104FF00010B500F048FA00BF64FBBE3E10B500F0EB
:10500000F5F80CBF0120002010BD10B500F0EEF83F
:1050100014BF0120002010BD10B500F04BF98CBF6B
:105020000120002010BD10B500F044F92CBF012074
:10503000002010BD10B500F071F994BF01200020D0
:1050400010BD10B500F06AF934BF0120002010BD7A
:10505000401058BFC0F14040491058BFC1F1404115
:105060008142EFF3008070474FF47F0C1CEAD012AE
:105070001EBF1CEAD11392EA0C0F93EA0C0F00F04A
:10508000858090EA010F48BF42F4807240F4000C22
:1050900041F400002CF07F4120F07F4000B5A2EBEE
:1050A000030281420FF2081CACEB504E9EF800E068
:1050B000C0F100004FEA4E0E00FB0EFC38BF490065
:1050C0004FEA2C1C0CFB0EF34FEACE1E0EEB635E78
:1050D0004FEA112C0EFB0CFC4FEAC1214FEA1C5386
:1050E00000FB031102F5FA024FEA112C0EFB0CFC37
:1050F0004FEA01314FEADC4C00FB0C1142EB22423B
:10510000C14228BF09184CEB03335DF804EB10EBE8
:10511000410143EBC250B2F57C0F38BF704729D52F
:1051200012F0F00F1CBF00F1C04000F000407047CB
:10513000008182838485868788898B8C8D8E8F9170
:105140009293959697999A9C9D9FA0A2A3A5A7A894
:10515000AAACAEB0B2B3B5B7B9BCBEC0C2C5C7C9C0
:10516000CCCED1D4D7D9DCDFE2E6E9ECF0F3F7FA24
:10517000FE0000004FEA400C0CF1807CBCF17E4F39
:1051800028BF7047B0F1C04000F0C3B90CEAD1139A
:1051900090EA010F48BF42F48072624538BF634510
:1051A00007D213F47F0F16D080EA010000F0004010
:1051B000704710B500F067F9097EFC3E00F005B8B5
:1051C00080EA010000F00040704780EA010000F032
:1051D000004000F09EB912F47F0F04BF02487047F0
:1051E00080EA010000F095B90000C07F50EA010C90
:1051F00000F113801CF5000F58BFBCF5000F01D45F
:105200008842704707D710F5000F58BF11F5000FFF
:1052100015D488427047894270471CF5000F04D5A9
:10522000BCF5000FF7D5814270474FF0807C1CEB36
:10523000400F38BF1CEB410F01D28142704710B5BF
:1052400000F021F9922449004FF000504FF08051B6
:10525000FFF7FEBE41000B0ED3F19E0208D950F4B9
:1052600000034FEA032323FA02F048BF404270478D
:1052700010B500F008F900BF499224800020704763
:105280006FF0004282EA200070470000B0FA80F31D
:1052900010FA03F2C3F19D030AD0D90501EB1220E5
:1052A000530638BF704700F1010008BF20F001002D
:1052B0007047000050EA010C00F113801CF5000F4C
:1052C00058BFBCF5000F01D48842704707D710F5CE
:1052D000000F58BF11F5000F15D48842704789425E
:1052E00070471CF5000F04D5BCF5000FF7D58142BF
:1052F00070474FF0807C1CEB400F38BF1CEB410F18
:1053000001D28142704710B500F0BDF892244900E7
:105310004FF080504FF00051FFF79ABE50EA010C59
:1053200000F113801CF5000F58BFBCF5000F01D42D
:105330008842704707D710F5000F58BF11F5000FCE
:1053400015D488427047894270471CF5000F04D578
:10535000BCF5000FF7D5814270474FF0807C1CEB05
:10536000400F38BF1CEB410F01D28142704710B58E
:1053700000F089F8922449004FF000504FF080511E
:10538000FFF766BE4FF47F0C1CEAD0121EBF1CEA6A
:10539000D11392EA0C0F93EA0C0F00F0478090EAC9
:1053A000010F48BF42F480724FF0004C4CEA0020DD
:1053B0004CEA012102EB0302A0FB0113A2F500025B
:1053C000002918BF43F001035B0028BF4FEA3303F5
:1053D00042EB22425FEA132C4CEBC2502EBFBCEBD7
:1053E000436FB2F57C0F70474FEA036CBCF1004F7E
:1053F00008BF20F00100B2F57C0F38BF70470BD515
:1054000082F0FF0212F5803FC8BF704700F1C04034
:10541000D8BF00F00040704700F5000C5FEA4C0C6C
:1054200048BF7047B0F1C04000F073B80CEAD11328
:1054300090EA010F48BF42F48072624538BF63456D
:1054400004D280EA010000F00040704710B500F07F
:105450001AF800BF8900013E00F007B800F009B853
:105460005FEA410C5FEA1C6C08D080EA010000F0A2
:1054700050B85FEA400C5FEA1C6CF6D14FF0004078
:10548000A0F5800070470EF1020E2EF0030E5EF8BC
:10549000044B244204D44FEA4102B2F17F4F11D8A9
:1054A0004FEA4003B3F17F4F0CD80ED14FEAD07CC6
:1054B0000CEB4C0C0CF1020CB2F17F4F08BF4CEB23
:1054C000D17C04E04FF0080C01E04FEAD17C0CEBFA
:1054D0004C0324FA03F404F00704B4F1040C06D2DC
:1054E0000EEB840CBDE810404CF0010C6047DFE887
:1054F0000CF0070802024FF00040A0F5800010BD3C
:105500000846420018BFD2F1807288BF00F0004008
:1055100010BDFF2141EAD050C005704790EA010F4D
:1055200048BF81F000413FF50EAD421A04D882F029
:105530000042A0EB020011444FEAD052A2EBD1533B
:105540004FF07F4C1CEA410F18BF9CEA026F4AD013
:105550004FF0004C4CEA00204CEA012121FA03FCF8
:10556000B0EB0C0C0FD412F0FE0F36D05FEA4C00FB
:105570001DD5001240EBC25038BF70471CF03F0FE2
:1055800018BF70470BE05FEA1C20A2F1010240EB5C
:10559000C25038BF70471CF07F0F18BF7047C3F16F
:1055A0002003994014BF401E20F0010070474FEACD
:1055B0001223800808BF7047B0FA80FCA2EB0C02EF
:1055C000CCF1280C60FA0CF093EA122F04BF00EB28
:1055D000C25070474FEAC3707047130A5FEADC108D
:1055E00008BF7047F6E79CEA026F04D010EA5C0F30
:1055F00008BF0020704710B5FFF745FF40DFF63EBB
:1056000081F000407047FBF73BB80000024000000B
:10561000000000A00000000005400000000000C8DD
:10562000000000000C4000000000409C0000000052
:10563000194000000020BCBE000000003440000003
:10564000BFC91B8E00000004B5400000504BCFD0F6
:105650006607E2CF010000006C4100003E8251AAC3
:10566000DFEEA73401000000D9420000DCB5A0E263
:105670003A301F97FFFFFFFFB4450000FD25A0C88B
:10568000E9A3C14FFFFFFFFFFF3F000000000080C4
:1056900000000000FF3F000000000080000000004C
:1056A00000000000000000000102030406070809D2
:1056B00000000000010203040000000000000000E0
:1056C00000000000000000000000000000000000DA
:1056D00000000000000000000000000000000000CA
:1056E000000000000000000000000000E003E003F4
:1056F000E003E003E003E003E003E003C003C003D2
:10570000C001C001C001C001C001000000000000D4
:10571000E003E003E00300000000000000000000E0
:105720003C1E3C1E3C1E3C1E3C1E3C1E3C1E000003
:105730000000000000000000000000000000000069
:105740000000000000000000000000000000000059
:1057500000000000CE01CE03DE039E039C039C07E5
:10576000FF3FFF7F3807380F780F780F780EFFFF65
:10577000FFFFF01EF01CE01CE03CE03DE0390000C3
:105780000000000000000000FC03FE0FEE1FE01E02
:10579000E01EE01EE01EE01FE00FE007F003FC014A
:1057A000FE01FE01FE01FE01FE01FE01FE3DFC3F89
:1057B000F00FE001E001000000000000033E07F7E9
:1057C0008FE78EE79EE3BCE3B8E7F8E7F0F7E03F4A
:1057D000C001FF03FF07F307F30FF31EF33CF33899
:1057E000F3787FF03FE000000000000000000000C0
:1057F000E007F80F780F781F781F781F780FF00FE9
:10580000E00F801FC37FC3FBE7F3F7F1F7F0FFF072
:105810007FF03EF87F7CFF3FEF1F0000000000009C
:1058200000000000E003E003E003E003E003C00346
:10583000C0010000000000000000000000000000A7
:105840000000000000000000000000000000000058
:1058500000000000000000003F007C00F001E001BB
:10586000C003C00780078007800F000F000F000FE4
:10587000000F000F000F800F80078007C007C003D4
:10588000E001F0017C003F000F000000007E001FDF
:10589000C007C003E001F001F000F000F80078005C
:1058A00078007800780078007800F800F000F000C8
:1058B000F001E001C003C007001F007E0078000077
:1058C000E003C003C001CE39FF3F7F3F20037003D8
:1058D000F807780F3C1F38060000000000000000A9
:1058E00000000000000000000000000000000000B8
:1058F00000000000000000000000000000000000A8
:10590000C001C001C001C001C001C001C001FFFF52
:10591000FFFFC001C001C001C001C001C001000003
:105920000000000000000000000000000000000077
:105930000000000000000000000000000000000067
:1059400000000000000000000000E003E003E003AE
:10595000E003E001E001E001C0018003000000007D
:105960000000000000000000000000000000000037
:105970000000FE3FFE3F00000000000000000000AD
:105980000000000000000000000000000000000017
:105990000000000000000000000000000000000007
:1059A00000000000000000000000000000000000F7
:1059B0000000E003E003E003E0030000000000005B
:1059C000000000000F000F001E001E003C003C0005
:1059D00078007800F000F000E001E001C003C003AF
:1059E00080078007000F000F001E001E003C003CD7
:1059F0000078007800F00000F007F80F7C1F3E3EB2
:105A00001E3C1F7C1F7C0F780F780F780F780F7863
:105A10000F780F781F7C1F7C1E3C3E3E7C1FF80FCA
:105A2000F00700000000000000000000F000F00798
:105A3000F03FF03FF001F001F001F001F001F00162
:105A4000F001F001F001F001F001F001F001F001CE
:105A5000F001FF3FFF3F00000000000000000000D9
:105A6000E00FF83F7C3C3C003E003E003E003C0026
:105A70003C007C00F800F001E003C0078007000F45
:105A8000001E003E003CFE3FFE3F00000000000004
:105A900000000000F00FF81F7C1C3E003E003E009E
:105AA0003C003C00F800F00FF80F7C003E001E00A8
:105AB0001E001E001E003E007C1CF81FE01F0000A0
:105AC00000000000000000007800F800F800F80175
:105AD000F803F807F807780F781E781E783C787876
