:020000040800F2
:10000000F00D0020910100088D2E0008BD28000889
:10001000592E0008350600083D3400080000000095
:10002000000000000000000000000000E5320008B1
:100030003906000800000000912E0008E93200088F
:10004000AB010008AB010008AB010008AB010008E0
:10005000AB010008AB010008AB010008AB010008D0
:10006000AB010008AB010008AB010008AB010008C0
:10007000AB010008AB010008AB010008AB010008B0
:10008000AB010008AB010008AB010008AB010008A0
:10009000AB010008AB010008AB010008AB01000890
:1000A000AB010008AB010008AB010008AB01000880
:1000B000AB010008F132000800000000AB010008AD
:1000C000AB0100080000000000000000AB010008C8
:1000D00000000000AB0100083134000800000000FF
:1000E000AB010008AB010008AB01000800F002F80A
:1000F00000F03FF80AA090E8000C82448344AAF183
:100100000107DA4501D100F034F8AFF2090EBAE880
:100110000F0013F0010F18BFFB1A43F0010318473B
:10012000F857000018580000103A24BF78C878C16A
:10013000FAD8520724BF30C830C144BF04680C60ED
:10014000704700000023002400250026103A28BF35
:1001500078C1FBD8520728BF30C148BF0B60704739
:10016000732900F09C81002070471FB51FBD10B59A
:1001700010BD00F0F5F91146FFF7F7FF03F0CCFCD6
:1001800000F013FA03B4FFF7F2FF03BC00F0DAF952
:100190000948804709480047FEE7FEE7FEE7FEE71B
:1001A000FEE7FEE7FEE7FEE7FEE7FEE70448054957
:1001B000054A064B70470000ED320008ED000008CC
:1001C000F0070020F00D0020F0090020F0090020C9
:1001D0000FB41CB50C0007AA009001D02044401EAB
:1001E000074B7B4469460190069800F026F9002CE5
:1001F00003D06946002000F033F91CBC5DF814FB05
:10020000850200002DE9F0410E46044600202062E0
:100210002046E168884730B3252805D0D4E901217C
:100220009047206A401CF2E7E16820460027884793
:10023000050018D0A5F14100192802D820354FF447
:1002400000673246294620462760FFF789FF40B104
:10025000012804D0F61D26F007060836D8E7361D1B
:10026000D6E72846DAE7206ABDE8F08170B50C468B
:100270000546012A05D02878800600D5EA690023C2
:1002800002E0012305E05B1C934202D2E05C0028FF
:10029000F9D1A869E618C01AA861286A184428622A
:1002A0002846AFF3008004E0D5E9012114F8010BE2
:1002B0009047B442F8D32846AFF3008070BD0000E9
:1002C0000EB5054614460E4613A000F0F7F8284672
:1002D00000F0F4F816A000F0F1F8304600F0EEF867
:1002E00015A000F0EBF800218DF80B100A210DF19C
:1002F0000A008DF80A1008E094FBF1F201FB1242AB
:1003000094FBF1F4303200F8012D002CF4DC00F005
:10031000D5F800F0C8F800002A2A2A206173736516
:100320007274696F6E206661696C65643A200000C2
:100330002C2066696C6520002C206C696E6520009D
:10034000032A40F2308010F0030C00F0158011F801
:10035000013BBCF1020F624498BF11F801CB00F8D9
:10036000013B38BF11F8013BA2F1040298BF00F82D
:1003700001CB38BF00F8013B11F0030300F0A88067
:10038000083AC0F0088051F8043B083A51F804CB11
:10039000A0E80810F5E7121D5CBF51F8043B40F8D7
:1003A000043BAFF30080D20724BF11F8013B11F8E2
:1003B00001CB48BF11F8012B24BF00F8013B00F826
:1003C00001CB48BF00F8012B704702F0FF0343EA5E
:1003D000032242EA024200F002B84FF0000200B5E8
:1003E000134694469646203922BFA0E80C50A0E858
:1003F0000C50B1F12001BFF4F7AF090728BFA0E806
:100400000C5048BF0CC05DF804EB890028BF40F8D1
:10041000042B08BF704748BF20F8022B11F0804F13
:1004200018BF00F8012B70477047704770470000F5
:1004300001694A1C02610878704700B58FB0CDE9A8
:1004400001310021059105497944CDE90310114698
:100450006846FFF7D7FE0FB000BD0000E5FFFFFFC5
:100460000A6802F8010B0A607047D1E900239A423A
:1004700002D2531C0B601070704710B5436913B162
:10048000AFF3008001E0FFF7F1FE012010BD12780C
:1004900000F124010A7000224A700122EDE7116880
:1004A0004FF0FF32E9E710B5002000F051F8FFF7F8
:1004B0005EFEBDE81040012000F044B810B50446CF
:1004C00002E0641C00F036F820780028F9D110BD55
:1004D00010B5203AC0F00B80B1E81850A0E81850D1
:1004E000B1E81850A0E81850203ABFF4F5AF5FEA21
:1004F000027C24BFB1E81850A0E8185044BF18C9C6
:1005000018C0BDE810405FEA827C24BF51F8043B6C
:1005100040F8043B08BF7047D20728BF31F8023BC0
:1005200048BF11F8012B28BF20F8023B48BF00F854
:10053000012B704708B569468DF800000320ABBE5B
:1005400008BD000001491820ABBEFEE726000200EE
:1005500010B500F039F8BDE8104000F02FB8704732
:10056000754600F049F8AE4605006946534620F04E
:100570000700854618B020B5FFF718FEBDE82040FB
:100580004FF000064FF000074FF000084FF0000B4F
:10059000AC46ACE8C009ACE8C009ACE8C009ACE8BE
:1005A000C00921F007018D46704710B50446AFF32E
:1005B00000802046BDE81040FFF7E4BD002801D0D0
:1005C000FFF7C0BF7047000010B5002102A000F087
:1005D00017F8012010BD0000534947414252543AD8
:1005E0002041626E6F726D616C207465726D696E10
:1005F0006174696F6E000000004870479800002029
:1006000070B505460C460A2000E06D1CFFF792FF0E
:1006100035B128780028F8D102E0641CFFF78AFF82
:1006200014B120780028F8D1BDE870400A20FFF707
:1006300081BF0000FEE7000070470000002240F28A
:10064000CC53B1F5806F92BF012200210020C2F28D
:1006500000031860104659607047000070B540F202
:10066000CC5EC2F2000EDEF80010C9B3DEF8040062
:10067000B0B34FF2E0724FF6014CC1F6FF720023A7
:10068000C0F2FF7C15E000BF1588DE1C00EB85255D
:100690006D78A570DEF80450AE4228BF70BD158895
:1006A000043300EB85208078E070DEF8040083429C
:1006B00016D2148803EB0C0000EB842414F8014CD0
:1006C0005D1CCC54DEF80440A54209D214889E1C5F
:1006D000A402055DCC186570DEF80450AE42D3D399
:1006E00070BD00002DE9F04F85B040F2CC5AC2F247
:1006F000000ADAF800700024FFB14FF2E0794FF6FB
:100700000048C1F6FF79C0F2FF7800F091FA00943A
:10071000B9F8000004A908EB8020029001200390A2
:100720000190684600F09EF9049E054600F012FA1A
:10073000002D08BF16F1010006D000F00BFA20468C
:1007400005B0BDE8F08F00BF00F072FADAF80400DF
:10075000E0B100254FF6FF76785B24EA06010C181D
:10076000B9F8000005EB080101EB802101202246C9
:1007700000F0FAF990B9DAF8041002358D42EBD3A3
:10078000B0FA80F04FEA501481B9D6E7012400F0A6
:10079000E1F9204605B0BDE8F08F00BFDAF804109B
:1007A000B0FA80F000294FEA5014C6D0B9F8002002
:1007B000DAF8000008EB822BC1F1000EA1F101096B
:1007C0000BF1030C0BF102080BF1010A0022835C10
:1007D0001BF80250AB421BD19145AED085186B7807
:1007E0001AF80260B34213D10EEB02039E1CA4D090
:1007F000AE7818F80270BE420AD103339DD0EB7870
:100800001CF80250AB4203D104329142DFD194E78D
:10081000002400F09FF9204605B0BDE8F08F0000ED
:10082000EFF3108072B640F2B860C2F200000168C7
:100830000131016070470000EFF3108072B600BF15
:10084000FEE7000040F2B860C2F200000168013922
:10085000016018BF704762B67047000070B542F281
:100860000C060446C4F2020600F008FB3168C90712
:1008700018D13068800644BF202030603068C00640
:1008800007D43069C00704D1306840075CBF00203E
:1008900070BD3068C00623D40020316849072BD4CE
:1008A00034E000BF002C47D00546601C0ED13068F4
:1008B000C007DED03068C0071CBF30685FEAC07078
:1008C000D7D03068C007F2D1D3E700BF00F0D6FA26
:1008D000401BA04230D83068C007F7D1C9E700BF3D
:1008E00040F2C860C2F20000C16941F00201C1617A
:1008F00010203168490709D540F2C861C2F20001F1
:10090000CA6940F0040042F00102CA613169C907B6
:1009100002D13060012070BD40F2C861C2F2000116
:10092000CA6942F00402CA61316921F001013161F2
:100930003060012070BD00BF032070BD014690F8FB
:100940002100022816D10868D1E90FC3026822F0FD
:100950000E020260026822F001020260012000FA29
:1009600003F2CCF8042081F821000020002281F855
:1009700020207047042088630120002281F8202075
:100980007047000080B590F82110022924D1026838
:10099000116821F00E0111602F211368C4F20201C9
:1009A0008A4240F20401C4F2020123F00103136001
:1009B00018DD3023C4F202039A421FD04423C4F24C
:1009C00002039A421ED05823C4F202039A421FD156
:1009D0004FF4803324E000BF0421816301210846E5
:1009E00080BD00BF0823C4F202039A420ED01C232C
:1009F000C4F202039A420BD1102311E04FF480732A
:100A00000EE000BF4FF480530AE000BF012307E06F
:100A100001F1680C4FF08073624508BF4FF48013FA
:100A20000B60012180F82110426B002180F820101A
:100A30000AB190470021084680BD0000B0B50446C9
:100A400000F01CFA054640F20000C2F200000078F7
:100A5000611C18BF044400BF00F010FA401BA04204
:100A6000FAD3B0BD2DE9F04381B040F2C866C2F2BE
:100A70000006327E012A03D1022001B0BDE8F083D6
:100A8000054601202C6830764CF250308846FFF73E
:100A9000E5FE022C1CD100284ED1002042F21004A9
:100AA000F061C4F20204206840F004002060206875
:100AB00040F0400020604CF25030FFF7CFFE21683C
:100AC00021F0040121600021317601B0BDE8F083FE
:100AD00090BB4FF0FF30C8F80000D5E9027007EB7B
:100AE0008020874228D242F21004C4F202044FF060
:100AF000000900BFC6F81C90206840F0020020608A
:100B00006760206840F0400020604CF25030FFF7F2
:100B1000A5FE216821F00201216098B9D5E9020102
:100B200007F5806700EB81208742E3D30020002196
:100B3000317601B0BDE8F08301200021317601B0AB
:100B4000BDE8F083C8F800700021317601B0BDE83F
:100B5000F083000042F21001C4F20201086840F084
:100B6000800200200A6070472DE9F04F81B040F20A
:100B7000C868C2F20008924698F81820012A03D1EA
:100B8000022001B0BDE8F08F8146012088F81800EE
:100B90004CF250301C460E46FFF760FE30B100218B
:100BA00088F8181001B0BDE8F08F00BF4D4642F242
:100BB0001007B9F1020F18BF0425C4F20207B9F1FA
:100BC000010F08BF4D466FF01F0900204FF0000BCA
:100BD000202200230101A2EB0012C8F81C3004FA05
:100BE00002F22AFA01F13B68114309EB0012002AD4
:100BF00058BF24FA02F143F001023A6026F81010BF
:100C00004CF25030FFF72AFE3968002821F001012C
:100C10003960C4D10BF1010B5FFA8BF08542D7D854
:100C20000020002188F8181001B0BDE8F08F000006
:100C300042F20400C4F20200C16809065CBF002051
:100C4000704740F22311C4F26751016048F6AB11BE
:100C5000CCF6EF510160C068C0F3C01070470000CF
:100C60002DE9F04F82B00E68002E00F0F78041F2BF
:100C70000002C4F20102032340F2004E904208BF7A
:100C800002234FF6FF7CC4F2010E009300240123DF
:100C9000C1F2100C4FF0000B4FF000094EE000BF06
:100CA00040F60043C4F20103009D984208BF0125AD
:100CB00004F00C030F279F402AEA070705FA03F305
:100CC0003B4342F82630D1F804A040F20C455FEADD
:100CD000CA22DEF8082054BF22EA080242EA0802CB
:100CE000C4F20105CEF808202A685FEA8A2354BFBF
:100CF00022EA080242EA08022A605FEA8A33DEF842
:100D0000042054BF22EA080242EA08025FEACA331A
:100D1000CEF80420DEF800204FF0010354BF22EA91
:100D2000080242EA0802CEF800200E680BF1010B1F
:100D300036FA0BF204F1040400F0908003FA0BF889
:100D400016EA080FF1D04E68664511DC122E55D810
:100D5000DFE806F0340A444854545454545454546C
:100D600054545454544C5000D1F80C9046E000BFF9
:100D70004FF6FF72C1F2210296420FDC0022C1F24F
:100D8000110296421AD00022C1F21202964215D0E8
:100D90000022C1F22102964210D02FE00022C1F2BF
:100DA000220296420AD00022C1F23102964205D0B8
:100DB0000022C1F23202964220D100BF8A684AB1B5
:100DC000012A14BFC0F81480C0F810804FF0080941
:100DD00014E000BF4FF0040910E000BFCA6802F140
:100DE00008090BE04FF0000908E000BFCA6802F1F3
:100DF000040903E0CA6802F10C0900BF2246054657
:100E0000BBF1080F24BF203A04352E680F27974006
:100E1000BE4309FA02F232432A60CA79D2067FF54C
:100E200084AF41F21803C4F202031A684FEA9B062A
:100E300042F001021A601A6840F6000302F0010253
:100E40000192019AAEF57E7252F826A0C4F2010317
:100E500098427FF425AF00252AE700BF02B0BDE825
:100E6000F08F00008068084018BF01207047000024
:100E7000002A08BF090401617047000040F2EC70CD
:100E8000C2F200000068704770B5B8B3044690F82D
:100E90003D0028B9002084F83C00204600F05EF9AF
:100EA000242084F83D002068016821F001010160E0
:100EB000016841F400410160016821F400410160D2
:100EC00000F012FB48F28041C0F21E0140F6001310
:100ED000D4F804E088424FF00001C0F23D0348F22C
:100EE000A16C4FF0000238BF01219842C0F2010C02
:100EF00038BF0122E64538BF0A460AB1012070BD5D
:100F00004DF68361C4F21B31A0FB01122168950CE0
:100F10004B684FF4967623F03F0343EA92437543C0
:100F200044F6D3564B60C1F262060B6AA5FB065627
:100F3000B50923F03F03E64538BF950C6A1C1A43F8
:100F40000A62CA6948F2A0664CF6FF73C0F2010655
:100F5000B64522EA03020BD801384FEA4E03B0FB34
:100F6000F3F001306FF31F30042898BF04201EE017
:100F7000A368013863B119230EFB03F3B0FBF3F050
:100F800001306FF31F3078B100F5804008E000BFFA
:100F90000EEB4E03B0FBF3F001306FF31F3028B1BE
:100FA00000F5004003E000BF012000E001201043F5
:100FB000C8610868D4E9072320F0C0001043184333
:100FC0000860886848F2FF3204F10C0690434CCE6A
:100FD00018431043A5698860C86820F0FF003043BB
:100FE0002843C860086840F0010008600020202104
:100FF000206484F83D10206384F83E0070BD00003A
:101000002DE9F04383B0994616460F460446FFF794
:1010100035FF94F83D10202920D10546206800BFF7
:101020008169890716D5FFF729FF411B20681A2916
:10103000F6D381698907F3D500202021206384F845
:101040003D1084F83E00216C41F02001216484F8B9
:101050003C0003E094F83C10012903D1022003B0C6
:10106000BDE8F083012284F83C200368DDE90B1819
:101070000A9ADB0703D1036843F0010303600368A6
:1010800023F400630360212084F83D00402084F8AD
:101090003E000020206462626185608D39462085B3
:1010A0000020CFF6FF70E062204632464B46CDF876
:1010B0000080019501F004FC20B1012003B0BDE8DF
:1010C000F08300BF208D98B9204641462A4601F0A2
:1010D00087FC98B3206C0428EFD12068016841F4A4
:1010E00000710160012003B0BDE8F0830004EBD083
:1010F000204641462A4601F057FD0028EAD1616AA0
:101100002268084610F8013B1361238D6062581E67
:101110002085678D0604A7F101076785576918BF09
:1011200017F00407E2D048781061881C6062981EAE
:101130002085618D01396185D8E700BF206801688D
:1011400041F400710160202084F83D00002084F803
:101150003E0084F83C0003B0BDE8F08310B586B0D3
:10116000016845F20040C4F20000814202D006B09E
:1011700010BD00BF41F21804C4F20204216800F55A
:10118000384041F008012160216801F00801029116
:101190000299C0210291122103910021049103219F
:1011A000059102A9FFF75CFD606840F400106060E3
:1011B000606800F400100190019806B010BD0000B6
:1011C00040F2000040F2EC71C2F20000C2F20001F5
:1011D00000780A68104408607047000080B542F249
:1011E0000000C4F20200016841F010010160032018
:1011F00000F08AF80F2000F005F800F027F8002032
:1012000080BD000070B540F20006C2F2000640F258
:1012100010013278C2F200014FF47A730968B3FB0F
:10122000F2F20446B1FBF2F1084600F05FFB0F2C2E
:101230004FF0010508D838B94FF0FF3021460022A1
:10124000002500F035F87460284670BD82B041F288
:101250001800C4F202000168022241F0010101609D
:10126000016801F0010101910199416841F080514B
:101270004160406800F08050009000980420C4F263
:101280000100016862F31A61016002B0704700005A
:10129000002848BF704700F01F01012202FA01F147
:1012A0004EF200124009CEF2000242F820107047C0
:1012B00010B54EF60C5CCEF2000CDCF80030C3F337
:1012C000022E8EF00704042C28BF0424BEF1030371
:1012D0004FF0FF3E0EFA04F438BF0023A1439940BB
:1012E0000EFA03F39A4300F00F03043B11436344E7
:1012F00009010C3300F16042B0F1FF3FC8BF02F5B5
:101300006443197010BD00004EF60C51CEF200017E
:101310000A684FF6FF031A4060F30A2242F0806029
:1013200040F0FD70086070472DE9F04381B000285F
:1013300000F0858042F20008C4F202080446D8F8A2
:1013400000000D4600F0070088420CD2D8F80000DB
:1013500020F007002843C8F80000D8F8000000F08B
:101360000700A8426BD1206841F204098107C4F24A
:10137000020917D5410705D5D9F8001041F4E061FD
:10138000C9F80010010705D5D9F8001041F46051E3
:10139000C9F80010D9F80010A26821F0F00111433B
:1013A000C9F80010C00741D1D8F8000000F00700CC
:1013B000A8420CD9D8F8000020F007002843C8F84C
:1013C0000000D8F8000000F00700A84237D12068DC
:1013D000410707D5D9F80010E26821F4E061114314
:1013E000C9F80010000708D5D9F80000216920F4D9
:1013F000605040EAC100C9F80000D9F8002002F0AE
:101400000C00082841F20020C0F27A0050D145F6C5
:101410008203C2F38341C0F60003595CD2033BD47C
:1014200040F60010C0F23D00484341E060680228E9
:101430000AD001282AD159F8041C890308D40120B4
:1014400001B0BDE8F08300BF59F8041C8901F6D54E
:10145000D9F8001021F003010843C9F80000FFF794
:101460000DFD064641F28837D9F80000616800F0AA
:101470000C00B0EB810F97D0FFF700FD801BB84246
:10148000F2D9032001B0BDE8F08300BF59F8041C75
:101490008907D4D5DCE700BFD9F8002045F2806386
:1014A000C2F34042C0F600039A5C4843B0FBF2F03E
:1014B000D9F8001044F60C12C1F30311C0F6000273
:1014C000515C40F2100220FA01F140F20400C2F235
:1014D00000000068C2F200021160FFF793FE0020D6
:1014E00001B0BDE8F083000040F2100041F20401B9
:1014F000C2F20000C4F202010068096844F61C123E
:10150000C1F30221C0F60002515CC84070470000E0
:1015100040F2100041F20401C2F20000C4F20201E4
:101520000068096844F61C12C1F3C221C0F600022B
:10153000515CC840704700002DE9F04182B000289E
:1015400068D00446007841F20006C007C4F20206E3
:1015500025D0706800F00C0004281BD0706800F0E3
:101560000C00082802D17068C00313D460680028FA
:1015700000F06881B0F5A02F00F07C81B0F5803FCD
:1015800000F07C81306820F480303060306820F4D6
:10159000802076E13068800301D56068D0B3207880
:1015A000800718D5706810F00C0F07D0706800F035
:1015B0000C0008286ED17068C0036BD430688007B7
:1015C00002D52069012825D13068616920F0F80032
:1015D00040EAC1003060207800071FD4207840071F
:1015E00032D4E56995B1706800F00C00082840F02D
:1015F0008F80012D0ED07068216A00F480328A42FB
:1016000008D1616A00F47010884203D1002002B052
:10161000BDE8F081012002B0BDE8F081A06900289A
:1016200062D00020C4F242200121C0F88014FFF7EC
:1016300025FC0546706A800700F18C80FFF71EFCD0
:10164000401B0228F6D92AE1F06910F0805808D131
:10165000F06940F08050F061F06900F08050009037
:10166000009847F20007C4F200073868C00529D483
:10167000386840F480703860FFF700FC054600BF12
:101680003868C0051ED4FFF7F9FB401B6428F7D962
:1016900005E100BF2069002840F20000C4F24220AA
:1016A00000F0828001210160FFF7E8FB054600BFE2
:1016B000306880073FF588AFFFF7E0FB401B02284A
:1016C000F6D9ECE0E068002800F08080052800F002
:1016D0009780012800F09880306A20F00100306285
:1016E000306A20F0040092E00020C4F24220002181
:1016F000C0F88014FFF7C2FB054600BF706A800780
:101700007FF56CAFFFF7BAFB401B0228F6D9C6E0A5
:101710000027C4F2422700203866FFF7AFFB022DF6
:1017200005460BD13068800140F1BE80FFF7A6FB73
:10173000401B02284FF00300F4D968E730688001AD
:101740007FF564AFFFF79AFB401B02284FF00300C0
:10175000F4D95CE740F21000C2F20000006844F6E1
:10176000D351C1F26201A0FB0101480A019000BF00
:1017700000BF0198411E002801913FF42FAF00BF28
:101780000198411E002801913FF428AF00BF019845
:10179000411E002801913FF421AF00BF0198411E76
:1017A00000280191E4D119E700210160FFF766FBF1
:1017B000054600BF306880077FF50DAFFFF75EFB81
:1017C000401B02284FF00300F4D920E7306A20F0D4
:1017D00001003062306A20F004003062FFF74EFBF7
:1017E000054641F2883700BF306A800720D5FFF7F1
:1017F00045FB401BB8424FF00300F5D907E700BF97
:10180000306A40F004003062306A40F0010030621B
:10181000FFF734FB054641F2883700BF306A800786
:1018200006D4FFF72BFB401BB842F7D937E000BFC7
:10183000B8F1000F7FF4D5AEF06920F08050F06170
:10184000CFE600BF306820F480303060306820F48C
:1018500080203060FFF712FB054600BF3068800330
:101860007FF59DAEFFF70AFB401B64284FF0030095
:10187000F4D9CCE6306840F480203060306840F421
:1018800080303060FFF7FAFA054600BF3068800309
:101890003FF585AEFFF7F2FA401B6428F6D9032026
:1018A00002B0BDE8F08100BF206AB0F5803F05D1ED
:1018B0007168A26821F40031114371607168626A35
:1018C00021F4741110430843706001203866FFF75B
:1018D000D5FA0446306880013FF598AEFFF7CEFA9E
:1018E000001B02284FF00300F4D990E6411E0020AF
:1018F000B0EB116F1CBF012070474EF21002CEF208
:10190000000251604EF62351CEF20001F0230B701D
:101910000721906011607047704700007047000019
:1019200010B590F83C20012A4FF0020225D080F833
:101930003D200268D2F804E0D2F808C00C682EF00E
:1019400070032343B2F1804F53600BD042F6004343
:10195000C4F201039A4205D040F20043C4F20003EE
:101960009A4204D149682CF0800319439160012107
:10197000002280F83D1080F83C20104610BD000089
:10198000002804BF0120704710B5044690F83D00C0
:1019900028B9002084F83C00204600F051F80220CD
:1019A00084F83D00206842F6004C0268B0F1804F98
:1019B000C4F2010C18BF604504D1A36822F0700284
:1019C0001A4305E040F20043C4F200039842F4D009
:1019D000B0F1804F18BF604504D1236922F44072F2
:1019E0001A4305E040F20043C4F200039842F4D0E9
:1019F000A16922F08002D4F804E0E3681143604555
:101A00000160C362C0F828E002D16169CCF83010EF
:101A100001214161002084F8461084F83E1084F8CA
:101A20003F1084F8401084F8411084F8421084F884
:101A3000431084F8441084F8451084F83D1010BD1C
:101A400080B582B0006840F20041C4F200018842D3
:101A50001CBF02B080BD41F21C00C4F2020001684C
:101A6000002241F0020101600068002100F0020044
:101A7000019001981D20FFF71BFC1D2002B0BDE85E
:101A80008040FFF705BC000090F83D1001291CBF05
:101A900001207047022180F83D100068C168B0F154
:101AA000804F41F00101C1600BD042F60041C4F209
:101AB0000101884205D040F20041C4F20001884291
:101AC00006D1816801F00701062904BF0020704794
:101AD000016841F001010160002070470146006883
:101AE00041F21113C26822F00102C260026A1A4276
:101AF00004D00122002081F83D207047026A40F2A4
:101B000044431A42F5D1026822F001020260012228
:101B1000002081F83D20704780B590F83C20012AD4
:101B20004FF0020200F0C28080F83D20D0F800C0E3
:101B30004FF67772DCF8083023EA0202CCF808206E
:101B40000B684F2B28DC1F2B44DD202B45D0302B7E
:101B500043D0402B40F0AC80D1F804E0C968DCF8F9
:101B60002030DCF8202022F00102CCF82020DCF824
:101B7000182022F0F00242EA011123F00A0242EAA0
:101B80000E02CCF81810CCF82020DCF8081041F038
:101B9000470121F0300180E06F2B27DDB3F5005FB6
:101BA00048D0B3F5805F7AD0702B40F08180D1E9C6
:101BB00001E3C968DCF8082043EA0E0322F47F42FF
:101BC00043EA01211143CCF80810DCF8081041F079
:101BD000770162E00BB1102B6AD1DCF8081021F01C
:101BE0007001194341F0070157E000BF502B35D079
:101BF000602B5DD1D1F804E0C968DCF82030DCF856
:101C0000202022F01002CCF82020DCF8182022F44A
:101C1000704242EA013123F0A00242EA0E12CCF8EF
:101C20001810CCF82020DCF8081041F0670121F0F2
:101C3000100132E0D1E901E3C968DCF8082043EA89
:101C40000E0322F47F4243EA01211143CCF808102D
:101C5000DCF8081041F480411FE000BFD1F804E037
:101C6000C968DCF82030DCF8202022F00102CCF832
:101C70002020DCF8182022F0F00242EA011123F0C3
:101C80000A0242EA0E02CCF81810CCF82020DCF848
:101C9000081041F0570121F02001CCF80810002273
:101CA000012180F83D10002180F83C10104680BDD5
:101CB0000122F5E77047000010B501680446086985
:101CC000800744BFC8685FEA807039D4086940075C
:101CD00044BFC8685FEA40703ED40869000744BF4B
:101CE000C8685FEA007045D40869C00644BFC86888
:101CF0005FEAC0604AD40869C0071CBFC8685FEAD1
:101D0000C07051D10869000644BFC8685FEA00602E
:101D100052D40869400644BFC8685FEA406053D4A3
:101D20000869800646BFC8685FEA806010BD6FF032
:101D3000200220460A61BDE81040FFF7EFBD00BF5A
:101D40006FF002000861012020778869800743D086
:101D50002046FFF7AFFF45E06FF004000861022066
:101D60002077886910F4407F40D02046FFF7A2FF1B
:101D700042E000BF6FF00800086104202077C869C6
:101D800080073DD02046FFF795FF3FE06FF0100041
:101D9000086108202077C86910F4407F3AD02046B7
:101DA000FFF788FF3CE000BF6FF0010008612046AC
:101DB00000F03EF82168A5E76FF08000086120463A
:101DC000FFF7AAFD2168A4E76FF0400008612046F4
:101DD00000F04CF82168A3E7204600F025F82046E3
:101DE00000F024F82168002020776FE7204600F0FB
:101DF0001BF8204600F01AF82168002020776CE7D5
:101E0000204600F011F8204600F010F8216800206C
:101E1000207769E7204600F007F8204600F006F832
:101E200021680020207766E77047000070470000B7
:101E300040F2BC61C2F2000109680068096888428A
:101E400018BF704740F21C10C2F20000418802889F
:101E500001318BB29342418006D140F23C10C2F274
:101E600000000068004700BF704700007047000096
:101E7000704700007047000010B50446206850E825
:101E8000030F216820F4907041E80302BAB3206880
:101E900050E8030F216820F4907041E8030272B308
:101EA000206850E8030F216820F4907041E8030295
:101EB0002AB3206850E8030F216820F4907041E8AD
:101EC0000302002ADAD11AE0206850E8050F2168E1
:101ED00020F0010041E80502DAB1206850E8050F62
:101EE000216820F0010041E8050292B1206850E825
:101EF000050F216820F0010041E805024AB1206881
:101F000050E8050F216820F0010041E80502002A91
:101F1000DAD1206B012824D1206850E8030F216812
:101F200020F0100041E80302DAB1206850E8030F06
:101F3000216820F0100041E8030292B1206850E8C7
:101F4000030F216820F0100041E803024AB1206825
:101F500050E8030F216820F0100041E80302002A36
:101F6000DAD12068416949060AD400202021E085A1
:101F700084F8421020632046FFF77CFF002010BD4C
:101F800050E8050F216820F0400041E80502EAB161
:101F9000206850E8050F216820F0400041E8050264
:101FA000A2B1206850E8050F216820F0400041E808
:101FB00005025AB1206850E8050F216820F0400062
:101FC00041E8050212B12068DAE700BFE06B68B1B2
:101FD00043F20931C0F600014163FEF7D3FC00284B
:101FE000CCD0E06B416B8847002010BD0020202141
:101FF000E08584F8421020632046FFF73BFF002075
:1020000010BD00007047000010B50446206850E87D
:10201000030F216820F0C00041E80302DAB1206814
:1020200050E8030F216820F0C00041E8030292B19C
:10203000206850E8030F216820F0C00041E8030247
:102040004AB1206850E8030F216820F0C00041E841
:102050000302002ADAD12068416909060AD4002067
:10206000E084202084F841002046FFF7CBFF0020C9
:1020700010BD00BF50E8050F216820F0800041E846
:102080000502EAB1206850E8050F216820F08000C1
:1020900041E80502A2B1206850E8050F216820F050
:1020A000800041E805025AB1206850E8050F216818
:1020B00020F0800041E8050212B12068DAE700BF95
:1020C000A06B68B143F21D31C0F600014163FEF719
:1020D00059FC0028CBD0A06B416B8847002010BD75
:1020E0000020E084202084F841002046FFF78AFF8A
:1020F000002010BD70470000B0B582B005680446EE
:102100002968EA68686901F02F03202B02F0200398
:1021100006D12BB1204602B0BDE8B04001F006B9AF
:102120005FEA017C1EBF00F0010E02F4907010EB1C
:102130000E002FD1236B02EA0100C10618D5012B36
:1021400016D10020019028680190686801900198DC
:102150006869400628D4A08DE18DE28D002A1CBF5D
:10216000411A5FEA014040F0D78102B0B0BD00BF24
:10217000010600F1D3804006F7D5E868202120F061
:102180004000E860204684F8411002B0BDE8B0404D
:1021900000F084BBC80718BF12F4807040F0D280F2
:1021A000480700F1D580DAE0E06B01684A6893B235
:1021B000002BDAD0A18D8B42D7D2E285806920280E
:1021C00000F0A18055E8030F216820F4807041E8F9
:1021D0000302FAB1206850E8030F216820F48070F0
:1021E00041E80302B2B1206850E8030F216820F4EF
:1021F000807041E803026AB1206850E8030F21684B
:1022000020F4807041E8030222B1206850E8030FF7
:10221000DAE700BF206850E8050F216820F00100D0
:1022200041E80502BAB3206850E8050F216820F0A4
:10223000010041E8050272B3206850E8050F2168EB
:1022400020F0010041E805022AB3206850E8050F9C
:10225000216820F0010041E80502002ADAD11AE0E5
:10226000206850E8050F216820F0400041E8050291
:10227000DAB1206850E8050F216820F0400041E8FD
:10228000050292B1206850E8050F216820F0400057
:1022900041E805024AB1206850E8050F216820F0A6
:1022A000400041E80502002ADAD1202084F84200EB
:1022B00000202063206850E8030F216820F0100000
:1022C00041E80302DAB1206850E8030F216820F0EA
:1022D000100041E8030292B1206850E8030F216822
:1022E00020F0100041E803024AB1206850E8030FD3
:1022F000216820F0100041E80302002ADAD1E06BE7
:10230000FEF71CFBA18D02206063E08D081A81B2EC
:10231000204602B0BDE8B040FFF7AABD94F84100E6
:1023200021287FF422AFA068B0F5805F03D1206937
:10233000002800F08981206A411C216200786860D1
:1023400089E100BF606C40F001006064480706D579
:10235000BEF1000F03D0606C40F00200606488079B
:1023600006D5BEF1000F03D0606C40F0040060643D
:10237000BCF1000F06D55EEA030003D0606C40F0AC
:1023800008006064606C00283FF4EFAE02EA0100D0
:10239000800603D5204600F0C9FF25686869616C96
:1023A00000F0400001F00801401800F0AD8055E851
:1023B000030F00BF216820F4907041E80302D2B3FC
:1023C000206850E8030F216820F4907041E8030270
:1023D0008AB3206850E8030F216820F4907041E828
:1023E000030242B3206850E8030F216820F4907084
:1023F00041E80302FAB1206850E8030FDAE700BFB2
:10240000206850E8050F216820F0010041E805022E
:10241000DAB1206850E8050F216820F0010041E89A
:10242000050292B1206850E8050F216820F00100F4
:1024300041E805024AB1206850E8050F216820F004
:10244000010041E80502002ADAD1206B012824D1DD
:10245000206850E8030F216820F0100041E80302D3
:10246000DAB1206850E8030F216820F0100041E83D
:10247000030292B1206850E8030F216820F0100099
:1024800041E803024AB1206850E8030F216820F0B8
:10249000100041E80302002ADAD1202084F842002B
:1024A0000020206320684169490640F1C78050E858
:1024B000050F216820F0400041E80502002A00F0E5
:1024C000AB80206850E8050F216820F0400041E80B
:1024D0000502002A00F0A080206850E8050F21685E
:1024E00020F0400041E80502002A00F095802068B5
:1024F00050E8050F216820F0400041E80502002A5D
:1025000000F08A802068D2E72046FFF7F3FD002024
:10251000606402B0B0BD00BF55E8030F226820F42C
:10252000907042E80303D3B3206850E8030F226899
:1025300020F4907042E803038BB3206850E8030F47
:10254000226820F4907042E8030343B3206850E807
:10255000030F226820F4907042E80303FBB1206867
:1025600050E8030FDAE700BF206850E8050F226843
:1025700020F0010042E80503DBB1206850E8050FB8
:10258000226820F0010042E8050393B1206850E87A
:10259000050F226820F0010042E805034BB12068D6
:1025A00050E8050F226820F0010042E80503002BE7
:1025B000DAD1202084F8420000202063206850E80F
:1025C000030F226820F0100042E80303DBB120680B
:1025D00050E8030F226820F0100042E8030393B193
:1025E000206850E8030F226820F0100042E803033F
:1025F0004BB1206850E8030F226820F0100042E839
:102600000303002BDAD1022289B22046626302B0B2
:10261000BDE8B040FFF72CBCE06B78B143F2FD2180
:10262000C0F600014163FEF7ADF900283FF49DAD0F
:10263000E06B416B02B0BDE8B0400847204602B0F5
:10264000BDE8B040FFF756BD206A30F8021B6FF3BB
:102650005F2169602062E08C01380104E0847FF42E
:1026600084ADE86820F08000E860E86840F0400051
:10267000E86002B0B0BD0000002804BF0120704730
:1026800010B5044690F8410028B9002084F84000B5
:10269000204600F061F8242084F841002068D4E945
:1026A0000212C36823F40053C360036923F4405348
:1026B0001A430261D4E904231143C268194341F269
:1026C0000C639A431143C1604169A26921F44071CE
:1026D000114343F60002C4F201029042416103D06B
:1026E000FEF702FF02E000BFFEF712FF6268192149
:1026F00048439100B0FBF1F048F21F51C5F2EB11D5
:10270000A0FB01235A096FF0630302FB030032238D
:1027100003EB0010A0FB0101F02303EA5113206832
:1027200003EB0212C1F3431111448160016921F4EA
:1027300090410161416921F02A014161C16841F480
:102740000051C16000202021606484F8411084F8A9
:102750004210606310BD000070B586B040F6000402
:10276000C4F201040068A4F544410026884204969E
:1027700002D006B070BD00BF41F21800C4F20200E2
:10278000416802AD41F400314160416801F400311B
:1027900001910199016841F0040101600068294636
:1027A00000F00400019001980420029002200390A0
:1027B000032005902046FEF753FA0820CDE90206D3
:1027C000204629460496FEF74BFA262000210022D7
:1027D000FEF76EFD2620FEF75BFD2620002100227D
:1027E000FEF766FD2620FEF753FD06B070BD000023
:1027F00090F84230202B1CBF0220704700294FF078
:10280000010318BF002A01D1184670470023036353
:10281000816222218285C285436480F84210016969
:10282000006819B1C16841F48071C1604169002339
:1028300041F001014161C16841F02001C1601846C9
:102840007047000040F2C061C2F2000109680068F0
:102850000968884218BF704740F23410C2F2000085
:1028600000680047034690F8410020281CBF022062
:10287000704700294FF0010018BF002A00D17047AF
:102880001962002021219A84DA84586483F8411067
:102890001968CA6842F08002CA60704740F2C0619D
:1028A000C2F20001096800680968884218BF7047D1
:1028B00040F23810C2F2000000680047FEE7000056
:1028C0002DE9F04381B00446006890460268099EF5
:1028D00042F4807202604269089D9946D2070F4611
:1028E0003DD1691C31D065B9FEF7C8FA206841694D
:1028F000C9070FD04169C907F6D030E04169C9075F
:102900002DD1FEF7BBFA811B2068A942F6D9416997
:10291000C907F3D100212022216384F83D2084F8E7
:102920003E10226C42F02002226484F83C100068C1
:10293000C00544BF4FF400702064032001B0BDE81F
:10294000F08300BF4169C90709D14169C90706D1B0
:102950004169C90704BF41695FEAC171F2D007F05C
:10296000FE0101610221C0F2010120462A463346E0
:1029700000F0A2F820B1012001B0BDE8F08300BF53
:102980000020009020683246416900918069294604
:1029900000900098204600F007F958B1206C0428F8
:1029A000E9D12068016841F400710160012001B0A3
:1029B000BDE8F083B9F1010F0AD020684FEA182171
:1029C000016120462946324600F0EEF80028E5D1A4
:1029D00020685FFA88F10161002001B0BDE8F08352
:1029E00070B50368044653F8140F40072DD40E4603
:1029F000481C24D066BB00BF186840054AD4FEF7C7
:102A00003DFA236853F8140F400733D51868400780
:102A1000F2D51AE0186840053CD41868400714D471
:102A20001868400536D4186840070ED41868400569
:102A300030D4186840074FF0000048BF70BD1868D8
:102A4000400527D418684007E4D5002070BD00BFBA
:102A5000154603E053F8140F4007F6D418684005F4
:102A600018D4FEF70BFA401B2368B042F2D958691C
:102A70004007EFD400202021206384F83D1084F823
:102A80003E00216C41F02001216484F83C000120CB
:102A900070BD00BF6FF480601860002020212063AB
:102AA00084F83D1084F83E00216C41F0040121645B
:102AB00084F83C00012070BDF0B581B01D4603686C
:102AC000044658698FB23840B84203D1002001B0A3
:102AD000F0BD00BF1646002A47D0701C22D15869AD
:102AE000400545D458693840B842EFD05869400590
:102AF0003ED458693840B842E8D05869400537D4C8
:102B000058693840B842E1D05869400530D4586916
:102B10003840B8424FF00000E1D142E058693840F7
:102B2000B8423DD05869400522D4FEF7A7F9401BB2
:102B30002368B042F2D958693840B842EED000203C
:102B40002021206384F83D1084F83E00216C41F080
:102B500020011EE0FEF792F9236858693840B84218
:102B6000EDD158693840B842B0D058694005F1D528
:102B70001868202140F4007018606FF4806058617C
:102B80000020206384F83D1084F83E00216C41F061
:102B90000401216484F83C00012001B0F0BD00BFB5
:102BA000002001B0F0BD000070B50368044653F882
:102BB000140F00062DD40E46481C24D066BB00BF5F
:102BC000186840054AD4FEF759F9236853F8140FE2
:102BD000000633D518680006F2D51AE018684005DB
:102BE0003CD41868000614D41868400536D4186818
:102BF00000060ED41868400530D4186800064FF05F
:102C0000000048BF70BD1868400527D4186800064A
:102C1000E4D5002070BD00BF154603E053F8140F43
:102C20000006F6D41868400518D4FEF727F9401BB3
:102C30002368B042F2D958690006EFD40020202161
:102C4000206384F83D1084F83E00216C41F020019F
:102C5000216484F83C00012070BD00BF6FF48060E7
:102C6000186000202021206384F83D1084F83E0085
:102C7000216C41F00401216484F83C00012070BD06
:102C800040F2BC61C2F200010860704740F2C061CE
:102C9000C2F20001086070472DE9F04784B041F2AC
:102CA0001800C4F20200016840F6000541F020015E
:102CB00001600168C4F2010501F020010091009952
:102CC0000168002241F0040101600168102601F052
:102CD00004010091009901684FF0000941F00801DA
:102CE00001600068102100F008000090009828465C
:102CF000FEF7BEF805F5806420464FF4007100220F
:102D00004FF40078FEF7B4F800966E4601274FF0B6
:102D1000020A28463146CDE90179CDF80CA0FDF72D
:102D20009FFF4FF40040CDE9000928463146029745
:102D3000FDF796FF3820CDE900092046314602977D
:102D4000FDF78EFF20463146CDE90087CDE9029A96
:102D5000FDF786FF04B0BDE8F087000080B540F2C3
:102D6000D45045F20041C2F20000C4F2000148F222
:102D7000A06200234FF4804CC0F2010280E80E00F4
:102D8000C0E9033CC0E90533C0E90733FEF77CF82E
:102D9000002808BF80BDBDE88040FDF74DBD0000A4
:102DA00080B586B040F2286040F200420021C2F2B5
:102DB0000000C4F2000247234FF0320C0591CDE928
:102DC0000311CDE90011C0E90023C0E9021C016133
:102DD0008161FEF7D5FD002818BFFDF72DFD4FF4EA
:102DE0008050029040F22860C2F2000002A9FEF773
:102DF00093FE002818BFFDF71FFD0020CDE900005D
:102E000040F22860C2F200006946FEF789FD002802
:102E100018BFFDF711FD06B080BD000080B540F27F
:102E2000706044F20041C2F20000C4F200010023CD
:102E30004FF00C0C4FF4165280E80E00C0E903333B
:102E4000C0E905C3C361FFF717FC002808BF80BDB8
:102E5000BDE88040FDF7F0BCFEE7000070B582B031
:102E6000064610461C460D46FFF70AFF2046FFF7B0
:102E70000DFF00240020314600222B46009400F074
:102E80007DFB02B0BDE8704000F0DABAFEE700005A
:102E90007047000070B540F24C14C2F20004201DCF
:102EA0006821FDF79AFA20460421FDF7C7FBFDF7DC
:102EB000D5FB2088062803D303202080FDF712FCD1
:102EC0006088B0F5807F04D302206080FDF70AFCA3
:102ED00060882188A4F84E000429A4F8501005D871
:102EE00008B21FA151F8205002E000BF4FF4165560
:102EF00044F2004640F27060C4F20006C2F20000E4
:102F0000C0E90065FFF7B8FB002818BFFDF794FC87
:102F1000A07840F2286240F27063C2F20002C2F26E
:102F200000032946FFF79AFF40F2D450C2F2000096
:102F300000F066FE40B106F548404FF400710122F2
:102F4000BDE87040FDF794BF002000F04BFE40F25A
:102F5000D450C2F20000BDE8704001F005B800BFD7
:102F6000B004000060090000C012000080250000CD
:102F700000C2010010B540F24C14C2F20004B4F8D3
:102F80005200012818BF10BDD4F84E004FEA30405F
:102F90002060FDF7A7FB0020A4F8520040F6004493
:102FA000C4F2010420464FF400710122FDF760FFD6
:102FB0004620FDF743FD20464FF400710022BDE896
:102FC0001040FDF755BF0000B0B540F24C15C2F2FD
:102FD0000005B5F85A00022818D0012821D140F682
:102FE0000044C4F2010420464FF400710122FDF7B1
:102FF0003FFF4620FDF722FD20464FF400710022DE
:103000000024FDF735FFA5F85A40B0BD40F600405A
:10301000C4F201004FF400710122FDF729FFB5F859
:103020005A00032818BFB0BD40F60040C4F20100AA
:103030004FF400710022BDE8B040FDF719BF000059
:10304000B0B540F60044C4F2010420461021FDF75B
:1030500009FF40F24C15C2F2000530B9B5F8540032
:10306000002804BF0120A5F85400A4F580604FF4A7
:103070000041FDF7F7FE30B9B5F85600002804BF4F
:103080000120A5F8560020460821FDF7EBFE002898
:1030900018BFB0BDB5F85800002804BF0120A5F83E
:1030A0005800B0BD2DE9F0438BB000204FF0000870
:1030B00000F098FD40F24C17C2F20007F88845F680
:1030C0001319002808BF202039898DF82000002915
:1030D00008BF202178898DF82110002808BF202002
:1030E000B9898DF82200002908BF2021F8898DF8C0
:1030F0002310002808BF2020398A8DF824000029D9
:1031000008BF2021788A8DF82510002808BF2020CC
:10311000B98A8DF82600002908BF2021F88A8DF889
:103120002710002808BF2020398B8DF8280000299F
:1031300008BF2021788B8DF82910002808BF202097
:10314000C0F600096C4608AE8DF82A002046202102
:103150004A4633468DF82B80FDF73AF801200021CE
:1031600000F0FAFE40F20805C2F20005D5E90012AF
:103170002046012301F0DAF9B88B4A46002808BF3F
:103180002020F98B8DF82000002908BF2021388CE1
:103190008DF82110002808BF2020798C8DF822009E
:1031A000002908BF2021B88C8DF82310002808BF03
:1031B0002020F98C8DF82400002908BF2021388DAB
:1031C0008DF82510002808BF2020798D8DF8260065
:1031D000002908BF2021B88D8DF82710002808BFCE
:1031E0002020F98D8DF82800002908BF2021388E75
:1031F0008DF82910002808BF20208DF82A002046CD
:10320000202133468DF82B80FCF7E2FF01201221AC
:1032100000F0A2FED5E900122046012301F086F954
:10322000788E4A46002808BF2020B98E8DF82000ED
:10323000002908BF2021F88E8DF82110002808BF32
:103240002020398F8DF82200002908BF2021788F97
:103250008DF82310002808BF2020B98F8DF8240096
:10326000002908BF2021F88F8DF82510002808BFFD
:103270002020B7F840108DF82600002908BF202133
:10328000B7F842008DF82710002808BF2020B7F8B3
:1032900044108DF82800002908BF2021B7F8460007
:1032A0008DF82910002808BF20208DF82A0020461C
:1032B000202133468DF82B80FCF78AFF0120242142
:1032C00000F04AFED5E900122046012301F02EF954
:1032D00040F2D450C2F2000000F046FE0BB0BDE850
:1032E000F083000070470000FDF76ABF70470000E0
:1032F00040F22860C2F20000FEF7DEBC406A002106
:10330000C185C184FEF7F6BE406A00212022C18536
:1033100080F842200163FEF7ADBD0000406A002145
:10332000C184202180F84110FEF76CBE81B090F876
:103330004210222920D18368B3F5805F08D101694A
:10334000002957D000F128010A6803685B680AE089
:10335000014651F8282F13B90369002BF5D00368F3
:103360005B6803F07F0313700A6801320A60C18D45
:1033700001390A04C18501D001B070470168CA68EB
:1033800022F02002CA60CA6822F48072CA604A69C8
:1033900022F001024A61202280F84220002242638A
:1033A000036B012B30D1026351E8031F026821F047
:1033B000100142E803135BB3016851E8031F026880
:1033C00021F0100142E8031313B3016851E8031F11
:1033D000026821F0100142E80313CBB1016851E803
:1033E000031F026821F0100142E8031383B1016852
:1033F000DAE700BF0168826A49686FF35F2122F84B
:10340000021B8262B3E700BF01B0FFF71BBA00BF27
:1034100001680A68D20606D5002200920A68009266
:10342000496800910099818D01B0FEF721BD00002F
:1034300040F27060C2F20000FEF75EBEFEE70000E0
:1034400010B540F21404C2F20004207801281CBF19
:10345000062010BD00F060FA0020207010BD0000B2
:10346000B0B50C460988052924D10279511E7C2962
:103470004FF0030126D8B0F8015000F1020C2BBA2E
:10348000002525800170218855000131218045707B
:1034900020884FF0010E0EEB13410130208089B2DD
:1034A0006046002300F04CFA40B1BDE8B04000F0A7
:1034B0008BBB00BF03210846B0BD00BF20880021A0
:1034C000284420800846B0BDB0B50C4640F2F80153
:1034D000C2F2000131F8025B01302A46FCF730FFEE
:1034E000691C00202180B0BD80B5098805291CBF5A
:1034F000032080BDB0F80110012209BA02EB11418E
:10350000033089B20122012300F01AFA20B1BDE88C
:10351000804000F059BB00BF002080BD10B50C46B4
:103520000988062920D30279417902F07F03B1EBA3
:10353000430F4FF003011ED1C37842EA0322531E0A
:103540009BB2772B17D8B0F80110012309BA03EB0F
:103550001141063089B292B2012300F0F1F938B17D
:10356000BDE8104000F030BB0321084610BD00BF8D
:10357000052000212080084610BD0000B0B584461B
:10358000A1F1F80008284FF0020001D2B0BD00BF41
:103590000029FBD040F22C10C2F20000BCF1000F59
:1035A00001701CBF0220B0BDDDF810C044F2557E92
:1035B00044F6610444F2F175C0F6000EC0F6000452
:1035C000C0F60005C0E902E40561084611461A4646
:1035D000634600F0EDF8002818BFB0BD01F07AF89E
:1035E00040B140F21400C2F200000121017000203D
:1035F000B0BD00BF0320B0BD10B582B040F21400D2
:10360000C2F20000007818B1062002B010BD00BF61
:103610000DF1070001F04EF8012840F0C6809DF83A
:10362000070002281AD0012840F0BF8040F22C1475
:10363000C2F20004601C04F11401221D00F0E4F841
:10364000002840F0B280607818B12178884240F0BC
:10365000AC80022001F046F8A7E000BF40F22C1435
:10366000C2F2000440F218026069C2F2000211784E
:1036700003780029A37073D0994201D100217AE028
:10368000117A00296CD0994202D1012173E000BF68
:10369000117C002964D0994202D102216BE000BF65
:1036A000117E00295CD0994202D1032163E000BF62
:1036B00092F82010002953D0994201D104215AE0F8
:1036C00092F8281000294BD0994201D1052152E0EF
:1036D00092F83010002943D0994201D106214AE0E6
:1036E00092F83810E1B3994202D1072143E000BFBC
:1036F00092F84010A1B3994202D108213BE000BFEB
:1037000092F8481061B3994202D1092133E000BF19
:1037100092F8501021B3994202D10A212BE000BF48
:1037200092F85810E1B1994202D10B2123E000BF79
:1037300092F86010A1B1994202D10C211BE000BFA8
:1037400092F8681061B1994202D10D2113E000BFD7
:1037500092F8701021B1994204D10E210BE000BF04
:1037600001210EE092F878C00121BCF1000F08D0D1
:103770009C4506D10F2102EBC1014A68211D9047EB
:103780000146607888B159B1A078626940F0800044
:103790000123A3801070A0886269431CA380115488
:1037A00020786169A28800F07BF8002002B010BD8B
:1037B00070B51D4614460E46FDF732F830462146D8
:1037C00008222B4600F0AAFF012805D1B4F5964F38
:1037D00008D923200DE000BF0324FDF733F8E0B241
:1037E00070BD00BF47F6A0716000C0F21701B1FBC9
:1037F000F0F080B200F0A6FF441E18BF0324FDF7CE
:1038000021F8E0B270BD00002DE9F0411546884670
:103810000646FDF705F840F22014C2F20004608865
:10382000B0F5807F20D26088042808D340F2EA6790
:103830006188C2F20007384600F096FE30B10524D8
:10384000FDF700F82046BDE8F08100BF17F8010B36
:1038500030706088002403382880C8F80070FCF7B6
:10386000F1FF2046BDE8F08145F6F50102A0C0F663
:1038700000019B22FCF724FD757352637642756646
:10388000666572506F73203C204D425F5345525F16
:103890005044555F53495A455F4D41580000000060
:1038A0002DE9F04114460D460646FCF7B9FF40F2FB
:1038B0002017C2F200073878012827D1681E4FF080
:1038C0000108B860A7F8048005F8016CB9882144A4
:1038D000B980B98800F048FEB98800244A1CBA8033
:1038E00040F2EA62C2F200025054B988000A4B1C4E
:1038F000BB8050540020012187F8018000F09AFE1F
:10390000FCF7A0FF2046BDE8F08100BF0524FCF7CE
:1039100099FF2046BDE8F08180B5FCF781FF40F2B9
:103920002010C2F20000002101700120002100F0EF
:1039300081FE00F0B1FEBDE88040FCF783BF0000CF
:1039400070B55418342C84BF012070BD40F2BA14F5
:10395000C2F200042488012BA1EB04011CD0002B2F
:1039600042D1002A00F0D68040F2501CA2F1010E94
:1039700012F00304C2F2000C38D00CEB41035B7868
:10398000012C03701CF81130437001F1010337D191
:10399000023072468CE000BF40F2B813C2F200035E
:1039A0000124002A1C7000F0B58012F00304A2F17B
:1039B000010C1DD0037840F2501E1D02C2F2000E11
:1039C0002EF811504578012C45EA03232EF81130CA
:1039D00001F1010322D1023062461FFA8CF1032962
:1039E000C0F098802EE000BF022070BD0B465FE063
:1039F0000B461FFA8CF10329C0F08C8022E000BF37
:103A00000CEB43056D78022C85701CF81330C370E5
:103A100001F1020342D10430023A49E08578022CD8
:103A20004FEA05262EF81360C67846EA05252EF8DB
:103A3000135001F102035DD10430023A1FFA8CF1F8
:103A4000032967D340F25011C2F2000101EB430198
:103A50000839083810F8083F043A1D0221F8085FB9
:103A6000457845EA03230B8083781D024D80C57895
:103A700045EA03234B8003791D028D80457945EA91
:103A800003238B8083791D02CD80C57945EA03230A
:103A90001504CB80DED1002070BD00BF0CEB4304C9
:103AA0006478033A04711CF8133043710630CB1C60
:103AB0001FFA8EF103293CBF002070BD0CEB4301BF
:103AC000083908384B7A043A00F8083F11F8083FE3
:103AD00015044370CB7883708B78C3704B79037176
:103AE0000B794371CB7983718B79C371EAD1002053
:103AF00070BD00BF0479033A25022EF813504579B2
:103B0000063045EA04242EF81340CB1C1FFA8CF132
:103B1000032997D2002070BD90B0FDF75FFB002411
:103B20000120CDE90B44CDE9094406900A904FF4F9
:103B3000E0104FF4803102250F9006A80594CDE9DE
:103B40000344CDE90144CDE90714CDE90D51FDF75A
:103B5000F3FC28B1EFF3108072B600BFFEE700BFA0
:103B60000F20CDE901054FF48060CDE9040401A8E0
:103B700002210394FDF7D8FB20B1EFF3108072B659
:103B8000FEE700BFFFF788F8FFF7E8F8FFF746F910
:103B9000FFF706F9FFF77EF9FFF784FA40F2B81451
:103BA000C2F20004002503E0FFF70EFAFFF748FA1F
:103BB000FFF722FD20780128F6D1FFF773FAFFF70F
:103BC000D9F92570F0E70000002804BF00207047F5
:103BD000072804BF06207047012814BF04200220D4
:103BE0007047000080B50246002840F2BC10C2F2C7
:103BF00000004FF4826118BFFF22FCF7E6FB80BD96
:103C00002DE9F04F85B004466420FCF717FFAE2085
:103C10008DF813004FF00A0901250DF11307204616
:103C2000782100220123CDE90075CDF808904FF0EE
:103C30000008FDF7E5F906464FF0200A20467821F6
:103C4000002201238DF813A0CDE90075CDF808906E
:103C5000FDF7D6F906444FF0100B204678210022DC
:103C600001238DF813B0CDE90075CDF80890FDF76C
:103C7000C7F90644B0208DF81300204678210022B1
:103C80000123CDE90075CDF80890FDF7B9F9064498
:103C9000C8208DF813002046782100220123CDE9A9
:103CA0000075CDF80890FDF7ABF906442046782161
:103CB000002201238DF81380CDE90075CDF808901E
:103CC000FDF79EF9064420467821002201238DF855
:103CD00013B0CDE90075CDF80890FDF791F90644D1
:103CE00040208DF813002046782100220123CDE9E1
:103CF0000075CDF80890FDF783F9064481208DF812
:103D000013002046782100220123CDE90075CDF86B
:103D10000890FDF775F90644FF208DF81300204642
:103D2000782100220123CDE90075CDF80890FDF738
:103D300067F90644A1208DF813002046782100225F
:103D40000123CDE90075CDF80890FDF759F9064437
:103D5000A6208DF813002046782100220123CDE90A
:103D60000075CDF80890FDF74BF90644A8208DF8B2
:103D700013002046782100220123CDE90075CDF8FB
:103D80000890FDF73DF906443F208DF813002046CA
:103D9000782100220123CDE90075CDF80890FDF7C8
:103DA0002FF90644A4208DF8130020467821002224
:103DB0000123CDE90075CDF80890FDF721F90644FF
:103DC000D3208DF813002046782100220123CDE96D
:103DD0000075CDF80890FDF713F9064420467821C8
:103DE000002201238DF81380CDE90075CDF80890ED
:103DF000FDF706F90644D5208DF8130020467821FA
:103E000000220123CDE90075CDF80890FDF7F8F800
:103E10000644F0208DF8130020467821002201236B
:103E2000CDE90075CDF80890FDF7EAF80644D920F1
:103E30008DF813002046782100220123CDE900757A
:103E4000CDF80890FDF7DCF8064422208DF8130029
:103E50002046782100220123CDE90075CDF8089095
:103E6000FDF7CEF80644DA208DF8130020467821BD
:103E700000220123CDE90075CDF80890FDF7C0F8C8
:103E8000064412208DF813002046782100220123D9
:103E9000CDE90075CDF80890FDF7B2F80644DB20B7
:103EA0008DF813002046782100220123CDE900750A
:103EB000CDF80890FDF7A4F80644204678210022AA
:103EC00001238DF813A0CDE90075CDF80890FDF71A
:103ED00097F806448D208DF81300204678210022A3
:103EE0000123CDE90075CDF80890FDF789F8064467
:103EF00014208DF813002046782100220123CDE9FB
:103F00000075CDF80890FDF77BF80644AF208DF8DA
:103F100013002046782100220123CDE90075CDF859
:103F20000890FDF76DF8C64211D140F2BC10C2F204
:103F300000004FF48261FCF750FA204600F014F8BC
:103F400040F24410C2F200000025C0F8028028466A
:103F500005B0BDE8F08F000040F24412C2F200024A
:103F600050809180704700002DE9F04F85B040F2FD
:103F7000BC160446C2F200060A2701250DF11308FB
:103F80004FF064094FF0820A4FF0000BABF1500084
:103F90008DF811000DF11100CDE9000520467821C2
:103FA000002201230297FDF72BF800208DF8120064
:103FB0000DF11200CDE900052046782100220123F1
:103FC0000297FDF71DF810208DF813002046782188
:103FD00000220123CDE900850297FDF711F8204664
:103FE000782140220123CDE9006ACDF80890FDF741
:103FF00007F80BF1010BBBF1080F06F18206C5D1E2
:1040000005B0BDE8F08F00002DE9F04F8EB040F212
:104010004417C2F20007B7F802C0CDB205EB0C0698
:10402000812E07D8B7F804E0C1F3072404EB0E078C
:104030003F2F03D900200EB0BDE8F08F002CCDF843
:1040400020E0009605920290CDF824C000F0648232
:104050000298B3FA83F220386043049040F244108F
:10406000C2F200000078520900281CBF134601204C
:1040700050400C9001F0030040F2BC18A5F1010B78
:10408000291A0790401B4FF0000CC2F200080D9156
:1040900003900693CDE90A45CDF804B00BE000BFCC
:1040A00001EA0A0108F800100A9C0CF1010C0B9DB2
:1040B000A44500F03182002DF6D008980CEB0002E8
:1040C000D0B2402808D3BBF1030FEDD3039800BF53
:1040D0000430FDD1E8E700BF04980599604431F849
:1040E000100002F00701012707FA01FEC2F3C40124
:1040F00041EA81118EF0FF0A012B4FEA41020BD1F8
:10410000DDF82490BBF1030F12D200270799002994
:1041100040F02D81C8E700BF099CBBF1030F80F080
:10412000938000270799002940F03981BCE700BF40
:10413000002306E00D991F1DB94205F1010300F0AF
:10414000118100FA03F1090409EB0307F9B209D55B
:10415000812915D8114418F8015045EA0E0508F8D0
:1041600001500DE081290BD88D180C9918F80560C5
:10417000002914BF46EA0E0106EA0A0108F80510F4
:104180005D1C00FA05F1090407F10101C9B209D566
:10419000812915D8114418F8016046EA0E0608F87E
:1041A00001600DE081290BD88E180C9C18F80610C0
:1041B000002C14BF41EA0E0101EA0A0108F80610BA
:1041C000013500FA05F1090407F10201C9B209D568
:1041D000812915D8114418F8016046EA0E0608F83E
:1041E00001600DE081290BD88E180C9C18F8061080
:1041F000002C14BF41EA0E0101EA0A0108F806107A
:10420000013500FA05F1090407F10301C9B20BD524
:1042100081293FF68FAF114418F8016046EA0E0677
:1042200008F8016086E700BF81293FF683AF8E184A
:104230000C9F18F80610002F14BF41EA0E0101EA86
:104240000A0108F8061075E7002306E00D991F1D06
:10425000B94209F1010300F09B8000FA03F109045F
:1042600004EB030B5FFA8BF10AD5812916D81144B0
:1042700018F8015005EA0A0508F801500EE000BFE1
:1042800081290BD88D180C9918F8056000290CBFEE
:1042900006EA0A0146EA0E0108F805105D1C00FA5C
:1042A00005F109040BF10101C9B209D5812915D81D
:1042B000114418F8016006EA0A0608F801600DE0EA
:1042C00081290BD88F180C9918F80760002914BFA2
:1042D00046EA0E0106EA0A0108F80710013500FA5D
:1042E00005F109040BF10201C9B209D5812915D8DC
:1042F000114418F8016006EA0A0608F801600DE0AA
:1043000081290BD88F180C9918F80760002914BF61
:1043100046EA0E0106EA0A0108F8071005F101094C
:1043200000FA09F109040BF10301C9B20AD5812988
:104330003FF68CAF114418F8015005EA0A0508F859
:10434000015083E781293FF681AF8D180C9918F849
:104350000560002914BF46EA0E0106EA0A0108F8C2
:10436000051073E7069B079900293FF49DAE00FAFC
:1043700007F1090409993944C9B221D581292ED8F8
:10438000114418F8013043EA0E0308F8013025E023
:10439000069BDDF804B0079900293FF485AE00FACA
:1043A00007F1090409993944C9B22FD581293CD8AC
:1043B000114418F8013003EA0A0308F8013033E029
:1043C00081290CD88B180C9C18F80310002C14BFF2
:1043D00041EA0E0101EA0A0108F80310069B079959
:1043E00001293FF461AE791C00FA01F31B04099B1B
:1043F0001944C9B230D581293CD8114418F801308C
:1044000043EA0E0308F8013034E000BF81290CD8DC
:104410008B180C9918F80350002914BF45EA0E01B7
:1044200005EA0A0108F80310069B079901293FF4E1
:104430003BAE791C00FA01F31B04099B1944C9B275
:104440002CD5812938D8114418F8013003EA0A0321
:1044500008F8013030E000BF81290BD88B180C9C84
:1044600018F80310002C14BF41EA0E0101EA0A01FA
:1044700008F803100799069B02293FF415AEB91CF2
:104480008840000409980844C0B229D581283FF625
:104490000BAE104418F800102CE000BF81290BD897
:1044A0008B180C9918F80350002914BF45EA0E0127
:1044B00005EA0A0108F803100799069B02293FF450
:1044C000F3ADB91C8840000409980844C0B215D562
:1044D00081283FF6E9AD104418F80010E0E500BF70
:1044E00081283FF6E1AD10440C9A18F80010002A1C
:1044F0003FF4D6AD41EA0E01D4E500BF81283FF676
:10450000D3AD0C99104418F80020002914BF42EADA
:104510000E0102EA0A01C5E540F244100099C2F218
:104520000000418002980EB0BDE8F08FF0B581B078
:104530001C460378A3B115460E46471CD8B2314637
:104540002A462346FFF760FD17F8011C884204D174
:1045500017F8013B002BF1D10021084601B0F0BD56
:104560000021084601B0F0BD91B170B54A1E92B26B
:1045700045F2826345F2827E01F0030C032AC0F605
:104580000003C0F6000E09D2FF21FF222AE000BF7F
:10459000FF214FF47F40084380B2704721F00304AD
:1045A000FF21FF2210F8045B043C69405D5C10F8B9
:1045B000036C6A4072401EF801109D5C10F8026C9A
:1045C000694071401EF802205D5C10F8016C6A4081
:1045D00072401EF801109D5C1EF80220260481EA3C
:1045E0000501DFD1BCF1000F1CD00478BCF1010F34
:1045F00084EA0104195D81EA02011EF8042011D049
:104600004478BCF1020F81EA04015C5C84EA020494
:104610001EF80120E1B205D080784840195C514075
:104620001EF80020D0B20002BDE87040084380B2FE
:1046300070470000B0B540F2C065C2F20005024606
:1046400028680C46B2B140F2E861C2F200010122D2
:10465000FEF7CEF8286894B190F84100202818BFE2
:10466000B0BD40F23810C2F200000068BDE8B040B2
:10467000004700BFFDF700FC2868002CECD1BDE826
:10468000B040FDF7C1BC000040F2BC60C2F20000C7
:104690000068FDF723BA000040F2BC60C2F20000DF
:1046A00040F21C110068C2F2000100224A80FDF7AE
:1046B000EBB9000040F21A12C2F200021378014670
:1046C000012B4FF0000018BF704753780B7010702B
:1046D0000120704740F21A11C2F2000100220120AD
:1046E0000A70704740F21A120146C2F2000201201D
:1046F000107001205170704780B540F2E861C2F23D
:1047000000010A78027040F2C060C2F20000006846
:104710000122FEF76DF8012080BD000001207047E6
:1047200080B540F2C062C2F2000240F2E961126854
:10473000C2F20001087010460122FEF793F8012032
:1047400080BD000040F21C120146C2F200020120AE
:104750001180704710B582B040F22014C2F20004FC
:10476000607878BB0DF10700FFF7C6FF20780328BB
:1047700024D8DFE800F02103112100BF0020608071
:104780009DF8070061884A1C628040F2EA62C2F22A
:104790000002505402200EE06088FF280AD89DF8DD
:1047A000070061884A1C628040F2EA62C2F200029D
:1047B000505401E003202070FFF76EFF002002B08C
:1047C00010BD00BF45F6F50102A0C0F60001E422CD
:1047D000FBF776FD65536E645374617465203D3D4F
:1047E0002053544154455F54585F49444C450000A0
:1047F000B0B540F22015C2F200052878032807D092
:10480000022807D060B90020FFF76CFF044615E0CE
:10481000002413E00120FFF765FF04460EE000BF0F
:10482000287828B12878022804D1002406E000BFA7
:10483000002403E02878032806D10024FFF724FF92
:10484000012120462970B0BD45F6920045F6F501DC
:10485000C0F60000C0F600014FF4AE72FBF730FD69
:10486000F0B581B040F22016C2F20006307801287F
:1048700034D17078012807D018B901200021FFF742
:10488000D9FE002001B0F0BDB08840F60004C4F2AB
:10489000010488B1204610210122FCF7E9FAB06832
:1048A0000078FFF73DFFB0680130B060B088013894
:1048B000B080002001B0F0BD0320FFF713FF0546D4
:1048C000012000210027FFF7B5FE2046102100221D
:1048D0007770FCF7CDFA284601B0F0BD45F6F5013A
:1048E00003A0C0F6000140F21F12FBF7E9FC00BF75
:1048F000655263765374617465203D3D2053544185
:1049000054455F52585F49444C4500000000000088
:10491000000000000102030406070809000000006F
:10492000010203040000000000000000000000007D
:104930000000000000000000000000000000000077
:1049400000000000000000000000000C000C000C43
:10495000000C000C000C000C000C000C000C000CF7
:104960000000000C000C0000000000000000001B14
:10497000001B001B001B001B0000000000000000CB
:104980000000000000000000000000000000000027
:1049900000008019801980198019C07FC07F80199C
:1049A0000033C07FC07F003300330033003300008A
:1049B000000000000000001E003F8075806500744C
:1049C000003C001E00078005806580658075003F03
:1049D000001E0004000400000000007000D840D851
:1049E000C0D880D900730006000C801BC036C0669A
:1049F000C046C00680030000000000000000001E4A
:104A0000003F003300330033001E000CC03CC06682
:104A1000806380618063C03E801C00000000000055
:104A20000000000C000C000C000C000C000000004A
:104A30000000000000000000000000000000000076
:104A400000000000800000010003000600060004D2
:104A5000000C000C000C000C000C000C0004000604
:104A60000006000300018000002000100018000C68
:104A7000000C000400060006000600060006000602
:104A80000004000C000C0018001000200000000CB6
:104A9000002D003F001E0033000000000000000059
:104AA0000000000000000000000000000000000006
:104AB000000000000000000C000C000C000CC0FF07
:104AC000C0FF000C000C000C000C000000000000F7
:104AD00000000000000000000000000000000000D6
:104AE0000000000000000000000000000000000CBA
:104AF000000C00040004000800000000000000009A
:104B000000000000000000000000001E001E000069
:104B10000000000000000000000000000000000095
:104B20000000000000000000000000000000000085
:104B3000000000000000000C000C0000000000005D
:104B40000000000300030003000600060006000644
:104B5000000C000C000C000C0018001800180000DD
:104B6000000000000000001E003F003380618061F3
:104B70008061806D806D8061806180610033003F65
:104B8000001E00000000000000000006000E001ED5
:104B90000036002600060006000600060006000695
:104BA0000006000600060000000000000000001ED5
:104BB000003F807380618061800100030006000C6B
:104BC000001800300060807F807F0000000000003F
:104BD0000000001C003E006300630003000E000E96
:104BE00000038001800180618073003F001E00008F
:104BF0000000000000000006000E000E001E001E57
:104C00000016003600360066807F807F00060006B2
:104C100000060000000000000000007F007F006030
:104C200000600060006E007F806380018001806111
:104C30008073003F001E0000000000000000001E06
:104C4000003F803380610060006E007F8073806170
:104C5000806180618033003F001E00000000000082
:104C60000000807F807F80010003000300060006B3
:104C7000000C000C000C00080018001800180000C0
:104C8000000000000000001E003F80638061806122
:104C90000021001E003F8061806180618061003FD3
:104CA000001E0000000000000000001E003F007316
:104CB0008061806180618073803F801D80018061A0
:104CC0000073003F001E0000000000000000000014
:104CD000000000000000000C000C000000000000BC
:104CE000000000000000000C000C000000000000AC
:104CF000000000000000000000000000000C000C9C
:104D000000000000000000000000000C000C000487
:104D10000004000800000000000000008000800384
:104D2000000E003800600038000E80038000000094
:104D30000000000000000000000000000000000073
:104D40000000807F807F00000000807F807F000067
:104D50000000000000000000000000000000000053
:104D60000000000000400070001C000780010007E8
:104D7000001C007000400000000000000000000067
:104D80000000001F803FC071C060C000C0018003F0
:104D90000007000E000C000C0000000C000C0000CE
:104DA000000000000000001E003F80318071806321
:104DB000806F806D806D806F806700600032003E84
:104DC000001C0000000000000000000E000E001B90
:104DD000001B001B001B80318031803F803F8031F1
:104DE000C060C060C0600000000000000000007CE7
:104DF000007E0063006300630063007E007E00634A
:104E0000806180618063007F007E00000000000000
:104E10000000001E003F8031806100600060006083
:104E200000600060006080618031003F001E000073
:104E3000000000000000007C007F00638063806150
:104E40008061806180618061806100630063007EB9
:104E5000007C0000000000000000807F807F006078
:104E6000006000600060007F007F00600060006004
:104E70000060807F807F0000000000000000807FD5
:104E8000807F0060006000600060007F007F006045
:104E90000060006000600060006000000000000032
:104EA0000000001E003F80318061006000600060F3
:104EB00080638063806180618031803F001E0000DC
:104EC000000000000000806180618061806180617D
:104ED0008061807F807F806180618061806180618E
:104EE00080610000000000000000003F003F000C57
:104EF000000C000C000C000C000C000C000C000C52
:104F0000000C003F003F0000000000000000800196
:104F10008001800180018001800180018001800189
:104F2000806180618073003F001E0000000000006F
:104F30000000C0608061006300660066006C00785D
:104F4000007C00660066006380618061C0600000D4
:104F50000000000000000060006000600060006071
:104F60000060006000600060006000600060807FA2
:104F7000807F0000000000000000C071C071C07B95
:104F8000C07AC06AC06AC06EC064C060C060C060E1
:104F9000C060C060C06000000000000000008071C0
:104FA0008071807980798079806D806D806D806579
:104FB0008067806780678063806300000000000076
:104FC0000000001E003F00338061806180618061CD
:104FD00080618061806180610033003F001E0000BD
:104FE000000000000000007E007F8063806180611F
:104FF00080618063007F007E006000600060006070
:1050000000600000000000000000001E003F0033B0
:10501000806180618061806180618061806580677E
:105020000033803F401E0000000000000000007EB2
:10503000007F8063806180618063007F007E006606
:105040000063006380618061C060000000000000B8
:105050000000000E001F8031803100300038001E3B
:1050600000078003806180618031003F001E0000E6
:10507000000000000000C0FFC0FF000C000C000C8E
:10508000000C000C000C000C000C000C000C000CC0
:10509000000C000000000000000080618061806161
:1050A00080618061806180618061806180618061F8
:1050B0008073003F001E0000000000000000C06080
:1050C000C060C060803180318031001B001B001B3C
:1050D000001B000E000E000E000400000000000087
:1050E0000000C0C0C0C0C0C0C0C0C0C0C0CC804CE8
:1050F000804C805E805280528073806180610000AD
:10510000000000000000C0C0806080610033003BF0
:10511000001E000C000C001E001F003B807180610F
:10512000C0C00000000000000000C0C080618061BD
:1051300000330033001E001E000C000C000C000C9D
:10514000000C000C000C0000000000000000803F7C
:10515000803F8001000300030006000C000C0018D3
:10516000001800300060807F807F00000000000099
:10517000000F000F000C000C000C000C000C000CC9
:10518000000C000C000C000C000C000C000C000CBF
:10519000000F000F0000001800180018000C000C91
:1051A000000C000C000600060006000600030003C9
:1051B0000003000000000000001E001E00060006A4
:1051C00000060006000600060006000600060006AF
:1051D0000006000600060006001E001E0000000C6F
:1051E000000C001E0012003300338061806100005B
:1051F00000000000000000000000000000000000AF
:10520000000000000000000000000000000000009E
:10521000000000000000000000000000000000008E
:10522000E0FF0000000000380018000C0000000043
:10523000000000000000000000000000000000006E
:10524000000000000000000000000000000000005E
:105250000000001F803F80618001801F803F8061CF
:105260008063807FC0380000000000000000006004
:10527000006000600060006E007F8073806180616C
:10528000806180618073007F006E0000000000007C
:1052900000000000000000000000001E003F8073BE
:1052A00080610060006080618073003F001E00002C
:1052B0000000000000008001800180018001801D4D
:1052C000803F807380618061806180618073803FF6
:1052D000801D000000000000000000000000000031
:1052E0000000001E003F00738061807F807F0060AF
:1052F0008071003F001E0000000000000000C00799
:10530000C00F000C000C807F807F000C000C000C94
:10531000000C000C000C000C000C00000000000051
:105320000000000000000000801D803F807380614D
:105330008061806180618073803F801D8001806317
:10534000007F003E00000060006000600060006FB1
:10535000807F807180618061806180618061806117
:105360008061000000000000000000060006000050
:105370000000003E003E0006000600060006000693
:1053800000060006000600000000000000060006FF
:1053900000000000003E003E000600060006000679
:1053A000000600060006000600060046007E003CDF
:1053B00000000060006000600060806100630066C3
:1053C000006C007C0076006300638061C0600000B8
:1053D000000000000000003E003E0006000600063F
:1053E000000600060006000600060006000600068D
:1053F00000060000000000000000000000000000A7
:10540000000080DDC0FFC0CEC0CCC0CCC0CCC0CCC2
:10541000C0CCC0CCC0CC00000000000000000000E8
:10542000000000000000006F807F8071806180615B
:105430008061806180618061806100000000000007
:1054400000000000000000000000001E003F80730C
:1054500080618061806180618073003F001E000078
:10546000000000000000000000000000006E007F4F
:10547000807380618061806180618073007F006ED5
:10548000006000600060006000000000000000009C
:10549000801D803F80738061806180618061807346
:1054A000803F801D8001800180018001000000009C
:1054B0000000000000000067803F0039003000302D
:1054C00000300030003000300030000000000000EC
:1054D00000000000000000000000001E803F80610E
:1054E0000060007F803F80018061007F001E00001F
:1054F0000000000000000000000800180018007FF5
:10550000007F001800180018001800180018801FED
:10551000800F0000000000000000000000000000FC
:105520000000806180618061806180618061806154
:105530008063807F803D00000000000000000000CC
:10554000000000000000C060803180318031001B0D
:10555000001B001B000E000E0006000000000000F3
:105560000000000000000000000080DD80DD80DD24
:1055700000550055005500770077002200220000FA
:10558000000000000000000000000000000080613A
:1055900000330033001E000C000C001E00330033EB
:1055A000806100000000000000000000000000001A
:1055B00080618061803100330033001B001B001BC1
:1055C000000E000E000E001C007C007000000000A9
:1055D000000000000000C07FC07F800100030006C3
:1055E000000C00180030C07FC07F000000000000E9
:1055F0008003800700060006000600060006000E75
:10560000001C001C000E0006000600060006000636
:10561000800780030006000600060006000600065C
:10562000000600060006000600060006000600064A
:1056300000060006000600060038003C000C000CC6
:10564000000C000C000C000E00070007000E000C00
:10565000000C000C000C000C003C003800000000A6
:10566000000000000000000000008038807F00473C
:10567000000000000000000000000000000000002A
:10568000010200C1814001C0804101C0804100C1D0
:10569000814001C0804100C1814000C1814001C002
:1056A000804101C0804100C1814000C1814001C0F2
:1056B000804100C1814001C0804101C0804100C1E2
:1056C000814001C0804100C1814000C1814001C0D2
:1056D000804100C1814001C0804101C0804100C1C2
:1056E000814000C1814001C0804101C0804100C1B2
:1056F000814001C0804100C1814000C1814001C0A2
:10570000804101C0804100C1814000C1814001C091
:10571000804100C1814001C0804101C0804100C181
:10572000814000C1814001C0804101C0804100C171
:10573000814001C0804100C1814000C1814001C061
:10574000804100C1814001C0804101C0804100C151
:10575000814001C0804100C1814000C1814001C041
:10576000804101C0804100C1814000C1814001C031
:10577000804100C1814001C0804101C0804100C121
:10578000814000C0C101C30302C2C60607C705C5E8
:10579000C404CC0C0DCD0FCFCE0E0ACACB0BC90959
:1057A00008C8D81819D91BDBDA1A1EDEDF1FDD1D69
:1057B0001CDC14D4D515D71716D6D21213D311D199
:1057C000D010F03031F133F3F23236F6F737F535E9
:1057D00034F43CFCFD3DFF3F3EFEFA3A3BFB39F919
:1057E000F83828E8E929EB2B2AEAEE2E2FEF2DEDE9
:1057F000EC2CE42425E527E7E62622E2E323E12159
:1058000020E0A06061A163A3A26266A6A767A56568
:1058100064A46CACAD6DAF6F6EAEAA6A6BAB69A9D8
:10582000A86878B8B979BB7B7ABABE7E7FBF7DBDE8
:10583000BC7CB47475B577B7B67672B2B373B17118
:1058400070B05090915193535292965657975595E8
:1058500094549C5C5D9D5F9F9E5E5A9A9B5B995998
:105860005898884849894B8B8A4A4E8E8F4F8D4D68
:105870004C8C4484854587474686824243834181D8
:10588000804002030405060708090A0B0C0D0E0FE1
:1058900010102820655263765374617465203D3D75
:1058A0002053544154455F52585F494E4954202972
:1058B000207C7C20282065526376537461746520B7
:1058C0003D3D2053544154455F52585F524356204A
:1058D00029207C7C2028206552637653746174658E
:1058E000203D3D2053544154455F52585F4552522C
:1058F0004F522029002E2E2F4C6962726172792F2F
:105900004D6F646275732F7274752F6D627274754A
:105910002E630025730000003859000800000020A5
:105920009800000028010008D059000898000020C5
:10593000580D0000440100080100000010000000A4
:105940000B120000244900080024F40002000000AB
:1059500011000000C9340008030000006134000891
:10596000100000001D35000806000000E9340008A2
:105970000000000000000000000000000000000027
:105980000000000000000000000000000000000017
:105990000000000000000000000000000000000007
:1059A00000000000000000000000000000000000F7
:1059B00000000000000000000000000000000000E7
:1059C00000000000000000000000000000000000D7
:04000005080000ED02
:00000001FF
