:020000040800F2
:10000000F00D002091010008552E00088D280008F1
:10001000212E000835060008F93300080000000012
:10002000000000000000000000000000A9320008ED
:100030003906000800000000592E0008AD32000803
:10004000AB010008AB010008AB010008AB010008E0
:10005000AB010008AB010008AB010008AB010008D0
:10006000AB010008AB010008AB010008AB010008C0
:10007000AB010008AB010008AB010008AB010008B0
:10008000AB010008AB010008AB010008AB010008A0
:10009000AB010008AB010008AB010008AB01000890
:1000A000AB010008AB010008AB010008AB01000880
:1000B000AB010008B532000800000000AB010008E9
:1000C000AB0100080000000000000000AB010008C8
:1000D00000000000AB010008ED3300080000000044
:1000E000AB010008AB010008AB01000800F002F80A
:1000F00000F03FF80AA090E8000C82448344AAF183
:100100000107DA4501D100F034F8AFF2090EBAE880
:100110000F0013F0010F18BFFB1A43F0010318473B
:100120006C5700008C570000103A24BF78C878C183
:10013000FAD8520724BF30C830C144BF04680C60ED
:10014000704700000023002400250026103A28BF35
:1001500078C1FBD8520728BF30C148BF0B60704739
:10016000732900F09C81002070471FB51FBD10B59A
:1001700010BD00F0F5F91146FFF7F7FF03F092FC10
:1001800000F013FA03B4FFF7F2FF03BC00F0DAF952
:100190000948804709480047FEE7FEE7FEE7FEE71B
:1001A000FEE7FEE7FEE7FEE7FEE7FEE70448054957
:1001B000054A064B70470000B1320008ED00000808
:1001C000F0070020F00D0020F0090020F0090020C9
:1001D0000FB41CB50C0007AA009001D02044401EAB
:1001E000074B7B4469460190069800F026F9002CE5
:1001F00003D06946002000F033F91CBC5DF814FB05
:10020000850200002DE9F0410E46044600202062E0
:100210002046E168884730B3252805D0D4E901217C
:100220009047206A401CF2E7E16820460027884793
:10023000050018D0A5F14100192802D820354FF447
:1002400000673246294620462760FFF789FF40B104
:10025000012804D0F61D26F007060836D8E7361D1B
:10026000D6E72846DAE7206ABDE8F08170B50C468B
:100270000546012A05D02878800600D5EA690023C2
:1002800002E0012305E05B1C934202D2E05C0028FF
:10029000F9D1A869E618C01AA861286A184428622A
:1002A0002846AFF3008004E0D5E9012114F8010BE2
:1002B0009047B442F8D32846AFF3008070BD0000E9
:1002C0000EB5054614460E4613A000F0F7F8284672
:1002D00000F0F4F816A000F0F1F8304600F0EEF867
:1002E00015A000F0EBF800218DF80B100A210DF19C
:1002F0000A008DF80A1008E094FBF1F201FB1242AB
:1003000094FBF1F4303200F8012D002CF4DC00F005
:10031000D5F800F0C8F800002A2A2A206173736516
:100320007274696F6E206661696C65643A200000C2
:100330002C2066696C6520002C206C696E6520009D
:10034000032A40F2308010F0030C00F0158011F801
:10035000013BBCF1020F624498BF11F801CB00F8D9
:10036000013B38BF11F8013BA2F1040298BF00F82D
:1003700001CB38BF00F8013B11F0030300F0A88067
:10038000083AC0F0088051F8043B083A51F804CB11
:10039000A0E80810F5E7121D5CBF51F8043B40F8D7
:1003A000043BAFF30080D20724BF11F8013B11F8E2
:1003B00001CB48BF11F8012B24BF00F8013B00F826
:1003C00001CB48BF00F8012B704702F0FF0343EA5E
:1003D000032242EA024200F002B84FF0000200B5E8
:1003E000134694469646203922BFA0E80C50A0E858
:1003F0000C50B1F12001BFF4F7AF090728BFA0E806
:100400000C5048BF0CC05DF804EB890028BF40F8D1
:10041000042B08BF704748BF20F8022B11F0804F13
:1004200018BF00F8012B70477047704770470000F5
:1004300001694A1C02610878704700B58FB0CDE9A8
:1004400001310021059105497944CDE90310114698
:100450006846FFF7D7FE0FB000BD0000E5FFFFFFC5
:100460000A6802F8010B0A607047D1E900239A423A
:1004700002D2531C0B601070704710B5436913B162
:10048000AFF3008001E0FFF7F1FE012010BD12780C
:1004900000F124010A7000224A700122EDE7116880
:1004A0004FF0FF32E9E710B5002000F051F8FFF7F8
:1004B0005EFEBDE81040012000F044B810B50446CF
:1004C00002E0641C00F036F820780028F9D110BD55
:1004D00010B5203AC0F00B80B1E81850A0E81850D1
:1004E000B1E81850A0E81850203ABFF4F5AF5FEA21
:1004F000027C24BFB1E81850A0E8185044BF18C9C6
:1005000018C0BDE810405FEA827C24BF51F8043B6C
:1005100040F8043B08BF7047D20728BF31F8023BC0
:1005200048BF11F8012B28BF20F8023B48BF00F854
:10053000012B704708B569468DF800000320ABBE5B
:1005400008BD000001491820ABBEFEE726000200EE
:1005500010B500F039F8BDE8104000F02FB8704732
:10056000754600F049F8AE4605006946534620F04E
:100570000700854618B020B5FFF718FEBDE82040FB
:100580004FF000064FF000074FF000084FF0000B4F
:10059000AC46ACE8C009ACE8C009ACE8C009ACE8BE
:1005A000C00921F007018D46704710B50446AFF32E
:1005B00000802046BDE81040FFF7E4BD002801D0D0
:1005C000FFF7C0BF7047000010B5002102A000F087
:1005D00017F8012010BD0000534947414252543AD8
:1005E0002041626E6F726D616C207465726D696E10
:1005F0006174696F6E000000004870479800002029
:1006000070B505460C460A2000E06D1CFFF792FF0E
:1006100035B128780028F8D102E0641CFFF78AFF82
:1006200014B120780028F8D1BDE870400A20FFF707
:1006300081BF0000FEE7000070470000002240F28A
:10064000CC53B1F5806F92BF012200210020C2F28D
:1006500000031860104659607047000070B540F202
:10066000CC5EC2F2000EDEF80010C9B3DEF8040062
:10067000B0B34FF2E0724FF6014CC1F6FF720023A7
:10068000C0F2FF7C15E000BF1588DE1C00EB85255D
:100690006D78A570DEF80450AE4228BF70BD158895
:1006A000043300EB85208078E070DEF8040083429C
:1006B00016D2148803EB0C0000EB842414F8014CD0
:1006C0005D1CCC54DEF80440A54209D214889E1C5F
:1006D000A402055DCC186570DEF80450AE42D3D399
:1006E00070BD00002DE9F04F85B040F2CC5AC2F247
:1006F000000ADAF800700024FFB14FF2E0794FF6FB
:100700000048C1F6FF79C0F2FF7800F087FA009444
:10071000B9F8000004A908EB8020029001200390A2
:100720000190684600F094F9049E054600F008FA2E
:10073000002D08BF16F1010005D000F001FA204697
:1007400005B0BDE8F08F00F069FADAF80400E8B10E
:1007500000254FF6FF7600BF785B24EA06010C18EF
:10076000B9F8000005EB080101EB802101202246C9
:1007700000F0F0F988B9DAF8041002358D42EBD3B5
:10078000B0FA80F04FEA501479B9D6E7012400F0AE
:10079000D7F9204605B0BDE8F08FDAF80410B0FABA
:1007A00080F000294FEA5014C7D0B9F80020DAF8D9
:1007B000000008EB822BC1F1000EA1F101090BF141
:1007C000030C0BF102080BF1010A0022835C1BF8F9
:1007D0000250AB421BD19145AFD085186B781AF807
:1007E0000260B34213D10EEB02039E1CA5D0AE787B
:1007F00018F80270BE420AD103339ED0EB781CF881
:100800000250AB4203D104329142DFD195E700247C
:1008100000F096F9204605B0BDE8F08FEFF31080A8
:1008200072B640F2B860C2F20000016801310160A6
:1008300070470000EFF3108072B600BFFEE70000C3
:1008400040F2B860C2F2000001680139016018BFCF
:10085000704762B67047000070B542F20C0604465D
:10086000C4F2020600F0FEFA3168C90717D13068F9
:10087000800644BF202030603068C00607D430694D
:10088000C00704D1306840075CBF002070BD3068ED
:10089000C00620D400203168490728D431E0002C5C
:1008A00044D00546601C0DD13068C007DFD03068E9
:1008B000C0071CBF30685FEAC070D8D03068C0077E
:1008C000F2D1D4E700F0CEFA401BA0422ED8306817
:1008D000C007F7D1CBE740F2C860C2F20000C1699F
:1008E00041F00201C16110203168490709D540F289
:1008F000C861C2F20001CA6940F0040042F001027E
:10090000CA613169C90702D13060012070BD40F26F
:10091000C861C2F20001CA6942F00402CA613169C9
:1009200021F0010131613060012070BD032070BDF4
:10093000014690F82100022816D10868D1E90FC3BA
:10094000026822F00E020260026822F001020260D8
:10095000012000FA03F2CCF8042081F821000020E5
:10096000002281F8202070470420886301200022A3
:1009700081F820207047000080B590F821100229EE
:1009800023D10268116821F00E0111602F21136834
:10099000C4F202018A4240F20401C4F2020123F0CF
:1009A0000103136016DD3023C4F202039A421DD006
:1009B0004423C4F202039A421BD05823C4F2020318
:1009C0009A421BD14FF4803320E00421816301213E
:1009D000084680BD0823C4F202039A420CD01C23AF
:1009E000C4F202039A4209D110230FE04FF480733E
:1009F0000CE04FF4805309E0012307E001F1680C9B
:100A00004FF08073624508BF4FF480130B600121E3
:100A100080F82110426B002180F820100AB1904725
:100A20000021084680BD0000B0B5044600F01AFA67
:100A3000054640F20000C2F200000078611C18BFB9
:100A4000044400BF00F00EFA401BA042FAD3B0BD30
:100A50002DE9F04381B040F2C866C2F20006327E52
:100A6000012A03D1022001B0BDE8F0830546012030
:100A70002C6830764CF250308846FFF7EDFE022CA1
:100A80001CD100284ED1002042F21004F061C4F2C3
:100A90000204206840F004002060206840F040001C
:100AA00020604CF25030FFF7D7FE216821F004019E
:100AB00021600021317601B0BDE8F08390BB4FF09A
:100AC000FF30C8F80000D5E9027007EB80208742AC
:100AD00028D242F21004C4F202044FF0000900BF11
:100AE000C6F81C90206840F0020020606760206813
:100AF00040F0400020604CF25030FFF7ADFE21681E
:100B000021F00201216098B9D5E9020107F580675B
:100B100000EB81208742E3D300200021317601B031
:100B2000BDE8F08301200021317601B0BDE8F083FB
:100B3000C8F800700021317601B0BDE8F0830000F4
:100B400042F21001C4F20201086840F08002002065
:100B50000A6070472DE9F04F81B040F2C868C2F2D8
:100B60000008924698F81820012A03D1022001B00B
:100B7000BDE8F08F8146012088F818004CF2503013
:100B80001C460E46FFF768FE28B1002188F81810B1
:100B900001B0BDE8F08F4D4642F21007B9F1020FE7
:100BA00018BF0425C4F20207B9F1010F08BF4D4672
:100BB0006FF01F0900204FF0000B00BF2022002320
:100BC0000101A2EB0012C8F81C3004FA02F22AFA62
:100BD00001F13B68114309EB0012002A58BF24FAC7
:100BE00002F143F001023A6026F810104CF2503046
:100BF000FFF732FE3968002821F001013960C4D1C5
:100C00000BF1010B5FFA8BF08542D7D80020002151
:100C100088F8181001B0BDE8F08F000042F204001F
:100C2000C4F20200C16809065CBF0020704740F2B0
:100C30002311C4F26751016048F6AB11CCF6EF51B5
:100C40000160C068C0F3C010704700002DE9F04F8C
:100C500082B00E68002E00F0F68040F20C4C41F29B
:100C600000024FF6FF7AC4F2010CC4F20102032322
:100C700000240127C1F2100A4FF0000B4FF00009C9
:100C80004FF00F0E904208BF0223009346E040F65B
:100C90000043C4F201039842009B08BF0123BB40FC
:100CA0002B4342F82A30D1F804A040F20046C4F2A7
:100CB00001065FEACA22B26854BF22EA080242EA89
:100CC0000802B260DCF800205FEA8A2354BF22EAFF
:100CD000080242EA0802CCF800205FEA8A33726810
:100CE00054BF22EA080242EA08025FEACA3372608D
:100CF0004FF6FF7A4FF001073268C1F2100A54BF75
:100D000022EA080242EA080232600E680BF1010B87
:100D100036FA0BF204F1040400F0958007FA0BF8A0
:100D200016EA080FF1D04E68564511DC122E51D844
:100D3000DFE806F0340A42465050505050505050B0
:100D40005050505050494D00D1F80C9042E000BF37
:100D50004FF6FF72C1F2210296420FDC0022C1F26F
:100D6000110296421AD00022C1F21202964215D008
:100D70000022C1F22102964210D02BE00022C1F2E3
:100D8000220296420AD00022C1F23102964205D0D8
:100D90000022C1F2320296421CD100BF8A6842B1E1
:100DA000012A14BFC0F81480C0F810804FF0080961
:100DB00010E04FF004090DE0CA6802F1080909E0EB
:100DC0004FF0000906E0CA6802F1040902E0CA68AF
:100DD00002F10C0922460346BBF1080F24BF203A5A
:100DE00004331D680EFA02F6B54309FA02F22A43EB
:100DF0001A60CA79D2067FF588AF41F21803C4F2AF
:100E000002031A684FEA9B0A42F001021A601A684C
:100E100004F00C0702F001020192019A40F2004234
:100E2000C4F20102A2F57E7252F82A3040F60006A2
:100E30000EFA07F5C4F20106B04223EA05057FF475
:100E400026AF00232BE702B0BDE8F08F8068084092
:100E500018BF012070470000002A08BF0904016183
:100E60007047000040F2EC70C2F20000006870476A
:100E700010B5B8B3044690F83D0028B9002084F8B6
:100E80003C00204600F062F9242084F83D002068F0
:100E9000016821F001010160016841F40041016035
:100EA000016821F40041016000F016FB48F2804126
:100EB000C0F21E0140F6001388424FF00001C0F25C
:100EC0003D03D4F804E038BF0121984248F2A16301
:100ED0004FF00002C0F2010338BF01229E4538BF27
:100EE0000A460AB1012010BD4DF68361C4F21B31E0
:100EF000A0FB011221684FEA924C4B6823F03F039C
:100F000043EA92424A600A6A48F2A063C0F20103CF
:100F10009E4522F03F0210D80CF101031A430A62E9
:100F200001384FEA4E02B0FBF2F0CA6901306FF3AC
:100F30001F30042898BF04202CE04FF496730CFB5C
:100F400003FC44F6D353C1F26203ACFB033C012320
:100F500003EB9C131A430A62CA69A36801385BB1A8
:100F600019230EFB03F3B0FBF3F001306FF31F30D6
:100F700068B100F5804007E00EEB4E03B0FBF3F0E4
:100F800001306FF31F3020B100F5004002E0012076
:100F900000E001204CF6FF739A431043C8610868D3
:100FA000D4E9072320F0C000104318430860886884
:100FB00048F2FF3204F10C0E90439EE80C501843A7
:100FC00010438860C86820F0FF0040EA0C0040EA47
:100FD0000E00C860086840F0010008600020202171
:100FE000206484F83D10206384F83E0010BD0000AA
:100FF0002DE9F04383B0994616460F460446FFF7A5
:1010000031FF94F83D10202920D10546206800BF0B
:101010008169890716D5FFF725FF411B20681A292A
:10102000F6D381698907F3D500202021206384F855
:101030003D1084F83E00216C41F02001216484F8C9
:101040003C0003E094F83C10012903D1022003B0D6
:10105000BDE8F083012284F83C200368DDE90B1829
:101060000A9ADB0703D1036843F0010303600368B6
:1010700023F400630360212084F83D00402084F8BD
:101080003E000020206462626185608D39462085C3
:101090000020CFF6FF70E062204632464B46CDF886
:1010A0000080019501F0F4FB18B1012003B0BDE808
:1010B000F083208DA0B9204641462A4601F076FCF7
:1010C00098B3206C0428F0D12068016841F40071C5
:1010D0000160012003B0BDE8F08300BF0004EAD046
:1010E000204641462A4601F043FD0028E9D1616AC5
:1010F0002268084610F8013B1361238D6062581E78
:101100002085678D0604A7F101076785576918BF19
:1011100017F00407E2D048781061881C6062981EBE
:101120002085618D01396185D8E72068016841F427
:1011300000710160202084F83D00002084F83E000A
:1011400084F83C0003B0BDE8F083000010B586B021
:101150000022CDE9042245F200410068C4F20001FA
:1011600088420392029201D006B010BD41F21804E9
:10117000C4F20204206840F008002060206800F0FB
:10118000080001900198C02002901220CDE90302CE
:101190000320059001F5384002A9FFF757FD60686C
:1011A00040F400106060606800F400100190019845
:1011B00006B010BD40F2000040F2EC71C2F2000037
:1011C000C2F2000100780A6810440860704700000D
:1011D00080B542F20000C4F20200016841F0100143
:1011E0000160032000F08AF80F2000F005F800F0FD
:1011F00027F8002080BD000070B540F20006C2F262
:10120000000640F210013278C2F200014FF47A7306
:101210000968B3FBF2F20446B1FBF2F1084600F0B4
:1012200057FB0F2C4FF0010508D838B94FF0FF30AD
:1012300021460022002500F035F87460284670BD74
:1012400082B041F21800C4F202000168022241F0AB
:1012500001010160016801F00101019101994168FA
:1012600041F080514160406800F08050009000984B
:101270000420C4F20100016862F31A61016002B047
:1012800070470000002848BF704700F01F0101228E
:1012900002FA01F14EF200124009CEF2000242F8C9
:1012A0002010704710B54EF60C5CCEF2000CDCF846
:1012B0000030C3F3022E8EF00704042C28BF042450
:1012C000BEF103034FF0FF3E0EFA04F438BF0023D3
:1012D000A14399400EFA03F39A4300F00F03043B35
:1012E0001143634409010C3300F16042B0F1FF3F48
:1012F000C8BF02F56443197010BD00004EF60C51D2
:10130000CEF200010A684FF6FF031A4060F30A228A
:1013100042F0806040F0FD70086070472DE9F043B6
:1013200081B0002800F0858042F20008C4F2020873
:101330000446D8F800000D4600F0070088420CD2A1
:10134000D8F8000020F007002843C8F80000D8F8BB
:10135000000000F00700A8426BD1206841F20409A8
:101360008107C4F2020917D5410705D5D9F8001045
:1013700041F4E061C9F80010010705D5D9F8001063
:1013800041F46051C9F80010D9F80010A26821F0AA
:10139000F0011143C9F80010C00741D1D8F800008E
:1013A00000F00700A8420CD9D8F8000020F0070090
:1013B0002843C8F80000D8F8000000F00700A84251
:1013C00037D12068410707D5D9F80010E26821F429
:1013D000E0611143C9F80010000708D5D9F80000F2
:1013E000216920F4605040EAC100C9F80000D9F832
:1013F000002002F00C00082841F20020C0F27A0020
:101400004ED145F2F673C2F38341C0F60003595C36
:10141000D20339D440F60010C0F23D0048433FE00B
:101420006068022809D0012829D159F8041C8903D1
:1014300007D4012001B0BDE8F08359F8041C8901EC
:10144000F7D5D9F8001021F003010843C9F80000CE
:10145000FFF708FD064641F2883700BFD9F80000C3
:10146000616800F00C00B0EB810F97D0FFF7FAFC39
:10147000801BB842F2D9032001B0BDE8F08359F8CF
:10148000041C8907D5D5DCE7D9F8002045F2F453D0
:10149000C2F34042C0F600039A5C4843B0FBF2F04E
:1014A000D9F8001044F68002C1F30311C0F600021F
:1014B000515C40F2100220FA01F140F20400C2F245
:1014C00000000068C2F200021160FFF795FE0020E4
:1014D00001B0BDE8F083000040F2100041F20401C9
:1014E000C2F20000C4F202010068096844F69002EA
:1014F000C1F30221C0F60002515CC84070470000F1
:1015000040F2100041F20401C2F20000C4F20201F4
:101510000068096844F69002C1F3C221C0F60002D7
:10152000515CC840704700002DE9F04182B00028AE
:1015300068D00446007841F20006C007C4F20206F3
:1015400025D0706800F00C0004281BD0706800F0F3
:101550000C00082802D17068C00313D4606800280A
:1015600000F06281B0F5A02F00F07681B0F5803FE9
:1015700000F07681306820F480303060306820F4EC
:10158000802070E13068800301D56068D0B3207896
:10159000800718D5706810F00C0F07D0706800F045
:1015A0000C0008286DD17068C0036AD430688007C9
:1015B00002D52069012825D13068616920F0F80042
:1015C00040EAC1003060207800071FD4207840072F
:1015D00032D4E56995B1706800F00C00082840F03D
:1015E0008D80012D0ED07068216A00F480328A420D
:1015F00008D1616A00F47010884203D1002002B063
:10160000BDE8F081012002B0BDE8F081A0690028AA
:1016100060D00020C4F242200121C0F88014FFF7FE
:1016200021FC0546706A800700F18A80FFF71AFCEA
:10163000401B0228F6D924E1F06910F0805808D147
:10164000F06940F08050F061F06900F08050009047
:10165000009847F20007C4F200073868C00527D495
:10166000386840F480703860FFF7FCFB054600BF27
:101670003868C0051CD4FFF7F5FB401B6428F7D978
:10168000FFE02069002840F20000C4F2422000F090
:10169000818001210160FFF7E5FB05463068800786
:1016A0003FF58AAFFFF7DEFB401B0228F6D9E8E0E2
:1016B000E068002800F08080052800F0968001286E
:1016C00000F09780306A20F001003062306A20F02C
:1016D000040091E00020C4F242200021C0F88014F0
:1016E000FFF7C0FB054600BF706A80077FF56EAF4D
:1016F000FFF7B8FB401B0228F6D9C2E00027C4F26E
:10170000422700203866FFF7ADFB022D05460BD1BE
:101710003068800140F1B980FFF7A4FB401B02282C
:101720004FF00300F4D96AE7306880017FF566AFB7
:10173000FFF798FB401B02284FF00300F4D95EE747
:1017400040F21000C2F20000006844F6D351C1F22A
:101750006201A0FB0101480A019000BF00BF01988F
:10176000411E002801913FF431AF00BF0198411E96
:10177000002801913FF42AAF00BF0198411E0028C4
:1017800001913FF423AF00BF0198411E0028019151
:10179000E4D11BE700210160FFF764FB054600BFB1
:1017A000306880077FF50FAFFFF75CFB401B022816
:1017B0004FF00300F4D922E7306A20F001003062D4
:1017C000306A20F004003062FFF74CFB054641F21E
:1017D000883700BF306A80071DD5FFF743FB401BE9
:1017E000B8424FF00300F5D909E7306A40F0040031
:1017F0003062306A40F001003062FFF733FB05468B
:1018000041F28837306A800705D4FFF72BFB401B75
:10181000B842F7D935E0B8F1000F7FF4DAAEF069DD
:1018200020F08050F061D4E6306820F480303060E1
:10183000306820F480203060FFF714FB054600BFBD
:10184000306880037FF5A3AEFFF70CFB401B6428D4
:101850004FF00300F4D9D2E6306840F480203060C5
:10186000306840F480303060FFF7FCFA054600BF76
:10187000306880033FF58BAEFFF7F4FA401B642815
:10188000F6D9032002B0BDE8F081206AB0F5803FB0
:1018900005D17168A26821F400311143716071684B
:1018A000626A21F4741110430843706001203866A5
:1018B000FFF7D8FA044600BF306880013FF59EAEBE
:1018C000FFF7D0FA001B02284FF00300F4D996E688
:1018D000411E0020B0EB116F1CBF012070474EF27B
:1018E0001002CEF2000251604EF62351CEF20001FA
:1018F000F0230B7007219060116070477047000063
:101900007047000010B590F83C20012A4FF0020209
:1019100028D0012380F83C3080F83D200268D2F8BE
:1019200004E0D2F808C00C682EF070032343B2F133
:10193000804F53600BD042F60043C4F201039A4239
:1019400005D040F20043C4F200039A4204D1496832
:101950002CF08003194391600121002280F83D1092
:1019600080F83C20104610BD002804BF01207047BD
:1019700010B5044690F83D0028B9002084F83C00DA
:10198000204600F051F8022084F83D00206842F61D
:10199000004C0268B0F1804FC4F2010C18BF6045E2
:1019A00004D1A36822F070021A4305E040F200431C
:1019B000C4F200039842F4D0B0F1804F18BF6045E4
:1019C00004D1236922F440721A4305E040F2004337
:1019D000C4F200039842F4D0A16922F08002D4F846
:1019E00004E0E368114360450160C362C0F828E089
:1019F00002D16169CCF8301001214161002084F8E6
:101A0000461084F83E1084F83F1084F8401084F8A3
:101A1000411084F8421084F8431084F8441084F88C
:101A2000451084F83D1010BD80B582B0006840F2CA
:101A30000041C4F2000188421CBF02B080BD41F2E7
:101A40001C00C4F202000168002241F002010160A2
:101A50000068002100F00200019001981D20FFF7AE
:101A600021FC1D2002B0BDE88040FFF70BBC000048
:101A700090F83D1001291CBF01207047022180F819
:101A80003D100068C168B0F1804F41F00101C160B4
:101A90000BD042F60041C4F20101884205D040F269
:101AA0000041C4F20001884206D1816801F00701BB
:101AB000062904BF00207047016841F00101016060
:101AC000002070470146006841F21113C26822F0FD
:101AD0000102C260026A1A4204D00122002081F889
:101AE0003D207047026A40F244431A42F5D1026831
:101AF00022F0010202600122002081F83D2070479F
:101B000080B590F83C20012A4FF0020200F0C2801C
:101B1000012380F83C3080F83D20D0F800C04FF61B
:101B20007772DCF8083023EA0202CCF808200B6850
:101B30004F2B28DC1F2B43DD202B44D0302B42D0F1
:101B4000402B40F0A980D1F804E0C968DCF82030CF
:101B5000DCF8202022F00102CCF82020DCF818204C
:101B600022F0F00242EA011123F00A0242EA0E02D8
:101B7000CCF81810CCF82020DCF8081041F0470110
:101B800021F030017DE06F2B25DDB3F5005F46D0FD
:101B9000B3F5805F77D0702B7ED1D1E901E3C968BE
:101BA000DCF8082043EA0E0322F47F4243EA0121D5
:101BB0001143CCF80810DCF8081041F0770160E020
:101BC0000BB1102B68D1DCF8081021F0700119431B
:101BD00041F0070155E0502B34D0602B5CD1D1F897
:101BE00004E0C968DCF82030DCF8202022F0100284
:101BF000CCF82020DCF8182022F4704242EA0131AF
:101C000023F0A00242EA0E12CCF81810CCF82020E3
:101C1000DCF8081041F0670121F0100131E0D1E952
:101C200001E3C968DCF8082043EA0E0322F47F428E
:101C300043EA01211143CCF80810DCF8081041F404
:101C400080411EE0D1F804E0C968DCF82030DCF8FF
:101C5000202022F00102CCF82020DCF8182022F00D
:101C6000F00242EA011123F00A0242EA0E02CCF825
:101C70001810CCF82020DCF8081041F0570121F0B2
:101C80002001CCF808100022012180F83D1000212D
:101C900080F83C10104680BD0122F5E77047000037
:101CA00010B5016804460869800744BFC8685FEA48
:101CB000807038D40869400744BFC8685FEA407044
:101CC0003DD40869000744BFC8685FEA007043D488
:101CD0000869C00644BFC8685FEAC06048D40869A4
:101CE000C0071CBFC8685FEAC0704ED10869000613
:101CF00044BFC8685FEA00604FD40869400644BF2B
:101D0000C8685FEA406050D40869800646BFC8686A
:101D10005FEA806010BD6FF0200220460A61BDE8D6
:101D20001040FFF7EDBD6FF0020008610120207741
:101D30008869800741D02046FFF7B0FF43E06FF08D
:101D40000400086102202077886910F4407F3ED0AB
:101D50002046FFF7A3FF40E06FF008000861042071
:101D60002077C86980073CD02046FFF797FF3EE008
:101D70006FF01000086108202077C86910F4407FD8
:101D800039D02046FFF78AFF3BE06FF00100086181
:101D9000204600F03FF82168A8E76FF08000086156
:101DA0002046FFF7ABFD2168A7E76FF04000086110
:101DB000204600F04BF82168A6E7204600F026F800
:101DC000204600F025F821680020207772E72046A1
:101DD00000F01CF8204600F01BF821680020207756
:101DE0006FE7204600F012F8204600F011F8216855
:101DF000002020776CE7204600F008F8204600F02D
:101E000007F821680020207769E70000704700008C
:101E10007047000040F2BC61C2F20001096800682E
:101E20000968884218BF704740F21C10C2F20000D7
:101E30004188028801318BB29342418005D140F242
:101E40003C10C2F200000068004770477047000075
:101E5000704700007047000010B50446206850E845
:101E6000030F216820F4907041E80302BAB32068A0
:101E700050E8030F216820F4907041E8030272B328
:101E8000206850E8030F216820F4907041E80302B5
:101E90002AB3206850E8030F216820F4907041E8CD
:101EA0000302002ADAD11AE0206850E8050F216801
:101EB00020F0010041E80502DAB1206850E8050F82
:101EC000216820F0010041E8050292B1206850E845
:101ED000050F216820F0010041E805024AB12068A1
:101EE00050E8050F216820F0010041E80502002AB2
:101EF000DAD1206B012824D1206850E8030F216833
:101F000020F0100041E80302DAB1206850E8030F26
:101F1000216820F0100041E8030292B1206850E8E7
:101F2000030F216820F0100041E803024AB1206845
:101F300050E8030F216820F0100041E80302002A56
:101F4000DAD12068416949060AD400202021E085C1
:101F500084F8421020632046FFF77CFF002010BD6C
:101F600050E8050F216820F0400041E80502E2B189
:101F7000206850E8050F216820F0400041E8050284
:101F80009AB1206850E8050F216820F0400041E830
:101F9000050252B1206850E8050F216820F040008A
:101FA00041E805020AB12068DAE7E06B68B143F264
:101FB000CD21C0F600014163FEF7DEFC0028CDD044
:101FC000E06B416B8847002010BD00202021E08598
:101FD00084F8421020632046FFF73CFF002010BD2C
:101FE0007047000010B50446206850E8030F2168D0
:101FF00020F0C00041E80302DAB1206850E8030F86
:10200000216820F0C00041E8030292B1206850E846
:10201000030F216820F0C00041E803024AB12068A4
:1020200050E8030F216820F0C00041E80302002AB5
:10203000DAD12068416909060AD40020E084202012
:1020400084F841002046FFF7CBFF002010BD00BF01
:1020500050E8050F216820F0800041E80502E2B158
:10206000206850E8050F216820F0800041E8050253
:102070009AB1206850E8050F216820F0800041E8FF
:10208000050252B1206850E8050F216820F0800059
:1020900041E805020AB12068DAE7A06B68B143F2B3
:1020A000E121C0F600014163FEF766FC0028CCD0B8
:1020B000A06B416B8847002010BD0020E0842020E9
:1020C00084F841002046FFF78BFF002010BD000080
:1020D00070470000B0B582B0056804462968EA6818
:1020E000686901F02F03202B02F0200306D12BB1E9
:1020F000204602B0BDE8B04001F0FAB85FEA017CCA
:102100001EBF00F0010E02F4907010EB0E002ED1F5
:10211000236B02EA0100C10617D5012B15D100205F
:1021200001902868019068680190019868694006EC
:1021300027D4A08DE18DE28D002A1CBF411A5FEAF1
:10214000014040F0D28102B0B0BD010600F1D28062
:102150004006F8D5E868202120F04000E8602046DD
:1021600084F8411002B0BDE8B04000F07FBBC80762
:1021700018BF12F4807040F0D080480700F1D3807F
:10218000D8E0E06B01684A6893B2002BDBD0A18DE8
:102190008B42D8D2E2858069202800F0A08055E8E3
:1021A000030F216820F4807041E80302F2B1206837
:1021B00050E8030F216820F4807041E80302AAB1BF
:1021C000206850E8030F216820F4807041E8030282
:1021D00062B1206850E8030F216820F4807041E864
:1021E00003021AB1206850E8030FDAE7206850E8CC
:1021F000050F216820F0010041E80502BAB320680C
:1022000050E8050F216820F0010041E8050272B393
:10221000206850E8050F216820F0010041E8050220
:102220002AB3206850E8050F216820F0010041E83A
:102230000502002ADAD11AE0206850E8050F21686B
:1022400020F0400041E80502DAB1206850E8050FAF
:10225000216820F0400041E8050292B1206850E872
:10226000050F216820F0400041E805024AB12068CE
:1022700050E8050F216820F0400041E80502002ADF
:10228000DAD1202084F8420000202063206850E842
:10229000030F216820F0100041E80302DAB1206842
:1022A00050E8030F216820F0100041E8030292B1CA
:1022B000206850E8030F216820F0100041E8030275
:1022C0004AB1206850E8030F216820F0100041E86F
:1022D0000302002ADAD1E06BFEF72AFBA18D02206F
:1022E0006063E08D081A81B2204602B0BDE8B040BC
:1022F000FFF7AEBD94F8410021287FF424AFA06819
:10230000B0F5805F03D12069002800F08581206A44
:10231000411C21620078686085E1606C40F001003A
:102320006064480706D5BEF1000F03D0606C40F032
:1023300002006064880706D5BEF1000F03D0606C10
:1023400040F004006064BCF1000F06D55EEA0300B3
:1023500003D0606C40F008006064606C00283FF4BB
:10236000F2AE02EA0100800603D5204600F0C0FF6D
:1023700025686869616C00F0400001F008014018B0
:1023800000F0AC8055E8030F216820F4907041E81C
:102390000302D2B3206850E8030F216820F4907044
:1023A00041E803028AB3206850E8030F216820F453
:1023B000907041E8030242B3206850E8030F21689F
:1023C00020F4907041E80302FAB1206850E8030F4E
:1023D000DAE700BF206850E8050F216820F001000F
:1023E00041E80502DAB1206850E8050F216820F0C5
:1023F000010041E8050292B1206850E8050F21680C
:1024000020F0010041E805024AB1206850E8050FBC
:10241000216820F0010041E80502002ADAD1206B92
:10242000012824D1206850E8030F216820F0100013
:1024300041E80302DAB1206850E8030F216820F078
:10244000100041E8030292B1206850E8030F2168B0
:1024500020F0100041E803024AB1206850E8030F61
:10246000216820F0100041E80302002ADAD1202080
:1024700084F842000020206320684169490640F149
:10248000C58050E8050F216820F0400041E80502B2
:10249000002A00F0A980206850E8050F216820F08C
:1024A000400041E80502002A00F09E80206850E8C4
:1024B000050F216820F0400041E80502002A00F0E5
:1024C0009380206850E8050F216820F0400041E823
:1024D0000502002A00F088802068D2E72046FFF736
:1024E000F7FD0020606402B0B0BD55E8030F22681C
:1024F00020F4907042E80303CBB3206850E8030F48
:10250000226820F4907042E8030383B3206850E807
:10251000030F226820F4907042E803033BB3206865
:1025200050E8030F226820F4907042E80303F3B1EF
:10253000206850E8030FDAE7206850E8050F2268AA
:1025400020F0010042E80503DBB1206850E8050FE8
:10255000226820F0010042E8050393B1206850E8AA
:10256000050F226820F0010042E805034BB1206806
:1025700050E8050F226820F0010042E80503002B17
:10258000DAD1202084F8420000202063206850E83F
:10259000030F226820F0100042E80303DBB120683B
:1025A00050E8030F226820F0100042E8030393B1C3
:1025B000206850E8030F226820F0100042E803036F
:1025C0004BB1206850E8030F226820F0100042E869
:1025D0000303002BDAD1022289B22046626302B0E3
:1025E000BDE8B040FFF734BCE06B78B143F2C121E5
:1025F000C0F600014163FEF7BFF900283FF4A3AD28
:10260000E06B416B02B0BDE8B0400847204602B025
:10261000BDE8B040FFF75CBD206A30F8021B6FF3E5
:102620005F2169602062E08C01380104E0847FF45E
:102630008AADE86820F08000E860E86840F040007B
:10264000E86002B0B0BD0000002804BF0120704760
:1026500010B5044690F8410028B9002084F84000E5
:10266000204600F05FF8242084F841002068D4E977
:102670000212C36823F40053C360036923F4405378
:102680001A430261D4E904231143C268194341F299
:102690000C639A431143C1604169A26921F44071FE
:1026A000114343F60002C4F201029042416102D09C
:1026B000FEF712FF01E0FEF723FF6268192148438D
:1026C0009100B0FBF1F048F21F51C5F2EB11A0FBF5
:1026D00001235A096FF0630302FB0300322303EB6B
:1026E0000010A0FB0101F02303EA5113206803EB63
:1026F0000212C1F3431111448160016921F4904138
:102700000161416921F02A014161C16841F4005130
:10271000C16000202021606484F8411084F84210D8
:10272000606310BD70B586B0002640F600040596C3
:10273000CDE90366C4F201040068A4F5444188426F
:10274000029601D006B070BD41F21800C4F202003A
:10275000416802AD41F400314160416801F400314B
:1027600001910199016841F0040101600068294666
:1027700000F00400019001980420029002200390D0
:10278000032005902046FEF761FA0820CDE90206F5
:10279000204629460496FEF759FA262000210022F9
:1027A000FEF780FD2620FEF76DFD26200021002289
:1027B000FEF778FD2620FEF765FD06B070BD00002F
:1027C00090F84230202B1CBF0220704700294FF0A8
:1027D000010318BF002A01D1184670470023036384
:1027E000816222218285C285436480F8421001699A
:1027F000006819B1C16841F48071C160416900236A
:1028000041F001014161C16841F02001C1601846F9
:102810007047000040F2C061C2F200010968006820
:102820000968884218BF704740F23410C2F20000B5
:1028300000680047034690F8410020281CBF022092
:10284000704700294FF0010018BF002A00D17047DF
:102850001962002021219A84DA84586483F8411097
:102860001968CA6842F08002CA60704740F2C061CD
:10287000C2F20001096800680968884218BF704701
:1028800040F23810C2F2000000680047FEE7000086
:102890002DE9F04381B00446006890460268099E25
:1028A00042F4807202604269089D9946D2070F4641
:1028B0003CD1691C30D065B9FEF7D4FA2068416973
:1028C000C9070FD04169C907F6D02FE04169C90790
:1028D0002CD1FEF7C7FA811B2068A942F6D94169BD
:1028E000C907F3D100212022216384F83D2084F818
:1028F0003E10226C42F02002226484F83C100068F2
:10290000C00544BF4FF400702064032001B0BDE84F
:10291000F0834169C90709D14169C90706D14169F5
:10292000C90704BF41695FEAC171F2D007F0FE0137
:1029300001610221C0F2010120462A46334600F01F
:10294000A1F818B1012001B0BDE8F083002000908B
:1029500020683246416900918069294600900098BC
:10296000204600F005F958B1206C0428EAD120680F
:10297000016841F400710160012001B0BDE8F083FD
:10298000B9F1010F0AD020684FEA182101612046F1
:102990002946324600F0ECF80028E5D120685FFABD
:1029A00088F10161002001B0BDE8F08370B50368D3
:1029B000044653F8140F40072DD40E46481C24D06B
:1029C0005EBB00BF1868400549D4FEF74BFA236888
:1029D00053F8140F400733D518684007F2D51AE0B2
:1029E000186840053BD41868400714D4186840059F
:1029F00035D4186840070ED4186840052FD41868DD
:102A000040074FF0000048BF70BD1868400526D44D
:102A100018684007E4D5002070BD154604E000BFEB
:102A200053F8140F4007F6D41868400517D4FEF782
:102A300019FA401B2368B042F2D958694007EFD415
:102A400000202021206384F83D1084F83E00216C92
:102A500041F02001216484F83C00012070BD6FF436
:102A60008060186000202021206384F83D1084F8E5
:102A70003E00216C41F00401216484F83C000120F7
:102A800070BD0000F0B581B01D460368044658696A
:102A90008FB23840B84202D1002001B0F0BD1646D6
:102AA000002A48D0701C23D15869400546D4586983
:102AB0003840B842F0D0586940053FD45869384092
:102AC000B842E9D05869400538D458693840B8420E
:102AD000E2D05869400531D458693840B8424FF0C7
:102AE0000000E1D142E000BF58693840B8423CD014
:102AF0005869400522D4FEF7B5F9401B2368B0425F
:102B0000F2D958693840B842EED000202021206325
:102B100084F83D1084F83E00216C41F020011EE055
:102B2000FEF7A0F9236858693840B842EDD15869DA
:102B30003840B842B0D058694005F1D51868202116
:102B400040F4007018606FF48060586100202063CA
:102B500084F83D1084F83E00216C41F004012164AA
:102B600084F83C00012001B0F0BD002001B0F0BDB0
:102B700070B50368044653F8140F00062DD40E46B2
:102B8000481C24D05EBB00BF1868400549D4FEF73E
:102B900069F9236853F8140F000633D51868000646
:102BA000F2D51AE0186840053BD41868000614D422
:102BB0001868400535D4186800060ED4186840051A
:102BC0002FD4186800064FF0000048BF70BD186889
:102BD000400526D418680006E4D5002070BD1546CF
:102BE00004E000BF53F8140F0006F6D4186840053F
:102BF00017D4FEF737F9401B2368B042F2D9586961
:102C00000006EFD400202021206384F83D1084F8D2
:102C10003E00216C41F02001216484F83C00012039
:102C200070BD6FF48060186000202021206384F85C
:102C30003D1084F83E00216C41F00401216484F8C9
:102C40003C00012070BD000040F2BC61C2F20001F6
:102C50000860704740F2C061C2F20001086070472E
:102C60002DE9F04784B041F21800C4F20200016877
:102C700040F6000541F0200101600168C4F2010541
:102C800001F02001009100990168002241F0040147
:102C900001600168102601F00401009100990168AB
:102CA0004FF0000941F0080101600068102100F0B8
:102CB0000800009000982846FEF7CEF805F58064DD
:102CC00020464FF4007100224FF40078FEF7C4F85C
:102CD00000966E4601274FF0020A28463146CDE99C
:102CE0000179CDF80CA0FDF7B1FF4FF40040CDE91C
:102CF0000009284631460297FDF7A8FF3820CDE9A4
:102D00000009204631460297FDF7A0FF20463146D4
:102D1000CDE90087CDE9029AFDF798FF04B0BDE840
:102D2000F087000080B540F2D45045F20041C2F275
:102D30000000C4F2000148F2A06200234FF4804C6E
:102D4000C0F2010280E80E00C0E9033CC0E905338F
:102D5000C0E90733FEF78CF8002808BF80BDBDE846
:102D60008040FDF767BD000080B586B040F2286066
:102D700040F200420021C2F20000C4F200024723E8
:102D80004FF0320CCDE90411CDE90211CDE900116B
:102D9000C0E90023C0E9021C01618161FEF7E4FD86
:102DA000002818BFFDF746FD4FF48050029040F216
:102DB0002860C2F2000002A9FEF7A2FE002818BF98
:102DC000FDF738FD0020CDE9000040F22860C2F296
:102DD00000006946FEF796FD002818BFFDF72AFDA2
:102DE00006B080BD80B540F2706044F20041C2F28E
:102DF0000000C4F2000100234FF00C0C4FF41652F7
:102E000080E80E00C0E90333C0E905C3C361FFF7E2
:102E10001BFC002808BF80BDBDE88040FDF70ABD4F
:102E2000FEE7000070B582B0064610461C460D460F
:102E3000FFF70AFF2046FFF70DFF00240020314670
:102E400000222B46009400F073FB02B0BDE87040F6
:102E500000F0D4BAFEE700007047000070B540F201
:102E60004C14C2F20004201D6821FDF7B6FA20467A
:102E70000421FDF7E3FBFDF7F1FB2088062803D3CF
:102E800003202080FDF72EFC6088B0F5807F04D3FE
:102E900002206080FDF726FC60882188A4F84E009F
:102EA0000429A4F8501004D808B21EA151F82050EB
:102EB00001E04FF4165544F2004640F27060C4F24F
:102EC0000006C2F20000C0E90065FFF7BDFB002864
:102ED00018BFFDF7AFFCA07840F2286240F27063A3
:102EE000C2F20002C2F200032946FFF79BFF40F244
:102EF000D450C2F2000000F049FE40B106F548404F
:102F00004FF400710122BDE87040FDF7A5BF00201D
:102F100000F02EFE40F2D450C2F20000BDE8704036
:102F200000F0E8BFB004000060090000C01200001B
:102F30008025000000C2010010B540F24C14C2F21E
:102F40000004B4F85200012818BF10BDD4F84E0098
:102F50004FEA30402060FDF7C5FB0020A4F8520086
:102F600040F60044C4F2010420464FF400710122EF
:102F7000FDF772FF4620FDF757FD20464FF4007124
:102F80000022BDE81040FDF767BF0000B0B540F279
:102F90004C15C2F20005B5F85A00022818D00128D5
:102FA00021D140F60044C4F2010420464FF40071E0
:102FB0000122FDF751FF4620FDF736FD20464FF474
:102FC000007100220024FDF747FFA5F85A40B0BD6C
:102FD00040F60040C4F201004FF400710122FDF7F9
:102FE0003BFFB5F85A00032818BFB0BD40F60040BB
:102FF000C4F201004FF400710022BDE8B040FDF7BB
:103000002BBF0000B0B540F60044C4F201042046D6
:103010001021FDF71BFF40F24C15C2F2000530B93C
:10302000B5F85400002804BF0120A5F85400A4F509
:1030300080604FF40041FDF709FF30B9B5F8560044
:10304000002804BF0120A5F8560020460821FDF7FE
:10305000FDFE002818BFB0BDB5F85800002804BF19
:103060000120A5F85800B0BD2DE9F0438BB0002039
:103070004FF0000800F07CFD40F24C17C2F2000750
:10308000F88845F68709002808BF202039898DF87F
:103090002000002908BF202178898DF82110002800
:1030A00008BF2020B9898DF82200002908BF2021FF
:1030B000F8898DF82310002808BF2020398A8DF860
:1030C0002400002908BF2021788A8DF825100028C7
:1030D00008BF2020B98A8DF82600002908BF2021CA
:1030E000F88A8DF82710002808BF2020398B8DF82A
:1030F0002800002908BF2021788B8DF8291000288E
:1031000008BF2020C0F600096C4608AE8DF82A00E2
:10311000204620214A4633468DF82B80FDF758F88B
:103120000120002100F0DEFE40F20805C2F2000599
:10313000D5E900122046012301F0B8F9B88B4A46C0
:10314000002808BF2020F98B8DF82000002908BF37
:103150002021388C8DF82110002808BF2020798C80
:103160008DF82200002908BF2021B88C8DF823108B
:10317000002808BF2020F98C8DF82400002908BF02
:103180002021388D8DF82510002808BF2020798D4A
:103190008DF82600002908BF2021B88D8DF8271052
:1031A000002808BF2020F98D8DF82800002908BFCD
:1031B0002021388E8DF82910002808BF20208DF896
:1031C0002A002046202133468DF82B80FDF700F899
:1031D0000120122100F086FED5E9001220460123CD
:1031E00001F064F9788E4A46002808BF2020B98E85
:1031F0008DF82000002908BF2021F88E8DF82110BD
:10320000002808BF2020398F8DF82200002908BF30
:103210002021788F8DF82310002808BF2020B98F37
:103220008DF82400002908BF2021F88F8DF8251083
:10323000002808BF2020B7F840108DF8260000298C
:1032400008BF2021B7F842008DF82710002808BFDA
:103250002020B7F844108DF82800002908BF20214D
:10326000B7F846008DF82910002808BF20208DF8F7
:103270002A002046202133468DF82B80FCF7A8FF3A
:103280000120242100F02EFED5E900122046012362
:1032900001F00CF940F2D450C2F2000000F02AFE16
:1032A0000BB0BDE8F083000070470000FDF782BF5F
:1032B0007047000040F22860C2F20000FEF7F0BC48
:1032C000406A0021C185C184FEF702BF406A002127
:1032D0002022C18580F842200163FEF7BBBD0000BB
:1032E000406A0021C184202180F84110FEF778BE99
:1032F00081B090F84210222920D18368B3F5805F15
:1033000008D10169002956D000F128010A68036834
:103310005B680AE0014651F8282F13B90369002BB6
:10332000F5D003685B6803F07F0313700A6801320D
:103330000A60C18D01390A04C18501D001B070470E
:103340000168CA6822F02002CA60CA6822F480724A
:10335000CA604A6922F001024A61202280F84220B4
:1033600000224263036B012B2ED1026351E8031F3D
:10337000026821F0100142E8031343B3016851E8E9
:10338000031F026821F0100142E80313FBB101683A
:1033900051E8031F026821F0100142E80313B3B1A2
:1033A000016851E8031F026821F0100142E803138D
:1033B0006BB10168DAE70168826A49686FF35F21DF
:1033C00022F8021B8262B4E701B0FFF723BA01685A
:1033D0000A68D20606D5002200920A68009249685F
:1033E00000910099818D01B0FEF732BD40F270600E
:1033F000C2F20000FEF76EBEFEE7000010B540F21C
:103400001404C2F20004207801281CBF062010BD5D
:1034100000F04AFA0020207010BD0000B0B50C4644
:103420000988052923D10279511E7C294FF0030117
:1034300024D8B0F8015000F1020C2BBA00252580E9
:1034400001702188550001312180457020884FF09E
:10345000010E0EEB13410130208089B2604600233B
:1034600000F036FA30B1BDE8B04000F073BB032184
:103470000846B0BD20880021284420800846B0BD01
:10348000B0B50C4640F2F801C2F2000131F8025B1F
:1034900001302A46FCF754FF691C00202180B0BD92
:1034A00080B5098805291CBF032080BDB0F8011034
:1034B000012209BA02EB1141033089B20122012332
:1034C00000F006FA18B1BDE8804000F043BB0020D0
:1034D00080BD000010B50C460988062920D302796A
:1034E000417902F07F03B1EB430F4FF003011DD18F
:1034F000C37842EA0322531E9BB2772B16D8B0F84A
:103500000110012309BA03EB1141063089B292B2CE
:10351000012300F0DDF930B1BDE8104000F01ABB26
:103520000321084610BD052000212080084610BD5B
:10353000B0B58446A1F1F80008284FF0020000D28F
:10354000B0BD0029FCD040F22C10C2F20000BCF14A
:10355000000F01701CBF0220B0BDDDF810C044F2A6
:10356000D16E44F2D57444F26975C0F6000EC0F60F
:103570000004C0F60005C0E902E4056108461146F2
:103580001A46634600F0DEF8002818BFB0BD01F00F
:103590005FF838B140F21400C2F20000012101705E
:1035A0000020B0BD0320B0BD10B582B040F21400C1
:1035B000C2F20000007810B1062002B010BD0DF17B
:1035C000070001F035F8012840F0B9809DF80700A8
:1035D000022819D0012840F0B28040F22C14C2F227
:1035E0000004601C04F11401221D00F0D5F800282D
:1035F00040F0A580607818B12178884240F09F8023
:10360000022001F02DF89AE040F22C14C2F20004DE
:1036100040F218026069C2F20002117803780029B2
:10362000A37067D0994201D100216EE0117A002980
:1036300060D0994201D1012167E0117C002959D065
:10364000994201D1022160E0117E002952D09942B5
:1036500001D1032159E092F8201000294AD0994263
:1036600001D1042151E092F82810002942D099425A
:1036700001D1052149E092F83010D9B3994201D126
:10368000062142E092F83810A1B3994201D10721F6
:103690003BE092F8401069B3994201D1082134E02F
:1036A00092F8481031B3994201D109212DE092F8E6
:1036B0005010F9B1994201D10A2126E092F8581030
:1036C000C1B1994201D10B211FE092F8601089B17C
:1036D000994201D10C2118E092F8681051B1994239
:1036E00001D10D2111E092F8701019B1994203D166
:1036F0000E210AE001210EE092F878C00121BCF110
:10370000000F08D09C4506D10F2102EBC1014A6889
:10371000211D90470146607888B159B1A07862694F
:1037200040F080000123A3801070A0886269431CD0
:10373000A380115420786169A28800F079F80020F4
:1037400002B010BD70B51D4614460E46FDF766F872
:103750003046214608222B4600F09EFF012804D166
:10376000B4F5964F06D923200BE00324FDF768F843
:10377000E0B270BD47F6A0716000C0F21701B1FB66
:10378000F0F080B200F09CFF441E18BF0324FDF748
:1037900057F8E0B270BD00002DE9F04115468846AB
:1037A0000646FDF73BF840F22014C2F200046088A0
:1037B000B0F5807F1FD26088042808D340F2EA6702
:1037C0006188C2F20007384600F08EFE28B1052459
:1037D000FDF736F82046BDE8F08117F8010B307090
:1037E0006088002403382880C8F80070FDF728F8A6
:1037F0002046BDE8F08145F6690103A0C0F600014E
:103800009B22FCF75DFD00BF7573526376427566BF
:10381000666572506F73203C204D425F5345525F86
:103820005044555F53495A455F4D415800000000D0
:103830002DE9F04114460D460646FCF7EFFF40F235
:103840002017C2F200073878012826D1681E4FF0F1
:103850000108B860A7F8048005F8016CB988214414
:10386000B980B98800F040FEB98800244A1CBA80AB
:1038700040F2EA62C2F200025054B988000A4B1CBE
:10388000BB8050540020012187F8018000F092FE97
:10389000FCF7D6FF2046BDE8F0810524FCF7D0FFF9
:1038A0002046BDE8F081000080B5FCF7B7FF40F28C
:1038B0002010C2F20000002101700120002100F060
:1038C00079FE00F0A7FEBDE88040FCF7B9BF00001C
:1038D00070B55418342C84BF012070BD40F2BA1466
:1038E000C2F200042488012BA1EB04011BD0002BA1
:1038F00040D1002A00F0D38040F2501CA2F1010E0A
:1039000012F00304C2F2000C36D00CEB41035B78DA
:10391000012C03701CF81130437001F1010334D104
:103920000230724689E040F2B813C2F2000301246B
:10393000002A1C7000F0B38012F00304A2F1010C05
:103940001CD0037840F2501E1D02C2F2000E2EF869
:1039500011504578012C45EA03232EF8113001F16E
:10396000010320D1023062461FFA8CF10329C0F016
:1039700096802CE0022070BD0B465EE00B461FFADD
:103980008CF10329C0F08B8021E00CEB43056D78AE
:10399000022C85701CF81330C37001F1020342D170
:1039A0000430023A49E08578022C4FEA05262EF8C9
:1039B0001360C67846EA05252EF8135001F102037C
:1039C0005DD10430023A1FFA8CF1032967D340F22B
:1039D0005011C2F2000101EB43010839083800BF61
:1039E00010F8083F043A1D0221F8085F457845EABF
:1039F00003230B8083781D024D80C57845EA03239D
:103A00004B8003791D028D80457945EA03238B8025
:103A100083791D02CD80C57945EA03231504CB8047
:103A2000DED1002070BD0CEB43046478033A0471CE
:103A30001CF8133043710630CB1C1FFA8EF103299A
:103A40003CBF002070BD0CEB43010839083800BFB3
:103A50004B7A043A00F8083F11F8083F1504437008
:103A6000CB7883708B78C3704B7903710B7943717A
:103A7000CB7983718B79C371EAD1002070BD047951
:103A8000033A25022EF813504579063045EA0424FE
:103A90002EF81340CB1C1FFA8CF1032997D200207B
:103AA00070BD000090B0FDF793FB002401204FF49F
:103AB0008031CDE90B44CDE909440690CDE90714E6
:103AC0000A9002254FF4E010CDE90D510F9006A8A1
:103AD0000594CDE90344CDE90144FDF725FD20B16E
:103AE000EFF3108072B600BFFEE70F20CDE90105AD
:103AF0004FF480600394CDE9040401A80221FDF78E
:103B00000DFC20B1EFF3108072B600BFFEE7FFF7A7
:103B1000A7F8FFF707F9FFF765F9FFF725F9FFF7B2
:103B20009DF9FFF7A1FA40F2B814C2F20004002593
:103B300004E000BFFFF72AFAFFF764FAFFF734FD4D
:103B400020780128F6D1FFF78FFAFFF7F5F92570F5
:103B5000F0E70000002804BF00207047072804BFDA
:103B600006207047012814BF04200220704700007F
:103B700080B50246002840F2BC10C2F200004FF4AB
:103B8000826118BFFF22FCF720FC80BD2DE9F04FB9
:103B900085B004466420FCF747FFAE208DF8130083
:103BA0004FF00A0901250DF1130720467821002264
:103BB0000123CDE90075CDF808904FF00008FDF71E
:103BC00017FA06464FF0200A2046782100220123EA
:103BD0008DF813A0CDE90075CDF80890FDF708FA2F
:103BE00006444FF0100B20467821002201238DF867
:103BF00013B0CDE90075CDF80890FDF7F9F906444A
:103C0000B0208DF813002046782100220123CDE951
:103C10000075CDF80890FDF7EBF90644C8208DF843
:103C200013002046782100220123CDE90075CDF84C
:103C30000890FDF7DDF90644204678210022012393
:103C40008DF81380CDE90075CDF80890FDF7D0F917
:103C5000064420467821002201238DF813B0CDE9D7
:103C60000075CDF80890FDF7C3F9064440208DF8A3
:103C700013002046782100220123CDE90075CDF8FC
:103C80000890FDF7B5F9064481208DF81300204611
:103C9000782100220123CDE90075CDF80890FDF7C9
:103CA000A7F90644FF208DF8130020467821002252
:103CB0000123CDE90075CDF80890FDF799F9064488
:103CC000A1208DF813002046782100220123CDE9A0
:103CD0000075CDF80890FDF78BF90644A6208DF805
:103CE00013002046782100220123CDE90075CDF88C
:103CF0000890FDF77DF90644A8208DF813002046B2
:103D0000782100220123CDE90075CDF80890FDF758
:103D10006FF906443F208DF81300204678210022D9
:103D20000123CDE90075CDF80890FDF761F906444F
:103D3000A4208DF813002046782100220123CDE92C
:103D40000075CDF80890FDF753F90644D3208DF89F
:103D500013002046782100220123CDE90075CDF81B
:103D60000890FDF745F906442046782100220123FA
:103D70008DF81380CDE90075CDF80890FDF738F97E
:103D80000644D5208DF81300204678210022012317
:103D9000CDE90075CDF80890FDF72AF90644F0202A
:103DA0008DF813002046782100220123CDE900750B
:103DB000CDF80890FDF71CF90644D9208DF81300C2
:103DC0002046782100220123CDE90075CDF8089026
:103DD000FDF70EF9064422208DF8130020467821C5
:103DE00000220123CDE90075CDF80890FDF700F918
:103DF0000644DA208DF813002046782100220123A2
:103E0000CDE90075CDF80890FDF7F2F806441220D0
:103E10008DF813002046782100220123CDE900759A
:103E2000CDF80890FDF7E4F80644DB208DF8130088
:103E30002046782100220123CDE90075CDF80890B5
:103E4000FDF7D6F8064420467821002201238DF89C
:103E500013A0CDE90075CDF80890FDF7C9F8064428
:103E60008D208DF813002046782100220123CDE912
:103E70000075CDF80890FDF7BBF8064414208DF8C6
:103E800013002046782100220123CDE90075CDF8EA
:103E90000890FDF7ADF80644AF208DF813002046DA
:103EA000782100220123CDE90075CDF80890FDF7B7
:103EB0009FF8C64211D140F2BC10C2F200004FF48C
:103EC0008261FCF78AFA204600F014F840F24410B0
:103ED000C2F200000025C0F80280284605B0BDE807
:103EE000F08F000040F24412C2F200025080918034
:103EF000704700002DE9F04F85B040F2BC16044633
:103F0000C2F200060A2701250DF113084FF06409DB
:103F10004FF0820A4FF0000BABF150008DF811000A
:103F20000DF11100CDE90005204678210022012382
:103F30000297FDF75DF800208DF812000DF11200D8
:103F4000CDE9000520467821002201230297FDF7E4
:103F50004FF810208DF8130020467821002201230D
:103F6000CDE900850297FDF743F8204678214022ED
:103F70000123CDE9006ACDF80890FDF739F80BF17F
:103F8000010BBBF1080F06F18206C5D105B0BDE8F3
:103F9000F08F00002DE9F04F8EB040F24417C2F2CE
:103FA0000007B7F802C0CDB205EB0C06812E07D88A
:103FB000B7F804E0C1F3072404EB0E073F2F03D941
:103FC00000200EB0BDE8F08F002CCDF820E0009668
:103FD00005920290CDF824C000F05D820298B3FAF9
:103FE00083F220386043049040F24410C2F2000093
:103FF0000078520900281CBF1346012050400C9045
:1040000001F0030040F2BC18A5F1010B291A07903A
:10401000401B4FF0000CC2F200080D910390069374
:10402000CDE90A45CDF804B00BE001EA0A0108F831
:10403000001000BF0A9C0CF1010C0B9DA44500F080
:104040002A82002DF6D008980CEB0002D0B240284E
:1040500008D3BBF1030FEDD3039800BF0430FDD1AB
:10406000E8E700BF04980599604431F8100002F0B9
:104070000701012707FA01FEC2F3C40141EA8111D9
:104080008EF0FF0A012B4FEA41020AD1DDF824909D
:10409000BBF1030F10D200270799002940F02B81B4
:1040A000C8E7099CBBF1030F80F0928000270799B5
:1040B000002940F03881BDE7002306E00D991F1D5F
:1040C000B94205F1010300F0118100FA03F109047E
:1040D00009EB0307F9B209D5812915D8114418F85D
:1040E000015045EA0E0508F801500DE081290BD872
:1040F0008D180C9918F80560002914BF46EA0E01C6
:1041000006EA0A0108F805105D1C00FA05F1090429
:1041100007F10101C9B209D5812915D8114418F850
:10412000016046EA0E0608F801600DE081290BD80F
:104130008E180C9C18F80610002C14BF41EA0E01D2
:1041400001EA0A0108F80610013500FA05F1090430
:1041500007F10201C9B209D5812915D8114418F80F
:10416000016046EA0E0608F801600DE081290BD8CF
:104170008E180C9C18F80610002C14BF41EA0E0192
:1041800001EA0A0108F80610013500FA05F10904F0
:1041900007F10301C9B20BD581293FF68FAF114456
:1041A00018F8016046EA0E0608F8016086E700BFCD
:1041B00081293FF683AF8E180C9F18F80610002F48
:1041C00014BF41EA0E0101EA0A0108F8061075E77A
:1041D000002306E00D991F1DB94209F1010300F00B
:1041E0009B8000FA03F1090404EB030B5FFA8BF1E7
:1041F0000AD5812916D8114418F8015005EA0A0594
:1042000008F801500EE000BF81290BD88D180C99D9
:1042100018F8056000290CBF06EA0A0146EA0E01FB
:1042200008F805105D1C00FA05F109040BF1010105
:10423000C9B209D5812915D8114418F8016006EAD8
:104240000A0608F801600DE081290BD88F180C9937
:1042500018F80760002914BF46EA0E0106EA0A01B1
:1042600008F80710013500FA05F109040BF1020105
:10427000C9B209D5812915D8114418F8016006EA98
:104280000A0608F801600DE081290BD88F180C99F7
:1042900018F80760002914BF46EA0E0106EA0A0171
:1042A00008F8071005F1010900FA09F109040BF1FA
:1042B0000301C9B20AD581293FF68CAF114418F821
:1042C000015005EA0A0508F8015083E781293FF605
:1042D00081AF8D180C9918F80560002914BF46EAC3
:1042E0000E0106EA0A0108F8051073E7069B079914
:1042F00000293FF49FAE00FA07F1090409993944F7
:10430000C9B221D581292ED8114418F8013043EAC9
:104310000E0308F8013025E0069BDDF804B007998C
:1043200000293FF487AE00FA07F1090409993944DE
:10433000C9B22ED581293BD8114418F8013003EABF
:104340000A0308F8013032E081290CD88B180C9C44
:1043500018F80310002C14BF41EA0E0101EA0A010B
:1043600008F80310069B079901293FF463AE791CF6
:1043700000FA01F31B04099B1944C9B22ED5812907
:104380003AD8114418F8013043EA0E0308F8013016
:1043900032E081290CD88B180C9918F803500029A9
:1043A00014BF45EA0E0105EA0A0108F80310069B4E
:1043B000079901293FF43EAE791C00FA01F31B0472
:1043C000099B1944C9B22AD5812936D8114418F855
:1043D000013003EA0A0308F801302EE081290BD8E6
:1043E0008B180C9C18F80310002C14BF41EA0E0126
:1043F00001EA0A0108F803100799069B02293FF415
:1044000019AEB91C8840000409980844C0B227D5E9
:1044100081283FF60FAE104418F800102AE08129D9
:104420000BD88B180C9918F80350002914BF45EAD3
:104430000E0105EA0A0108F803100799069B0229F4
:104440003FF4F8ADB91C8840000409980844C0B294
:1044500013D581283FF6EEAD104418F80010E4E5BE
:1044600081283FF6E7AD10440C9A18F80010002A96
:104470003FF4DBAD41EA0E01D9E581283FF6DAAD24
:104480000C99104418F80020002914BF42EA0E01CC
:1044900002EA0A01CBE540F244100099C2F20000A2
:1044A000418002980EB0BDE8F08F0000F0B581B0F9
:1044B0001C460378A3B115460E46471CD8B23146B8
:1044C0002A462346FFF766FD17F8011C884204D1EF
:1044D00017F8013B002BF1D10021084601B0F0BDD7
:1044E0000021084601B0F0BD89B170B54A1E92B2F4
:1044F00045F2F65345F2F66E01F0030C032AC0F6BE
:104500000003C0F6000E08D2FF21FF222AE0FF219F
:104510004FF47F40084380B2704721F00304FF212D
:10452000FF2200BF10F8045B043C69405D5C10F89A
:10453000036C6A4072401EF801109D5C10F8026C1A
:10454000694071401EF802205D5C10F8016C6A4001
:1045500072401EF801109D5C1EF80220260481EABC
:104560000501DFD1BCF1000F1CD00478BCF1010FB4
:1045700084EA0104195D81EA02011EF8042011D0C9
:104580004478BCF1020F81EA04015C5C84EA020415
:104590001EF80120E1B205D080784840195C5140F6
:1045A0001EF80020D0B20002BDE87040084380B27F
:1045B00070470000B0B540F2C065C2F20005024687
:1045C00028680C46AAB140F2E861C2F2000101225B
:1045D000FEF7F6F828688CB190F84100202818BF43
:1045E000B0BD40F23810C2F200000068BDE8B04033
:1045F0000047FDF731FC2868002CEDD1BDE8B04044
:10460000FDF7F0BC40F2BC60C2F200000068FDF7AC
:1046100059BA000040F2BC60C2F2000040F21C1126
:104620000068C2F2000100224A80FDF721BA0000B2
:1046300040F21A12C2F2000213780146012B4FF029
:10464000000018BF704753780B701070012070473E
:1046500040F21A11C2F20001002201200A707047D4
:1046600040F21A120146C2F200020120107001202D
:104670005170704780B540F2E861C2F200010A78DB
:10468000027040F2C060C2F2000000680122FEF732
:1046900097F8012080BD00000120704780B540F2EE
:1046A000C062C2F2000240F2E9611268C2F2000187
:1046B000087010460122FEF7BDF8012080BD000001
:1046C00040F21C120146C2F2000201201180704724
:1046D00010B582B040F22014C2F20004607868BBCA
:1046E0000DF10700FFF7C6FF2078032823D8DFE885
:1046F00000F020021020002060809DF807006188F3
:104700004A1C628040F2EA62C2F200025054022067
:104710000EE06088FF280AD89DF8070061884A1CCF
:10472000628040F2EA62C2F20002505401E00320CB
:104730002070FFF76FFF002002B010BD45F6690141
:1047400002A0C0F60001E422FBF7BAFD65536E64D7
:104750005374617465203D3D2053544154455F546A
:10476000585F49444C450000B0B540F22015C2F2F4
:104770000005287803280CD0022805D058B900205D
:10478000FFF76EFF044613E00120FFF769FF0446C0
:104790000EE000240CE0287820B12878022803D10C
:1047A000002405E0002403E02878032806D1002433
:1047B000FFF728FF012120462970B0BD45F606000D
:1047C00045F66901C0F60000C0F600014FF4AE7274
:1047D000FBF776FDF0B581B040F22016C2F200067C
:1047E0003078012834D17078012807D018B9012019
:1047F0000021FFF7DFFE002001B0F0BDB08840F6D9
:104800000004C4F2010488B1204610210122FCF703
:1048100023FBB0680078FFF741FFB0680130B0605B
:10482000B0880138B080002001B0F0BD0320FFF750
:1048300017FF0546012000210027FFF7BBFE204699
:10484000102100227770FCF707FB284601B0F0BD6D
:1048500045F6690103A0C0F6000140F21F12FBF704
:104860002FFD00BF655263765374617465203D3D32
:104870002053544154455F52585F49444C45000011
:104880000000000000000000010203040607080900
:10489000000000000102030400000000000000000E
:1048A0000000000000000000000000000000000008
:1048B0000000000000000000000000000000000CEC
:1048C000000C000C000C000C000C000C000C000C88
:1048D000000C000C0000000C000C000000000000A8
:1048E0000000001B001B001B001B001B0000000041
:1048F00000000000000000000000000000000000B8
:104900000000000000008019801980198019C07F04
:10491000C07F80190033C07FC07F00330033003375
:1049200000330000000000000000001E003F807502
:1049300080650074003C001E00078005806580656E
:104940008075003F001E000400040000000000709D
:1049500000D840D8C0D880D900730006000C801B56
:10496000C036C066C046C0068003000000000000DC
:104970000000001E003F003300330033001E000C17
:10498000C03CC066806380618063C03E801C0000C4
:10499000000000000000000C000C000C000C000CDB
:1049A0000000000000000000000000000000000007
:1049B000000000000000000080000001000300066D
:1049C00000060004000C000C000C000C000C000C95
:1049D0000004000600060003000180000020001013
:1049E0000018000C000C000400060006000600067B
:1049F000000600060004000C000C00180010002047
:104A00000000000C002D003F001E003300000000DD
:104A10000000000000000000000000000000000096
:104A200000000000000000000000000C000C000C62
:104A3000000CC0FFC0FF000C000C000C000C0000BC
:104A40000000000000000000000000000000000066
:104A50000000000000000000000000000000000056
:104A60000000000C000C000400040008000000001E
:104A70000000000000000000000000000000001E18
:104A8000001E000000000000000000000000000008
:104A90000000000000000000000000000000000016
:104AA00000000000000000000000000C000C0000EE
:104AB00000000000000000030003000300060006E1
:104AC00000060006000C000C000C000C001800187A
:104AD00000180000000000000000001E003F00332E
:104AE000806180618061806D806D806180618061A6
:104AF0000033003F001E0000000000000000000620
:104B0000000E001E00360026000600060006000605
:104B10000006000600060006000600000000000077
:104B20000000001E003F80738061806180010003EF
:104B30000006000C001800300060807F807F0000BD
:104B4000000000000000001C003E00630063000342
:104B5000000E000E00038001800180618073003F21
:104B6000001E00000000000000000006000E000E05
:104B7000001E001E0016003600360066807F807F13
:104B80000006000600060000000000000000007F94
:104B9000007F006000600060006E007F8063800125
:104BA000800180618073003F001E00000000000053
:104BB0000000001E003F803380610060006E007FB7
:104BC00080738061806180618033003F001E00003F
:104BD000000000000000807F807F80010003000350
:104BE00000060006000C000C000C0008001800185D
:104BF00000180000000000000000001E003F80635D
:104C0000806180610021001E003F806180618061C1
:104C10008061003F001E0000000000000000001E38
:104C2000003F00738061806180618073803F801DE0
:104C3000800180610073003F001E00000000000042
:104C400000000000000000000000000C000C00004C
:104C500000000000000000000000000C000C00003C
:104C60000000000000000000000000000000000044
:104C7000000C000C00000000000000000000000C10
:104C8000000C000400040008000000000000000008
:104C900080008003000E003800600038000E8003A2
:104CA0008000000000000000000000000000000084
:104CB000000000000000807F807F00000000807FF7
:104CC000807F0000000000000000000000000000E5
:104CD000000000000000000000400070001C000701
:104CE00080010007001C0070004000000000000070
:104CF000000000000000001F803FC071C060C000C5
:104D0000C00180030007000E000C000C0000000C26
:104D1000000C0000000000000000001E003F803179
:104D200080718063806F806D806D806F80670060B0
:104D30000032003E001C0000000000000000000ED9
:104D4000000E001B001B001B001B80318031803FC8
:104D5000803F8031C060C060C06000000000000083
:104D60000000007C007E0063006300630063007E3F
:104D7000007E0063806180618063007F007E0000B0
:104D8000000000000000001E003F803180610060D4
:104D90000060006000600060006080618031003F62
:104DA000001E0000000000000000007C007F006387
:104DB0008063806180618061806180618061006367
:104DC0000063007E007C0000000000000000807F87
:104DD000807F0060006000600060007F007F0060F6
:104DE000006000600060807F807F000000000000A5
:104DF0000000807F807F0060006000600060007FB6
:104E0000007F0060006000600060006000600000E3
:104E1000000000000000001E003F80318061006043
:104E20000060006080638063806180618031803FCA
:104E3000001E0000000000000000806180618061B1
:104E4000806180618061807F807F8061806180611E
:104E50008061806180610000000000000000003F70
:104E6000003F000C000C000C000C000C000C000CAF
:104E7000000C000C000C003F003F00000000000090
:104E8000000080018001800180018001800180019B
:104E900080018001806180618073003F001E0000FE
:104EA000000000000000C0608061006300660066D2
:104EB000006C0078007C00660066006380618061A1
:104EC000C0600000000000000000006000600060A2
:104ED00000600060006000600060006000600060D2
:104EE0000060807F807F0000000000000000C07133
:104EF000C071C07BC07AC06AC06AC06EC064C06046
:104F0000C060C060C060C060C06000000000000001
:104F1000000080718071807980798079806D806DEA
:104F2000806D806580678067806780638063000034
:104F3000000000000000001E003F0033806180611F
:104F40008061806180618061806180610033003FA9
:104F5000001E0000000000000000007E007F806353
:104F60008061806180618063007F007E00600060FE
:104F70000060006000600000000000000000001EF3
:104F8000003F003380618061806180618061806169
:104F9000806580670033803F401E000000000000F5
:104FA0000000007E007F8063806180618063007FFD
:104FB000007E00660063006380618061C060000065
:104FC000000000000000000E001F80318031003022
:104FD0000038001E00078003806180618031003F3F
:104FE000001E0000000000000000C0FFC0FF000C19
:104FF000000C000C000C000C000C000C000C000C51
:10500000000C000C000C000000000000000080619B
:105010008061806180618061806180618061806188
:10502000806180618073003F001E0000000000006E
:105030000000C060C060C060803180318031001BE2
:10504000001B001B001B000E000E000E00040000E1
:10505000000000000000C0C0C0C0C0C0C0C0C0C0D0
:10506000C0CC804C804C805E8052805280738061C6
:1050700080610000000000000000C0C0806080610E
:105080000033003B001E000C000C001E001F003B04
:1050900080718061C0C00000000000000000C0C03E
:1050A0008061806100330033001E001E000C000C84
:1050B000000C000C000C000C000C000000000000B4
:1050C0000000803F803F8001000300030006000CC9
:1050D000000C0018001800300060807F807F000006
:1050E00000000000000F000F000C000C000C000C72
:1050F000000C000C000C000C000C000C000C000C50
:10510000000C000C000F000F000000180018001821
:10511000000C000C000C000C000600060006000647
:10512000000300030003000000000000001E001E3A
:10513000000600060006000600060006000600063F
:10514000000600060006000600060006001E001EFF
:105150000000000C000C001E0012003300338061C0
:10516000806100000000000000000000000000005E
:10517000000000000000000000000000000000002F
:10518000000000000000000000000000000000001F
:1051900000000000E0FF0000000000380018000CD4
:1051A00000000000000000000000000000000000FF
:1051B00000000000000000000000000000000000EF
:1051C000000000000000001F803F80618001801F00
:1051D000803F80618063807FC03800000000000055
:1051E00000000060006000600060006E007F80735F
:1051F00080618061806180618073007F006E00004B
:105200000000000000000000000000000000001E80
:10521000003F807380610060006080618073003FA8
:10522000001E0000000000000000800180018001DD
:105230008001801D803F807380618061806180611A
:105240008073803F801D000000000000000000000F
:10525000000000000000001E003F00738061807F9E
:10526000807F00608071003F001E00000000000091
:105270000000C007C00F000C000C807F807F000C76
:10528000000C000C000C000C000C000C000C0000CA
:10529000000000000000000000000000801D803FB2
:1052A000807380618061806180618073803F801D38
:1052B00080018063007F003E0000006000600060AD
:1052C0000060006F807F807180618061806180619B
:1052D0008061806180610000000000000000000625
:1052E000000600000000003E003E0006000600062A
:1052F0000006000600060006000600000000000090
:105300000006000600000000003E003E0006000609
:10531000000600060006000600060006000600461D
:10532000007E003C00000060006000600060806162
:1053300000630066006C007C00760063006380619F
:10534000C0600000000000000000003E003E0006BB
:10535000000600060006000600060006000600061D
:10536000000600060006000000000000000000002B
:1053700000000000000080DDC0FFC0CEC0CCC0CC6B
:10538000C0CCC0CCC0CCC0CCC0CC00000000000061
:1053900000000000000000000000006F807F8071AE
:1053A00080618061806180618061806180610000D6
:1053B0000000000000000000000000000000001ECF
:1053C000003F807380618061806180618073003FF5
:1053D000001E0000000000000000000000000000AF
:1053E000006E007F80738061806180618061807366
:1053F000007F006E00600060006000600000000040
:1054000000000000801D803F8073806180618061AA
:1054100080618073803F801D800180018001800158
:10542000000000000000000000000067803F00391D
:10543000003000300030003000300030003000001C
:105440000000000000000000000000000000001E3E
:10545000803F80610060007F803F80018061007F2D
:10546000001E0000000000000000000000080018FE
:105470000018007F007F001800180018001800189E
:105480000018801F800F00000000000000000000D6
:1054900000000000000080618061806180618061A7
:1054A000806180618063807F803D0000000000009B
:1054B00000000000000000000000C060803180316A
:1054C0008031001B001B001B000E000E00060000B8
:1054D000000000000000000000000000000080DD6F
:1054E00080DD80DD005500550055007700770022F3
:1054F000002200000000000000000000000000008A
:105500000000806100330033001E000C000C001E00
:105510000033003380610000000000000000000044
:105520000000000080618061803100330033001B87
:10553000001B001B000E000E000E001C007C007003
:1055400000000000000000000000C07FC07F80015C
:1055500000030006000C00180030C07FC07F000070
:105560000000000080038007000600060006000619
:105570000006000E001C001C000E000600060006BF
:1055800000060006800780030006000600060006ED
:1055900000060006000600060006000600060006DB
:1055A0000006000600060006000600060038003C63
:1055B000000C000C000C000C000C000E0007000793
:1055C000000E000C000C000C000C000C003C00381D
:1055D0000000000000000000000000000000803813
:1055E000807F004700000000000000000000000075
:1055F00000000000010200C1814001C0804101C0E3
:10560000804100C1814001C0804100C1814000C192
:10561000814001C0804101C0804100C1814000C182
:10562000814001C0804100C1814001C0804101C072
:10563000804100C1814001C0804100C1814000C162
:10564000814001C0804100C1814001C0804101C052
:10565000804100C1814000C1814001C0804101C042
:10566000804100C1814001C0804100C1814000C132
:10567000814001C0804101C0804100C1814000C122
:10568000814001C0804100C1814001C0804101C012
:10569000804100C1814000C1814001C0804101C002
:1056A000804100C1814001C0804100C1814000C1F2
:1056B000814001C0804100C1814001C0804101C0E2
:1056C000804100C1814001C0804100C1814000C1D2
:1056D000814001C0804101C0804100C1814000C1C2
:1056E000814001C0804100C1814001C0804101C0B2
:1056F000804100C1814000C0C101C30302C2C6068F
:1057000007C705C5C404CC0C0DCD0FCFCE0E0ACAF9
:10571000CB0BC90908C8D81819D91BDBDA1A1EDE49
:10572000DF1FDD1D1CDC14D4D515D71716D6D212F9
:1057300013D311D1D010F03031F133F3F23236F609
:10574000F737F53534F43CFCFD3DFF3F3EFEFA3AB9
:105750003BFB39F9F83828E8E929EB2B2AEAEE2E49
:105760002FEF2DEDEC2CE42425E527E7E62622E2B9
:10577000E323E12120E0A06061A163A3A26266A609
:10578000A767A56564A46CACAD6DAF6F6EAEAA6A79
:105790006BAB69A9A86878B8B979BB7B7ABABE7EC9
:1057A0007FBF7DBDBC7CB47475B577B7B67672B279
:1057B000B373B17170B05090915193535292965609
:1057C0005797559594549C5C5D9D5F9F9E5E5A9A39
:1057D0009B5B99595898884849894B8B8A4A4E8EC9
:1057E0008F4F8D4D4C8C4484854587474686824239
:1057F00043834181804002030405060708090A0B20
:105800000C0D0E0F101028206552637653746174CE
:1058100065203D3D2053544154455F52585F494EE9
:1058200049542029207C7C202820655263765374BB
:10583000617465203D3D2053544154455F52585F8B
:105840005243562029207C7C2028206552637653C1
:1058500074617465203D3D2053544154455F525856
:105860005F4552524F522029002E2E2F4C696272F2
:105870006172792F4D6F646275732F7274752F6D1D
:10588000627274752E63002573000000B058000822
:105890000000002098000000280100084859000876
:1058A00098000020580D000044010008000000008E
:1058B00001000000100000000B12000098480008D2
:1058C0000024F400020000001100000081340008F0
:1058D000030000001D34000810000000D53400084B
:1058E00006000000A13400080000000000000000D5
:1058F00000000000000000000000000000000000A8
:105900000000000000000000000000000000000097
:105910000000000000000000000000000000000087
:105920000000000000000000000000000000000077
:105930000000000000000000000000000000000067
:0859400000000000000000005F
:04000005080000ED02
:00000001FF
